{
	"vulnerablereentrancy.sol": {
		"EtherStore": {
			"abi": [
				{
					"inputs": [
						{
							"internalType": "address",
							"name": "",
							"type": "address"
						}
					],
					"name": "balance",
					"outputs": [
						{
							"internalType": "uint256",
							"name": "",
							"type": "uint256"
						}
					],
					"stateMutability": "view",
					"type": "function"
				},
				{
					"inputs": [],
					"name": "deposit",
					"outputs": [],
					"stateMutability": "payable",
					"type": "function"
				},
				{
					"inputs": [],
					"name": "withdraw",
					"outputs": [],
					"stateMutability": "nonpayable",
					"type": "function"
				}
			],
			"devdoc": {
				"kind": "dev",
				"methods": {},
				"version": 1
			},
			"evm": {
				"assembly": "    /* \"vulnerablereentrancy.sol\":61:491  contract EtherStore {... */\n  mstore(0x40, 0x80)\n  callvalue\n  dup1\n  iszero\n  tag_1\n  jumpi\n  0x00\n  dup1\n  revert\ntag_1:\n  pop\n  dataSize(sub_0)\n  dup1\n  dataOffset(sub_0)\n  0x00\n  codecopy\n  0x00\n  return\nstop\n\nsub_0: assembly {\n        /* \"vulnerablereentrancy.sol\":61:491  contract EtherStore {... */\n      mstore(0x40, 0x80)\n      jumpi(tag_1, lt(calldatasize, 0x04))\n      shr(0xe0, calldataload(0x00))\n      dup1\n      0x3ccfd60b\n      eq\n      tag_2\n      jumpi\n      dup1\n      0xd0e30db0\n      eq\n      tag_3\n      jumpi\n      dup1\n      0xe3d670d7\n      eq\n      tag_4\n      jumpi\n    tag_1:\n      0x00\n      dup1\n      revert\n        /* \"vulnerablereentrancy.sol\":231:488  function withdraw() public{... */\n    tag_2:\n      callvalue\n      dup1\n      iszero\n      tag_5\n      jumpi\n      0x00\n      dup1\n      revert\n    tag_5:\n      pop\n      tag_6\n      tag_7\n      jump\t// in\n    tag_6:\n      stop\n        /* \"vulnerablereentrancy.sol\":137:222  function deposit() public payable {... */\n    tag_3:\n      tag_8\n      tag_9\n      jump\t// in\n    tag_8:\n      stop\n        /* \"vulnerablereentrancy.sol\":88:127  mapping(address => uint) public balance */\n    tag_4:\n      callvalue\n      dup1\n      iszero\n      tag_10\n      jumpi\n      0x00\n      dup1\n      revert\n    tag_10:\n      pop\n      tag_11\n      0x04\n      dup1\n      calldatasize\n      sub\n      dup2\n      add\n      swap1\n      tag_12\n      swap2\n      swap1\n      tag_13\n      jump\t// in\n    tag_12:\n      tag_14\n      jump\t// in\n    tag_11:\n      mload(0x40)\n      tag_15\n      swap2\n      swap1\n      tag_16\n      jump\t// in\n    tag_15:\n      mload(0x40)\n      dup1\n      swap2\n      sub\n      swap1\n      return\n        /* \"vulnerablereentrancy.sol\":231:488  function withdraw() public{... */\n    tag_7:\n        /* \"vulnerablereentrancy.sol\":265:273  uint bal */\n      0x00\n        /* \"vulnerablereentrancy.sol\":276:283  balance */\n      dup1\n        /* \"vulnerablereentrancy.sol\":276:295  balance[msg.sender] */\n      0x00\n        /* \"vulnerablereentrancy.sol\":284:294  msg.sender */\n      caller\n        /* \"vulnerablereentrancy.sol\":276:295  balance[msg.sender] */\n      0xffffffffffffffffffffffffffffffffffffffff\n      and\n      0xffffffffffffffffffffffffffffffffffffffff\n      and\n      dup2\n      mstore\n      0x20\n      add\n      swap1\n      dup2\n      mstore\n      0x20\n      add\n      0x00\n      keccak256\n      sload\n        /* \"vulnerablereentrancy.sol\":265:295  uint bal = balance[msg.sender] */\n      swap1\n      pop\n        /* \"vulnerablereentrancy.sol\":315:316  0 */\n      0x00\n        /* \"vulnerablereentrancy.sol\":310:313  bal */\n      dup2\n        /* \"vulnerablereentrancy.sol\":310:316  bal >0 */\n      gt\n        /* \"vulnerablereentrancy.sol\":302:349  require(bal >0,\"Your balance is equal to zero\") */\n      tag_18\n      jumpi\n      mload(0x40)\n      0x08c379a000000000000000000000000000000000000000000000000000000000\n      dup2\n      mstore\n      0x04\n      add\n      tag_19\n      swap1\n      tag_20\n      jump\t// in\n    tag_19:\n      mload(0x40)\n      dup1\n      swap2\n      sub\n      swap1\n      revert\n    tag_18:\n        /* \"vulnerablereentrancy.sol\":358:367  bool sent */\n      0x00\n        /* \"vulnerablereentrancy.sol\":373:383  msg.sender */\n      caller\n        /* \"vulnerablereentrancy.sol\":373:388  msg.sender.call */\n      0xffffffffffffffffffffffffffffffffffffffff\n      and\n        /* \"vulnerablereentrancy.sol\":396:399  bal */\n      dup3\n        /* \"vulnerablereentrancy.sol\":373:404  msg.sender.call{value: bal}(\"\") */\n      mload(0x40)\n      tag_21\n      swap1\n      tag_22\n      jump\t// in\n    tag_21:\n      0x00\n      mload(0x40)\n      dup1\n      dup4\n      sub\n      dup2\n      dup6\n      dup8\n      gas\n      call\n      swap3\n      pop\n      pop\n      pop\n      returndatasize\n      dup1\n      0x00\n      dup2\n      eq\n      tag_25\n      jumpi\n      mload(0x40)\n      swap2\n      pop\n      and(add(returndatasize, 0x3f), not(0x1f))\n      dup3\n      add\n      0x40\n      mstore\n      returndatasize\n      dup3\n      mstore\n      returndatasize\n      0x00\n      0x20\n      dup5\n      add\n      returndatacopy\n      jump(tag_24)\n    tag_25:\n      0x60\n      swap2\n      pop\n    tag_24:\n      pop\n        /* \"vulnerablereentrancy.sol\":357:404  (bool sent,) =  msg.sender.call{value: bal}(\"\") */\n      pop\n      swap1\n      pop\n        /* \"vulnerablereentrancy.sol\":417:421  sent */\n      dup1\n        /* \"vulnerablereentrancy.sol\":409:452  require(sent,\"Transfer did not go through\") */\n      tag_26\n      jumpi\n      mload(0x40)\n      0x08c379a000000000000000000000000000000000000000000000000000000000\n      dup2\n      mstore\n      0x04\n      add\n      tag_27\n      swap1\n      tag_28\n      jump\t// in\n    tag_27:\n      mload(0x40)\n      dup1\n      swap2\n      sub\n      swap1\n      revert\n    tag_26:\n        /* \"vulnerablereentrancy.sol\":479:480  0 */\n      0x00\n        /* \"vulnerablereentrancy.sol\":457:464  balance */\n      dup1\n        /* \"vulnerablereentrancy.sol\":457:476  balance[msg.sender] */\n      0x00\n        /* \"vulnerablereentrancy.sol\":465:475  msg.sender */\n      caller\n        /* \"vulnerablereentrancy.sol\":457:476  balance[msg.sender] */\n      0xffffffffffffffffffffffffffffffffffffffff\n      and\n      0xffffffffffffffffffffffffffffffffffffffff\n      and\n      dup2\n      mstore\n      0x20\n      add\n      swap1\n      dup2\n      mstore\n      0x20\n      add\n      0x00\n      keccak256\n        /* \"vulnerablereentrancy.sol\":457:480  balance[msg.sender] = 0 */\n      dup2\n      swap1\n      sstore\n      pop\n        /* \"vulnerablereentrancy.sol\":257:488  {... */\n      pop\n      pop\n        /* \"vulnerablereentrancy.sol\":231:488  function withdraw() public{... */\n      jump\t// out\n        /* \"vulnerablereentrancy.sol\":137:222  function deposit() public payable {... */\n    tag_9:\n        /* \"vulnerablereentrancy.sol\":205:214  msg.value */\n      callvalue\n        /* \"vulnerablereentrancy.sol\":182:189  balance */\n      0x00\n        /* \"vulnerablereentrancy.sol\":182:201  balance[msg.sender] */\n      dup1\n        /* \"vulnerablereentrancy.sol\":190:200  msg.sender */\n      caller\n        /* \"vulnerablereentrancy.sol\":182:201  balance[msg.sender] */\n      0xffffffffffffffffffffffffffffffffffffffff\n      and\n      0xffffffffffffffffffffffffffffffffffffffff\n      and\n      dup2\n      mstore\n      0x20\n      add\n      swap1\n      dup2\n      mstore\n      0x20\n      add\n      0x00\n      keccak256\n      0x00\n        /* \"vulnerablereentrancy.sol\":182:214  balance[msg.sender] += msg.value */\n      dup3\n      dup3\n      sload\n      tag_30\n      swap2\n      swap1\n      tag_31\n      jump\t// in\n    tag_30:\n      swap3\n      pop\n      pop\n      dup2\n      swap1\n      sstore\n      pop\n        /* \"vulnerablereentrancy.sol\":137:222  function deposit() public payable {... */\n      jump\t// out\n        /* \"vulnerablereentrancy.sol\":88:127  mapping(address => uint) public balance */\n    tag_14:\n      mstore(0x20, 0x00)\n      dup1\n      0x00\n      mstore\n      keccak256(0x00, 0x40)\n      0x00\n      swap2\n      pop\n      swap1\n      pop\n      sload\n      dup2\n      jump\t// out\n        /* \"#utility.yul\":88:205   */\n    tag_33:\n        /* \"#utility.yul\":197:198   */\n      0x00\n        /* \"#utility.yul\":194:195   */\n      dup1\n        /* \"#utility.yul\":187:199   */\n      revert\n        /* \"#utility.yul\":334:460   */\n    tag_35:\n        /* \"#utility.yul\":371:378   */\n      0x00\n        /* \"#utility.yul\":411:453   */\n      0xffffffffffffffffffffffffffffffffffffffff\n        /* \"#utility.yul\":404:409   */\n      dup3\n        /* \"#utility.yul\":400:454   */\n      and\n        /* \"#utility.yul\":389:454   */\n      swap1\n      pop\n        /* \"#utility.yul\":334:460   */\n      swap2\n      swap1\n      pop\n      jump\t// out\n        /* \"#utility.yul\":466:562   */\n    tag_36:\n        /* \"#utility.yul\":503:510   */\n      0x00\n        /* \"#utility.yul\":532:556   */\n      tag_56\n        /* \"#utility.yul\":550:555   */\n      dup3\n        /* \"#utility.yul\":532:556   */\n      tag_35\n      jump\t// in\n    tag_56:\n        /* \"#utility.yul\":521:556   */\n      swap1\n      pop\n        /* \"#utility.yul\":466:562   */\n      swap2\n      swap1\n      pop\n      jump\t// out\n        /* \"#utility.yul\":568:690   */\n    tag_37:\n        /* \"#utility.yul\":641:665   */\n      tag_58\n        /* \"#utility.yul\":659:664   */\n      dup2\n        /* \"#utility.yul\":641:665   */\n      tag_36\n      jump\t// in\n    tag_58:\n        /* \"#utility.yul\":634:639   */\n      dup2\n        /* \"#utility.yul\":631:666   */\n      eq\n        /* \"#utility.yul\":621:684   */\n      tag_59\n      jumpi\n        /* \"#utility.yul\":680:681   */\n      0x00\n        /* \"#utility.yul\":677:678   */\n      dup1\n        /* \"#utility.yul\":670:682   */\n      revert\n        /* \"#utility.yul\":621:684   */\n    tag_59:\n        /* \"#utility.yul\":568:690   */\n      pop\n      jump\t// out\n        /* \"#utility.yul\":696:835   */\n    tag_38:\n        /* \"#utility.yul\":742:747   */\n      0x00\n        /* \"#utility.yul\":780:786   */\n      dup2\n        /* \"#utility.yul\":767:787   */\n      calldataload\n        /* \"#utility.yul\":758:787   */\n      swap1\n      pop\n        /* \"#utility.yul\":796:829   */\n      tag_61\n        /* \"#utility.yul\":823:828   */\n      dup2\n        /* \"#utility.yul\":796:829   */\n      tag_37\n      jump\t// in\n    tag_61:\n        /* \"#utility.yul\":696:835   */\n      swap3\n      swap2\n      pop\n      pop\n      jump\t// out\n        /* \"#utility.yul\":841:1170   */\n    tag_13:\n        /* \"#utility.yul\":900:906   */\n      0x00\n        /* \"#utility.yul\":949:951   */\n      0x20\n        /* \"#utility.yul\":937:946   */\n      dup3\n        /* \"#utility.yul\":928:935   */\n      dup5\n        /* \"#utility.yul\":924:947   */\n      sub\n        /* \"#utility.yul\":920:952   */\n      slt\n        /* \"#utility.yul\":917:1036   */\n      iszero\n      tag_63\n      jumpi\n        /* \"#utility.yul\":955:1034   */\n      tag_64\n      tag_33\n      jump\t// in\n    tag_64:\n        /* \"#utility.yul\":917:1036   */\n    tag_63:\n        /* \"#utility.yul\":1075:1076   */\n      0x00\n        /* \"#utility.yul\":1100:1153   */\n      tag_65\n        /* \"#utility.yul\":1145:1152   */\n      dup5\n        /* \"#utility.yul\":1136:1142   */\n      dup3\n        /* \"#utility.yul\":1125:1134   */\n      dup6\n        /* \"#utility.yul\":1121:1143   */\n      add\n        /* \"#utility.yul\":1100:1153   */\n      tag_38\n      jump\t// in\n    tag_65:\n        /* \"#utility.yul\":1090:1153   */\n      swap2\n      pop\n        /* \"#utility.yul\":1046:1163   */\n      pop\n        /* \"#utility.yul\":841:1170   */\n      swap3\n      swap2\n      pop\n      pop\n      jump\t// out\n        /* \"#utility.yul\":1176:1253   */\n    tag_39:\n        /* \"#utility.yul\":1213:1220   */\n      0x00\n        /* \"#utility.yul\":1242:1247   */\n      dup2\n        /* \"#utility.yul\":1231:1247   */\n      swap1\n      pop\n        /* \"#utility.yul\":1176:1253   */\n      swap2\n      swap1\n      pop\n      jump\t// out\n        /* \"#utility.yul\":1259:1377   */\n    tag_40:\n        /* \"#utility.yul\":1346:1370   */\n      tag_68\n        /* \"#utility.yul\":1364:1369   */\n      dup2\n        /* \"#utility.yul\":1346:1370   */\n      tag_39\n      jump\t// in\n    tag_68:\n        /* \"#utility.yul\":1341:1344   */\n      dup3\n        /* \"#utility.yul\":1334:1371   */\n      mstore\n        /* \"#utility.yul\":1259:1377   */\n      pop\n      pop\n      jump\t// out\n        /* \"#utility.yul\":1383:1605   */\n    tag_16:\n        /* \"#utility.yul\":1476:1480   */\n      0x00\n        /* \"#utility.yul\":1514:1516   */\n      0x20\n        /* \"#utility.yul\":1503:1512   */\n      dup3\n        /* \"#utility.yul\":1499:1517   */\n      add\n        /* \"#utility.yul\":1491:1517   */\n      swap1\n      pop\n        /* \"#utility.yul\":1527:1598   */\n      tag_70\n        /* \"#utility.yul\":1595:1596   */\n      0x00\n        /* \"#utility.yul\":1584:1593   */\n      dup4\n        /* \"#utility.yul\":1580:1597   */\n      add\n        /* \"#utility.yul\":1571:1577   */\n      dup5\n        /* \"#utility.yul\":1527:1598   */\n      tag_40\n      jump\t// in\n    tag_70:\n        /* \"#utility.yul\":1383:1605   */\n      swap3\n      swap2\n      pop\n      pop\n      jump\t// out\n        /* \"#utility.yul\":1611:1780   */\n    tag_41:\n        /* \"#utility.yul\":1695:1706   */\n      0x00\n        /* \"#utility.yul\":1729:1735   */\n      dup3\n        /* \"#utility.yul\":1724:1727   */\n      dup3\n        /* \"#utility.yul\":1717:1736   */\n      mstore\n        /* \"#utility.yul\":1769:1773   */\n      0x20\n        /* \"#utility.yul\":1764:1767   */\n      dup3\n        /* \"#utility.yul\":1760:1774   */\n      add\n        /* \"#utility.yul\":1745:1774   */\n      swap1\n      pop\n        /* \"#utility.yul\":1611:1780   */\n      swap3\n      swap2\n      pop\n      pop\n      jump\t// out\n        /* \"#utility.yul\":1786:1965   */\n    tag_42:\n        /* \"#utility.yul\":1926:1957   */\n      0x596f75722062616c616e636520697320657175616c20746f207a65726f000000\n        /* \"#utility.yul\":1922:1923   */\n      0x00\n        /* \"#utility.yul\":1914:1920   */\n      dup3\n        /* \"#utility.yul\":1910:1924   */\n      add\n        /* \"#utility.yul\":1903:1958   */\n      mstore\n        /* \"#utility.yul\":1786:1965   */\n      pop\n      jump\t// out\n        /* \"#utility.yul\":1971:2337   */\n    tag_43:\n        /* \"#utility.yul\":2113:2116   */\n      0x00\n        /* \"#utility.yul\":2134:2201   */\n      tag_74\n        /* \"#utility.yul\":2198:2200   */\n      0x1d\n        /* \"#utility.yul\":2193:2196   */\n      dup4\n        /* \"#utility.yul\":2134:2201   */\n      tag_41\n      jump\t// in\n    tag_74:\n        /* \"#utility.yul\":2127:2201   */\n      swap2\n      pop\n        /* \"#utility.yul\":2210:2303   */\n      tag_75\n        /* \"#utility.yul\":2299:2302   */\n      dup3\n        /* \"#utility.yul\":2210:2303   */\n      tag_42\n      jump\t// in\n    tag_75:\n        /* \"#utility.yul\":2328:2330   */\n      0x20\n        /* \"#utility.yul\":2323:2326   */\n      dup3\n        /* \"#utility.yul\":2319:2331   */\n      add\n        /* \"#utility.yul\":2312:2331   */\n      swap1\n      pop\n        /* \"#utility.yul\":1971:2337   */\n      swap2\n      swap1\n      pop\n      jump\t// out\n        /* \"#utility.yul\":2343:2762   */\n    tag_20:\n        /* \"#utility.yul\":2509:2513   */\n      0x00\n        /* \"#utility.yul\":2547:2549   */\n      0x20\n        /* \"#utility.yul\":2536:2545   */\n      dup3\n        /* \"#utility.yul\":2532:2550   */\n      add\n        /* \"#utility.yul\":2524:2550   */\n      swap1\n      pop\n        /* \"#utility.yul\":2596:2605   */\n      dup2\n        /* \"#utility.yul\":2590:2594   */\n      dup2\n        /* \"#utility.yul\":2586:2606   */\n      sub\n        /* \"#utility.yul\":2582:2583   */\n      0x00\n        /* \"#utility.yul\":2571:2580   */\n      dup4\n        /* \"#utility.yul\":2567:2584   */\n      add\n        /* \"#utility.yul\":2560:2607   */\n      mstore\n        /* \"#utility.yul\":2624:2755   */\n      tag_77\n        /* \"#utility.yul\":2750:2754   */\n      dup2\n        /* \"#utility.yul\":2624:2755   */\n      tag_43\n      jump\t// in\n    tag_77:\n        /* \"#utility.yul\":2616:2755   */\n      swap1\n      pop\n        /* \"#utility.yul\":2343:2762   */\n      swap2\n      swap1\n      pop\n      jump\t// out\n        /* \"#utility.yul\":2768:2915   */\n    tag_44:\n        /* \"#utility.yul\":2869:2880   */\n      0x00\n        /* \"#utility.yul\":2906:2909   */\n      dup2\n        /* \"#utility.yul\":2891:2909   */\n      swap1\n      pop\n        /* \"#utility.yul\":2768:2915   */\n      swap3\n      swap2\n      pop\n      pop\n      jump\t// out\n        /* \"#utility.yul\":2921:3035   */\n    tag_45:\n      pop\n      jump\t// out\n        /* \"#utility.yul\":3041:3439   */\n    tag_46:\n        /* \"#utility.yul\":3200:3203   */\n      0x00\n        /* \"#utility.yul\":3221:3304   */\n      tag_81\n        /* \"#utility.yul\":3302:3303   */\n      0x00\n        /* \"#utility.yul\":3297:3300   */\n      dup4\n        /* \"#utility.yul\":3221:3304   */\n      tag_44\n      jump\t// in\n    tag_81:\n        /* \"#utility.yul\":3214:3304   */\n      swap2\n      pop\n        /* \"#utility.yul\":3313:3406   */\n      tag_82\n        /* \"#utility.yul\":3402:3405   */\n      dup3\n        /* \"#utility.yul\":3313:3406   */\n      tag_45\n      jump\t// in\n    tag_82:\n        /* \"#utility.yul\":3431:3432   */\n      0x00\n        /* \"#utility.yul\":3426:3429   */\n      dup3\n        /* \"#utility.yul\":3422:3433   */\n      add\n        /* \"#utility.yul\":3415:3433   */\n      swap1\n      pop\n        /* \"#utility.yul\":3041:3439   */\n      swap2\n      swap1\n      pop\n      jump\t// out\n        /* \"#utility.yul\":3445:3824   */\n    tag_22:\n        /* \"#utility.yul\":3629:3632   */\n      0x00\n        /* \"#utility.yul\":3651:3798   */\n      tag_84\n        /* \"#utility.yul\":3794:3797   */\n      dup3\n        /* \"#utility.yul\":3651:3798   */\n      tag_46\n      jump\t// in\n    tag_84:\n        /* \"#utility.yul\":3644:3798   */\n      swap2\n      pop\n        /* \"#utility.yul\":3815:3818   */\n      dup2\n        /* \"#utility.yul\":3808:3818   */\n      swap1\n      pop\n        /* \"#utility.yul\":3445:3824   */\n      swap2\n      swap1\n      pop\n      jump\t// out\n        /* \"#utility.yul\":3830:4007   */\n    tag_47:\n        /* \"#utility.yul\":3970:3999   */\n      0x5472616e7366657220646964206e6f7420676f207468726f7567680000000000\n        /* \"#utility.yul\":3966:3967   */\n      0x00\n        /* \"#utility.yul\":3958:3964   */\n      dup3\n        /* \"#utility.yul\":3954:3968   */\n      add\n        /* \"#utility.yul\":3947:4000   */\n      mstore\n        /* \"#utility.yul\":3830:4007   */\n      pop\n      jump\t// out\n        /* \"#utility.yul\":4013:4379   */\n    tag_48:\n        /* \"#utility.yul\":4155:4158   */\n      0x00\n        /* \"#utility.yul\":4176:4243   */\n      tag_87\n        /* \"#utility.yul\":4240:4242   */\n      0x1b\n        /* \"#utility.yul\":4235:4238   */\n      dup4\n        /* \"#utility.yul\":4176:4243   */\n      tag_41\n      jump\t// in\n    tag_87:\n        /* \"#utility.yul\":4169:4243   */\n      swap2\n      pop\n        /* \"#utility.yul\":4252:4345   */\n      tag_88\n        /* \"#utility.yul\":4341:4344   */\n      dup3\n        /* \"#utility.yul\":4252:4345   */\n      tag_47\n      jump\t// in\n    tag_88:\n        /* \"#utility.yul\":4370:4372   */\n      0x20\n        /* \"#utility.yul\":4365:4368   */\n      dup3\n        /* \"#utility.yul\":4361:4373   */\n      add\n        /* \"#utility.yul\":4354:4373   */\n      swap1\n      pop\n        /* \"#utility.yul\":4013:4379   */\n      swap2\n      swap1\n      pop\n      jump\t// out\n        /* \"#utility.yul\":4385:4804   */\n    tag_28:\n        /* \"#utility.yul\":4551:4555   */\n      0x00\n        /* \"#utility.yul\":4589:4591   */\n      0x20\n        /* \"#utility.yul\":4578:4587   */\n      dup3\n        /* \"#utility.yul\":4574:4592   */\n      add\n        /* \"#utility.yul\":4566:4592   */\n      swap1\n      pop\n        /* \"#utility.yul\":4638:4647   */\n      dup2\n        /* \"#utility.yul\":4632:4636   */\n      dup2\n        /* \"#utility.yul\":4628:4648   */\n      sub\n        /* \"#utility.yul\":4624:4625   */\n      0x00\n        /* \"#utility.yul\":4613:4622   */\n      dup4\n        /* \"#utility.yul\":4609:4626   */\n      add\n        /* \"#utility.yul\":4602:4649   */\n      mstore\n        /* \"#utility.yul\":4666:4797   */\n      tag_90\n        /* \"#utility.yul\":4792:4796   */\n      dup2\n        /* \"#utility.yul\":4666:4797   */\n      tag_48\n      jump\t// in\n    tag_90:\n        /* \"#utility.yul\":4658:4797   */\n      swap1\n      pop\n        /* \"#utility.yul\":4385:4804   */\n      swap2\n      swap1\n      pop\n      jump\t// out\n        /* \"#utility.yul\":4810:4990   */\n    tag_49:\n        /* \"#utility.yul\":4858:4935   */\n      0x4e487b7100000000000000000000000000000000000000000000000000000000\n        /* \"#utility.yul\":4855:4856   */\n      0x00\n        /* \"#utility.yul\":4848:4936   */\n      mstore\n        /* \"#utility.yul\":4955:4959   */\n      0x11\n        /* \"#utility.yul\":4952:4953   */\n      0x04\n        /* \"#utility.yul\":4945:4960   */\n      mstore\n        /* \"#utility.yul\":4979:4983   */\n      0x24\n        /* \"#utility.yul\":4976:4977   */\n      0x00\n        /* \"#utility.yul\":4969:4984   */\n      revert\n        /* \"#utility.yul\":4996:5187   */\n    tag_31:\n        /* \"#utility.yul\":5036:5039   */\n      0x00\n        /* \"#utility.yul\":5055:5075   */\n      tag_93\n        /* \"#utility.yul\":5073:5074   */\n      dup3\n        /* \"#utility.yul\":5055:5075   */\n      tag_39\n      jump\t// in\n    tag_93:\n        /* \"#utility.yul\":5050:5075   */\n      swap2\n      pop\n        /* \"#utility.yul\":5089:5109   */\n      tag_94\n        /* \"#utility.yul\":5107:5108   */\n      dup4\n        /* \"#utility.yul\":5089:5109   */\n      tag_39\n      jump\t// in\n    tag_94:\n        /* \"#utility.yul\":5084:5109   */\n      swap3\n      pop\n        /* \"#utility.yul\":5132:5133   */\n      dup3\n        /* \"#utility.yul\":5129:5130   */\n      dup3\n        /* \"#utility.yul\":5125:5134   */\n      add\n        /* \"#utility.yul\":5118:5134   */\n      swap1\n      pop\n        /* \"#utility.yul\":5153:5156   */\n      dup1\n        /* \"#utility.yul\":5150:5151   */\n      dup3\n        /* \"#utility.yul\":5147:5157   */\n      gt\n        /* \"#utility.yul\":5144:5180   */\n      iszero\n      tag_95\n      jumpi\n        /* \"#utility.yul\":5160:5178   */\n      tag_96\n      tag_49\n      jump\t// in\n    tag_96:\n        /* \"#utility.yul\":5144:5180   */\n    tag_95:\n        /* \"#utility.yul\":4996:5187   */\n      swap3\n      swap2\n      pop\n      pop\n      jump\t// out\n\n    auxdata: 0xa26469706673582212206ecc36c6a02f3c0bfafcb7bb82b6a52e17149598b1e6a26d7011ebd3ee3d956464736f6c63430008160033\n}\n",
				"bytecode": {
					"linkReferences": {},
					"object": "608060405234801561000f575f80fd5b506104db8061001d5f395ff3fe608060405260043610610033575f3560e01c80633ccfd60b14610037578063d0e30db01461004d578063e3d670d714610057575b5f80fd5b348015610042575f80fd5b5061004b610093565b005b610055610202565b005b348015610062575f80fd5b5061007d600480360381019061007891906102c8565b610256565b60405161008a919061030b565b60405180910390f35b5f805f3373ffffffffffffffffffffffffffffffffffffffff1673ffffffffffffffffffffffffffffffffffffffff1681526020019081526020015f205490505f8111610115576040517f08c379a000000000000000000000000000000000000000000000000000000000815260040161010c9061037e565b60405180910390fd5b5f3373ffffffffffffffffffffffffffffffffffffffff168260405161013a906103c9565b5f6040518083038185875af1925050503d805f8114610174576040519150601f19603f3d011682016040523d82523d5f602084013e610179565b606091505b50509050806101bd576040517f08c379a00000000000000000000000000000000000000000000000000000000081526004016101b490610427565b60405180910390fd5b5f805f3373ffffffffffffffffffffffffffffffffffffffff1673ffffffffffffffffffffffffffffffffffffffff1681526020019081526020015f20819055505050565b345f803373ffffffffffffffffffffffffffffffffffffffff1673ffffffffffffffffffffffffffffffffffffffff1681526020019081526020015f205f82825461024d9190610472565b92505081905550565b5f602052805f5260405f205f915090505481565b5f80fd5b5f73ffffffffffffffffffffffffffffffffffffffff82169050919050565b5f6102978261026e565b9050919050565b6102a78161028d565b81146102b1575f80fd5b50565b5f813590506102c28161029e565b92915050565b5f602082840312156102dd576102dc61026a565b5b5f6102ea848285016102b4565b91505092915050565b5f819050919050565b610305816102f3565b82525050565b5f60208201905061031e5f8301846102fc565b92915050565b5f82825260208201905092915050565b7f596f75722062616c616e636520697320657175616c20746f207a65726f0000005f82015250565b5f610368601d83610324565b915061037382610334565b602082019050919050565b5f6020820190508181035f8301526103958161035c565b9050919050565b5f81905092915050565b50565b5f6103b45f8361039c565b91506103bf826103a6565b5f82019050919050565b5f6103d3826103a9565b9150819050919050565b7f5472616e7366657220646964206e6f7420676f207468726f75676800000000005f82015250565b5f610411601b83610324565b915061041c826103dd565b602082019050919050565b5f6020820190508181035f83015261043e81610405565b9050919050565b7f4e487b71000000000000000000000000000000000000000000000000000000005f52601160045260245ffd5b5f61047c826102f3565b9150610487836102f3565b925082820190508082111561049f5761049e610445565b5b9291505056fea26469706673582212206ecc36c6a02f3c0bfafcb7bb82b6a52e17149598b1e6a26d7011ebd3ee3d956464736f6c63430008160033",
					"opcodes": "PUSH1 0x80 PUSH1 0x40 MSTORE CALLVALUE DUP1 ISZERO PUSH2 0xF JUMPI PUSH0 DUP1 REVERT JUMPDEST POP PUSH2 0x4DB DUP1 PUSH2 0x1D PUSH0 CODECOPY PUSH0 RETURN INVALID PUSH1 0x80 PUSH1 0x40 MSTORE PUSH1 0x4 CALLDATASIZE LT PUSH2 0x33 JUMPI PUSH0 CALLDATALOAD PUSH1 0xE0 SHR DUP1 PUSH4 0x3CCFD60B EQ PUSH2 0x37 JUMPI DUP1 PUSH4 0xD0E30DB0 EQ PUSH2 0x4D JUMPI DUP1 PUSH4 0xE3D670D7 EQ PUSH2 0x57 JUMPI JUMPDEST PUSH0 DUP1 REVERT JUMPDEST CALLVALUE DUP1 ISZERO PUSH2 0x42 JUMPI PUSH0 DUP1 REVERT JUMPDEST POP PUSH2 0x4B PUSH2 0x93 JUMP JUMPDEST STOP JUMPDEST PUSH2 0x55 PUSH2 0x202 JUMP JUMPDEST STOP JUMPDEST CALLVALUE DUP1 ISZERO PUSH2 0x62 JUMPI PUSH0 DUP1 REVERT JUMPDEST POP PUSH2 0x7D PUSH1 0x4 DUP1 CALLDATASIZE SUB DUP2 ADD SWAP1 PUSH2 0x78 SWAP2 SWAP1 PUSH2 0x2C8 JUMP JUMPDEST PUSH2 0x256 JUMP JUMPDEST PUSH1 0x40 MLOAD PUSH2 0x8A SWAP2 SWAP1 PUSH2 0x30B JUMP JUMPDEST PUSH1 0x40 MLOAD DUP1 SWAP2 SUB SWAP1 RETURN JUMPDEST PUSH0 DUP1 PUSH0 CALLER PUSH20 0xFFFFFFFFFFFFFFFFFFFFFFFFFFFFFFFFFFFFFFFF AND PUSH20 0xFFFFFFFFFFFFFFFFFFFFFFFFFFFFFFFFFFFFFFFF AND DUP2 MSTORE PUSH1 0x20 ADD SWAP1 DUP2 MSTORE PUSH1 0x20 ADD PUSH0 KECCAK256 SLOAD SWAP1 POP PUSH0 DUP2 GT PUSH2 0x115 JUMPI PUSH1 0x40 MLOAD PUSH32 0x8C379A000000000000000000000000000000000000000000000000000000000 DUP2 MSTORE PUSH1 0x4 ADD PUSH2 0x10C SWAP1 PUSH2 0x37E JUMP JUMPDEST PUSH1 0x40 MLOAD DUP1 SWAP2 SUB SWAP1 REVERT JUMPDEST PUSH0 CALLER PUSH20 0xFFFFFFFFFFFFFFFFFFFFFFFFFFFFFFFFFFFFFFFF AND DUP3 PUSH1 0x40 MLOAD PUSH2 0x13A SWAP1 PUSH2 0x3C9 JUMP JUMPDEST PUSH0 PUSH1 0x40 MLOAD DUP1 DUP4 SUB DUP2 DUP6 DUP8 GAS CALL SWAP3 POP POP POP RETURNDATASIZE DUP1 PUSH0 DUP2 EQ PUSH2 0x174 JUMPI PUSH1 0x40 MLOAD SWAP2 POP PUSH1 0x1F NOT PUSH1 0x3F RETURNDATASIZE ADD AND DUP3 ADD PUSH1 0x40 MSTORE RETURNDATASIZE DUP3 MSTORE RETURNDATASIZE PUSH0 PUSH1 0x20 DUP5 ADD RETURNDATACOPY PUSH2 0x179 JUMP JUMPDEST PUSH1 0x60 SWAP2 POP JUMPDEST POP POP SWAP1 POP DUP1 PUSH2 0x1BD JUMPI PUSH1 0x40 MLOAD PUSH32 0x8C379A000000000000000000000000000000000000000000000000000000000 DUP2 MSTORE PUSH1 0x4 ADD PUSH2 0x1B4 SWAP1 PUSH2 0x427 JUMP JUMPDEST PUSH1 0x40 MLOAD DUP1 SWAP2 SUB SWAP1 REVERT JUMPDEST PUSH0 DUP1 PUSH0 CALLER PUSH20 0xFFFFFFFFFFFFFFFFFFFFFFFFFFFFFFFFFFFFFFFF AND PUSH20 0xFFFFFFFFFFFFFFFFFFFFFFFFFFFFFFFFFFFFFFFF AND DUP2 MSTORE PUSH1 0x20 ADD SWAP1 DUP2 MSTORE PUSH1 0x20 ADD PUSH0 KECCAK256 DUP2 SWAP1 SSTORE POP POP POP JUMP JUMPDEST CALLVALUE PUSH0 DUP1 CALLER PUSH20 0xFFFFFFFFFFFFFFFFFFFFFFFFFFFFFFFFFFFFFFFF AND PUSH20 0xFFFFFFFFFFFFFFFFFFFFFFFFFFFFFFFFFFFFFFFF AND DUP2 MSTORE PUSH1 0x20 ADD SWAP1 DUP2 MSTORE PUSH1 0x20 ADD PUSH0 KECCAK256 PUSH0 DUP3 DUP3 SLOAD PUSH2 0x24D SWAP2 SWAP1 PUSH2 0x472 JUMP JUMPDEST SWAP3 POP POP DUP2 SWAP1 SSTORE POP JUMP JUMPDEST PUSH0 PUSH1 0x20 MSTORE DUP1 PUSH0 MSTORE PUSH1 0x40 PUSH0 KECCAK256 PUSH0 SWAP2 POP SWAP1 POP SLOAD DUP2 JUMP JUMPDEST PUSH0 DUP1 REVERT JUMPDEST PUSH0 PUSH20 0xFFFFFFFFFFFFFFFFFFFFFFFFFFFFFFFFFFFFFFFF DUP3 AND SWAP1 POP SWAP2 SWAP1 POP JUMP JUMPDEST PUSH0 PUSH2 0x297 DUP3 PUSH2 0x26E JUMP JUMPDEST SWAP1 POP SWAP2 SWAP1 POP JUMP JUMPDEST PUSH2 0x2A7 DUP2 PUSH2 0x28D JUMP JUMPDEST DUP2 EQ PUSH2 0x2B1 JUMPI PUSH0 DUP1 REVERT JUMPDEST POP JUMP JUMPDEST PUSH0 DUP2 CALLDATALOAD SWAP1 POP PUSH2 0x2C2 DUP2 PUSH2 0x29E JUMP JUMPDEST SWAP3 SWAP2 POP POP JUMP JUMPDEST PUSH0 PUSH1 0x20 DUP3 DUP5 SUB SLT ISZERO PUSH2 0x2DD JUMPI PUSH2 0x2DC PUSH2 0x26A JUMP JUMPDEST JUMPDEST PUSH0 PUSH2 0x2EA DUP5 DUP3 DUP6 ADD PUSH2 0x2B4 JUMP JUMPDEST SWAP2 POP POP SWAP3 SWAP2 POP POP JUMP JUMPDEST PUSH0 DUP2 SWAP1 POP SWAP2 SWAP1 POP JUMP JUMPDEST PUSH2 0x305 DUP2 PUSH2 0x2F3 JUMP JUMPDEST DUP3 MSTORE POP POP JUMP JUMPDEST PUSH0 PUSH1 0x20 DUP3 ADD SWAP1 POP PUSH2 0x31E PUSH0 DUP4 ADD DUP5 PUSH2 0x2FC JUMP JUMPDEST SWAP3 SWAP2 POP POP JUMP JUMPDEST PUSH0 DUP3 DUP3 MSTORE PUSH1 0x20 DUP3 ADD SWAP1 POP SWAP3 SWAP2 POP POP JUMP JUMPDEST PUSH32 0x596F75722062616C616E636520697320657175616C20746F207A65726F000000 PUSH0 DUP3 ADD MSTORE POP JUMP JUMPDEST PUSH0 PUSH2 0x368 PUSH1 0x1D DUP4 PUSH2 0x324 JUMP JUMPDEST SWAP2 POP PUSH2 0x373 DUP3 PUSH2 0x334 JUMP JUMPDEST PUSH1 0x20 DUP3 ADD SWAP1 POP SWAP2 SWAP1 POP JUMP JUMPDEST PUSH0 PUSH1 0x20 DUP3 ADD SWAP1 POP DUP2 DUP2 SUB PUSH0 DUP4 ADD MSTORE PUSH2 0x395 DUP2 PUSH2 0x35C JUMP JUMPDEST SWAP1 POP SWAP2 SWAP1 POP JUMP JUMPDEST PUSH0 DUP2 SWAP1 POP SWAP3 SWAP2 POP POP JUMP JUMPDEST POP JUMP JUMPDEST PUSH0 PUSH2 0x3B4 PUSH0 DUP4 PUSH2 0x39C JUMP JUMPDEST SWAP2 POP PUSH2 0x3BF DUP3 PUSH2 0x3A6 JUMP JUMPDEST PUSH0 DUP3 ADD SWAP1 POP SWAP2 SWAP1 POP JUMP JUMPDEST PUSH0 PUSH2 0x3D3 DUP3 PUSH2 0x3A9 JUMP JUMPDEST SWAP2 POP DUP2 SWAP1 POP SWAP2 SWAP1 POP JUMP JUMPDEST PUSH32 0x5472616E7366657220646964206E6F7420676F207468726F7567680000000000 PUSH0 DUP3 ADD MSTORE POP JUMP JUMPDEST PUSH0 PUSH2 0x411 PUSH1 0x1B DUP4 PUSH2 0x324 JUMP JUMPDEST SWAP2 POP PUSH2 0x41C DUP3 PUSH2 0x3DD JUMP JUMPDEST PUSH1 0x20 DUP3 ADD SWAP1 POP SWAP2 SWAP1 POP JUMP JUMPDEST PUSH0 PUSH1 0x20 DUP3 ADD SWAP1 POP DUP2 DUP2 SUB PUSH0 DUP4 ADD MSTORE PUSH2 0x43E DUP2 PUSH2 0x405 JUMP JUMPDEST SWAP1 POP SWAP2 SWAP1 POP JUMP JUMPDEST PUSH32 0x4E487B7100000000000000000000000000000000000000000000000000000000 PUSH0 MSTORE PUSH1 0x11 PUSH1 0x4 MSTORE PUSH1 0x24 PUSH0 REVERT JUMPDEST PUSH0 PUSH2 0x47C DUP3 PUSH2 0x2F3 JUMP JUMPDEST SWAP2 POP PUSH2 0x487 DUP4 PUSH2 0x2F3 JUMP JUMPDEST SWAP3 POP DUP3 DUP3 ADD SWAP1 POP DUP1 DUP3 GT ISZERO PUSH2 0x49F JUMPI PUSH2 0x49E PUSH2 0x445 JUMP JUMPDEST JUMPDEST SWAP3 SWAP2 POP POP JUMP INVALID LOG2 PUSH5 0x6970667358 0x22 SLT KECCAK256 PUSH15 0xCC36C6A02F3C0BFAFCB7BB82B6A52E OR EQ SWAP6 SWAP9 0xB1 0xE6 LOG2 PUSH14 0x7011EBD3EE3D956464736F6C6343 STOP ADDMOD AND STOP CALLER "
				},
				"gasEstimates": {
					"creation": {
						"codeDepositCost": "248600",
						"executionCost": "285",
						"totalCost": "248885"
					},
					"external": {
						"balance(address)": "2823",
						"deposit()": "infinite",
						"withdraw()": "infinite"
					}
				},
				"methodIdentifiers": {
					"balance(address)": "e3d670d7",
					"deposit()": "d0e30db0",
					"withdraw()": "3ccfd60b"
				}
			},
			"storageLayout": {
				"storage": [
					{
						"astId": 5,
						"contract": "vulnerablereentrancy.sol:EtherStore",
						"label": "balance",
						"offset": 0,
						"slot": "0",
						"type": "t_mapping(t_address,t_uint256)"
					}
				],
				"types": {
					"t_address": {
						"encoding": "inplace",
						"label": "address",
						"numberOfBytes": "20"
					},
					"t_mapping(t_address,t_uint256)": {
						"encoding": "mapping",
						"key": "t_address",
						"label": "mapping(address => uint256)",
						"numberOfBytes": "32",
						"value": "t_uint256"
					},
					"t_uint256": {
						"encoding": "inplace",
						"label": "uint256",
						"numberOfBytes": "32"
					}
				}
			},
			"userdoc": {
				"kind": "user",
				"methods": {},
				"version": 1
			}
		}
	}
}