{
	"crowdfunding.sol": {
		"CrowdFunding": {
			"abi": [
				{
					"inputs": [
						{
							"internalType": "address",
							"name": "_token",
							"type": "address"
						}
					],
					"stateMutability": "nonpayable",
					"type": "constructor"
				},
				{
					"anonymous": false,
					"inputs": [
						{
							"indexed": false,
							"internalType": "uint256",
							"name": "id",
							"type": "uint256"
						}
					],
					"name": "Cancel",
					"type": "event"
				},
				{
					"anonymous": false,
					"inputs": [
						{
							"indexed": false,
							"internalType": "uint256",
							"name": "id",
							"type": "uint256"
						}
					],
					"name": "Claim",
					"type": "event"
				},
				{
					"anonymous": false,
					"inputs": [
						{
							"indexed": false,
							"internalType": "uint256",
							"name": "id",
							"type": "uint256"
						},
						{
							"indexed": true,
							"internalType": "address",
							"name": "creator",
							"type": "address"
						},
						{
							"indexed": false,
							"internalType": "uint256",
							"name": "goal",
							"type": "uint256"
						},
						{
							"indexed": false,
							"internalType": "uint256",
							"name": "startAt",
							"type": "uint256"
						},
						{
							"indexed": false,
							"internalType": "uint256",
							"name": "endAt",
							"type": "uint256"
						}
					],
					"name": "Launch",
					"type": "event"
				},
				{
					"anonymous": false,
					"inputs": [
						{
							"indexed": true,
							"internalType": "uint256",
							"name": "id",
							"type": "uint256"
						},
						{
							"indexed": true,
							"internalType": "address",
							"name": "caller",
							"type": "address"
						},
						{
							"indexed": false,
							"internalType": "uint256",
							"name": "amount",
							"type": "uint256"
						}
					],
					"name": "Pledge",
					"type": "event"
				},
				{
					"anonymous": false,
					"inputs": [
						{
							"indexed": false,
							"internalType": "uint256",
							"name": "id",
							"type": "uint256"
						},
						{
							"indexed": true,
							"internalType": "address",
							"name": "caller",
							"type": "address"
						},
						{
							"indexed": false,
							"internalType": "uint256",
							"name": "amount",
							"type": "uint256"
						}
					],
					"name": "Refund",
					"type": "event"
				},
				{
					"anonymous": false,
					"inputs": [
						{
							"indexed": true,
							"internalType": "uint256",
							"name": "id",
							"type": "uint256"
						},
						{
							"indexed": true,
							"internalType": "address",
							"name": "caller",
							"type": "address"
						},
						{
							"indexed": false,
							"internalType": "uint256",
							"name": "amount",
							"type": "uint256"
						}
					],
					"name": "Unpledge",
					"type": "event"
				},
				{
					"inputs": [
						{
							"internalType": "uint256",
							"name": "",
							"type": "uint256"
						}
					],
					"name": "campaigns",
					"outputs": [
						{
							"internalType": "address",
							"name": "creator",
							"type": "address"
						},
						{
							"internalType": "uint256",
							"name": "goal",
							"type": "uint256"
						},
						{
							"internalType": "uint256",
							"name": "pledged",
							"type": "uint256"
						},
						{
							"internalType": "uint256",
							"name": "startAt",
							"type": "uint256"
						},
						{
							"internalType": "uint256",
							"name": "endAt",
							"type": "uint256"
						},
						{
							"internalType": "bool",
							"name": "claimed",
							"type": "bool"
						}
					],
					"stateMutability": "view",
					"type": "function"
				},
				{
					"inputs": [
						{
							"internalType": "uint256",
							"name": "_id",
							"type": "uint256"
						}
					],
					"name": "cancel",
					"outputs": [],
					"stateMutability": "nonpayable",
					"type": "function"
				},
				{
					"inputs": [
						{
							"internalType": "uint256",
							"name": "_id",
							"type": "uint256"
						}
					],
					"name": "claim",
					"outputs": [],
					"stateMutability": "nonpayable",
					"type": "function"
				},
				{
					"inputs": [],
					"name": "count",
					"outputs": [
						{
							"internalType": "uint256",
							"name": "",
							"type": "uint256"
						}
					],
					"stateMutability": "view",
					"type": "function"
				},
				{
					"inputs": [
						{
							"internalType": "uint256",
							"name": "_goal",
							"type": "uint256"
						},
						{
							"internalType": "uint32",
							"name": "_startAt",
							"type": "uint32"
						},
						{
							"internalType": "uint32",
							"name": "_endAt",
							"type": "uint32"
						}
					],
					"name": "launch",
					"outputs": [],
					"stateMutability": "nonpayable",
					"type": "function"
				},
				{
					"inputs": [
						{
							"internalType": "uint256",
							"name": "_id",
							"type": "uint256"
						},
						{
							"internalType": "uint256",
							"name": "_amount",
							"type": "uint256"
						}
					],
					"name": "pledge",
					"outputs": [],
					"stateMutability": "nonpayable",
					"type": "function"
				},
				{
					"inputs": [
						{
							"internalType": "uint256",
							"name": "",
							"type": "uint256"
						},
						{
							"internalType": "address",
							"name": "",
							"type": "address"
						}
					],
					"name": "pledgedAmount",
					"outputs": [
						{
							"internalType": "uint256",
							"name": "",
							"type": "uint256"
						}
					],
					"stateMutability": "view",
					"type": "function"
				},
				{
					"inputs": [
						{
							"internalType": "uint256",
							"name": "_id",
							"type": "uint256"
						}
					],
					"name": "refund",
					"outputs": [],
					"stateMutability": "nonpayable",
					"type": "function"
				},
				{
					"inputs": [],
					"name": "token",
					"outputs": [
						{
							"internalType": "contract IERC20",
							"name": "",
							"type": "address"
						}
					],
					"stateMutability": "view",
					"type": "function"
				},
				{
					"inputs": [
						{
							"internalType": "uint256",
							"name": "_id",
							"type": "uint256"
						},
						{
							"internalType": "uint256",
							"name": "_amount",
							"type": "uint256"
						}
					],
					"name": "unpledge",
					"outputs": [],
					"stateMutability": "nonpayable",
					"type": "function"
				}
			],
			"devdoc": {
				"kind": "dev",
				"methods": {},
				"version": 1
			},
			"evm": {
				"assembly": "    /* \"crowdfunding.sol\":351:3750  contract CrowdFunding{... */\n  mstore(0x40, 0xa0)\n    /* \"crowdfunding.sol\":1040:1101  constructor(address _token) {... */\n  callvalue\n  dup1\n  iszero\n  tag_1\n  jumpi\n  0x00\n  dup1\n  revert\ntag_1:\n  pop\n  mload(0x40)\n  sub(codesize, bytecodeSize)\n  dup1\n  bytecodeSize\n  dup4\n  codecopy\n  dup2\n  dup2\n  add\n  0x40\n  mstore\n  dup2\n  add\n  swap1\n  tag_2\n  swap2\n  swap1\n  tag_3\n  jump\t// in\ntag_2:\n    /* \"crowdfunding.sol\":1090:1096  _token */\n  dup1\n    /* \"crowdfunding.sol\":1075:1097  token = IERC20(_token) */\n  0xffffffffffffffffffffffffffffffffffffffff\n  and\n  0x80\n  dup2\n  0xffffffffffffffffffffffffffffffffffffffff\n  and\n  dup2\n  mstore\n  pop\n  pop\n    /* \"crowdfunding.sol\":1040:1101  constructor(address _token) {... */\n  pop\n    /* \"crowdfunding.sol\":351:3750  contract CrowdFunding{... */\n  jump(tag_6)\n    /* \"#utility.yul\":88:205   */\ntag_8:\n    /* \"#utility.yul\":197:198   */\n  0x00\n    /* \"#utility.yul\":194:195   */\n  dup1\n    /* \"#utility.yul\":187:199   */\n  revert\n    /* \"#utility.yul\":334:460   */\ntag_10:\n    /* \"#utility.yul\":371:378   */\n  0x00\n    /* \"#utility.yul\":411:453   */\n  0xffffffffffffffffffffffffffffffffffffffff\n    /* \"#utility.yul\":404:409   */\n  dup3\n    /* \"#utility.yul\":400:454   */\n  and\n    /* \"#utility.yul\":389:454   */\n  swap1\n  pop\n    /* \"#utility.yul\":334:460   */\n  swap2\n  swap1\n  pop\n  jump\t// out\n    /* \"#utility.yul\":466:562   */\ntag_11:\n    /* \"#utility.yul\":503:510   */\n  0x00\n    /* \"#utility.yul\":532:556   */\n  tag_20\n    /* \"#utility.yul\":550:555   */\n  dup3\n    /* \"#utility.yul\":532:556   */\n  tag_10\n  jump\t// in\ntag_20:\n    /* \"#utility.yul\":521:556   */\n  swap1\n  pop\n    /* \"#utility.yul\":466:562   */\n  swap2\n  swap1\n  pop\n  jump\t// out\n    /* \"#utility.yul\":568:690   */\ntag_12:\n    /* \"#utility.yul\":641:665   */\n  tag_22\n    /* \"#utility.yul\":659:664   */\n  dup2\n    /* \"#utility.yul\":641:665   */\n  tag_11\n  jump\t// in\ntag_22:\n    /* \"#utility.yul\":634:639   */\n  dup2\n    /* \"#utility.yul\":631:666   */\n  eq\n    /* \"#utility.yul\":621:684   */\n  tag_23\n  jumpi\n    /* \"#utility.yul\":680:681   */\n  0x00\n    /* \"#utility.yul\":677:678   */\n  dup1\n    /* \"#utility.yul\":670:682   */\n  revert\n    /* \"#utility.yul\":621:684   */\ntag_23:\n    /* \"#utility.yul\":568:690   */\n  pop\n  jump\t// out\n    /* \"#utility.yul\":696:839   */\ntag_13:\n    /* \"#utility.yul\":753:758   */\n  0x00\n    /* \"#utility.yul\":784:790   */\n  dup2\n    /* \"#utility.yul\":778:791   */\n  mload\n    /* \"#utility.yul\":769:791   */\n  swap1\n  pop\n    /* \"#utility.yul\":800:833   */\n  tag_25\n    /* \"#utility.yul\":827:832   */\n  dup2\n    /* \"#utility.yul\":800:833   */\n  tag_12\n  jump\t// in\ntag_25:\n    /* \"#utility.yul\":696:839   */\n  swap3\n  swap2\n  pop\n  pop\n  jump\t// out\n    /* \"#utility.yul\":845:1196   */\ntag_3:\n    /* \"#utility.yul\":915:921   */\n  0x00\n    /* \"#utility.yul\":964:966   */\n  0x20\n    /* \"#utility.yul\":952:961   */\n  dup3\n    /* \"#utility.yul\":943:950   */\n  dup5\n    /* \"#utility.yul\":939:962   */\n  sub\n    /* \"#utility.yul\":935:967   */\n  slt\n    /* \"#utility.yul\":932:1051   */\n  iszero\n  tag_27\n  jumpi\n    /* \"#utility.yul\":970:1049   */\n  tag_28\n  tag_8\n  jump\t// in\ntag_28:\n    /* \"#utility.yul\":932:1051   */\ntag_27:\n    /* \"#utility.yul\":1090:1091   */\n  0x00\n    /* \"#utility.yul\":1115:1179   */\n  tag_29\n    /* \"#utility.yul\":1171:1178   */\n  dup5\n    /* \"#utility.yul\":1162:1168   */\n  dup3\n    /* \"#utility.yul\":1151:1160   */\n  dup6\n    /* \"#utility.yul\":1147:1169   */\n  add\n    /* \"#utility.yul\":1115:1179   */\n  tag_13\n  jump\t// in\ntag_29:\n    /* \"#utility.yul\":1105:1179   */\n  swap2\n  pop\n    /* \"#utility.yul\":1061:1189   */\n  pop\n    /* \"#utility.yul\":845:1196   */\n  swap3\n  swap2\n  pop\n  pop\n  jump\t// out\n    /* \"crowdfunding.sol\":351:3750  contract CrowdFunding{... */\ntag_6:\n  mload(0x80)\n  codecopy(0x00, dataOffset(sub_0), dataSize(sub_0))\n  0x00\n  assignImmutable(\"0x5392f7a671cdf89487ccf8e3646ea8f7570009490584962db6fa064c6e4ad499\")\n  return(0x00, dataSize(sub_0))\nstop\n\nsub_0: assembly {\n        /* \"crowdfunding.sol\":351:3750  contract CrowdFunding{... */\n      mstore(0x40, 0x80)\n      callvalue\n      dup1\n      iszero\n      tag_1\n      jumpi\n      0x00\n      dup1\n      revert\n    tag_1:\n      pop\n      jumpi(tag_2, lt(calldatasize, 0x04))\n      shr(0xe0, calldataload(0x00))\n      dup1\n      0x40e58ee5\n      gt\n      tag_13\n      jumpi\n      dup1\n      0x40e58ee5\n      eq\n      tag_8\n      jumpi\n      dup1\n      0x711853ab\n      eq\n      tag_9\n      jumpi\n      dup1\n      0xaa4fb63a\n      eq\n      tag_10\n      jumpi\n      dup1\n      0xfc0c546a\n      eq\n      tag_11\n      jumpi\n      dup1\n      0xfde327be\n      eq\n      tag_12\n      jumpi\n      jump(tag_2)\n    tag_13:\n      dup1\n      0x06661abd\n      eq\n      tag_3\n      jumpi\n      dup1\n      0x141961bc\n      eq\n      tag_4\n      jumpi\n      dup1\n      0x278ecde1\n      eq\n      tag_5\n      jumpi\n      dup1\n      0x2c63f146\n      eq\n      tag_6\n      jumpi\n      dup1\n      0x379607f5\n      eq\n      tag_7\n      jumpi\n    tag_2:\n      0x00\n      dup1\n      revert\n        /* \"crowdfunding.sol\":906:923  uint public count */\n    tag_3:\n      tag_14\n      tag_15\n      jump\t// in\n    tag_14:\n      mload(0x40)\n      tag_16\n      swap2\n      swap1\n      tag_17\n      jump\t// in\n    tag_16:\n      mload(0x40)\n      dup1\n      swap2\n      sub\n      swap1\n      return\n        /* \"crowdfunding.sol\":926:968  mapping(uint => Campaign) public campaigns */\n    tag_4:\n      tag_18\n      0x04\n      dup1\n      calldatasize\n      sub\n      dup2\n      add\n      swap1\n      tag_19\n      swap2\n      swap1\n      tag_20\n      jump\t// in\n    tag_19:\n      tag_21\n      jump\t// in\n    tag_18:\n      mload(0x40)\n      tag_22\n      swap7\n      swap6\n      swap5\n      swap4\n      swap3\n      swap2\n      swap1\n      tag_23\n      jump\t// in\n    tag_22:\n      mload(0x40)\n      dup1\n      swap2\n      sub\n      swap1\n      return\n        /* \"crowdfunding.sol\":3325:3745  function refund(uint _id) external {... */\n    tag_5:\n      tag_24\n      0x04\n      dup1\n      calldatasize\n      sub\n      dup2\n      add\n      swap1\n      tag_25\n      swap2\n      swap1\n      tag_20\n      jump\t// in\n    tag_25:\n      tag_26\n      jump\t// in\n    tag_24:\n      stop\n        /* \"crowdfunding.sol\":1106:1705  function launch(uint _goal, uint32 _startAt, uint32 _endAt) external {... */\n    tag_6:\n      tag_27\n      0x04\n      dup1\n      calldatasize\n      sub\n      dup2\n      add\n      swap1\n      tag_28\n      swap2\n      swap1\n      tag_29\n      jump\t// in\n    tag_28:\n      tag_30\n      jump\t// in\n    tag_27:\n      stop\n        /* \"crowdfunding.sol\":2845:3316  function claim(uint _id) external {... */\n    tag_7:\n      tag_31\n      0x04\n      dup1\n      calldatasize\n      sub\n      dup2\n      add\n      swap1\n      tag_32\n      swap2\n      swap1\n      tag_20\n      jump\t// in\n    tag_32:\n      tag_33\n      jump\t// in\n    tag_31:\n      stop\n        /* \"crowdfunding.sol\":1714:2001  function cancel(uint _id) external {... */\n    tag_8:\n      tag_34\n      0x04\n      dup1\n      calldatasize\n      sub\n      dup2\n      add\n      swap1\n      tag_35\n      swap2\n      swap1\n      tag_20\n      jump\t// in\n    tag_35:\n      tag_36\n      jump\t// in\n    tag_34:\n      stop\n        /* \"crowdfunding.sol\":2470:2836  function unpledge(uint _id, uint _amount) external {... */\n    tag_9:\n      tag_37\n      0x04\n      dup1\n      calldatasize\n      sub\n      dup2\n      add\n      swap1\n      tag_38\n      swap2\n      swap1\n      tag_39\n      jump\t// in\n    tag_38:\n      tag_40\n      jump\t// in\n    tag_37:\n      stop\n        /* \"crowdfunding.sol\":971:1032  mapping(uint => mapping(address =>uint)) public pledgedAmount */\n    tag_10:\n      tag_41\n      0x04\n      dup1\n      calldatasize\n      sub\n      dup2\n      add\n      swap1\n      tag_42\n      swap2\n      swap1\n      tag_43\n      jump\t// in\n    tag_42:\n      tag_44\n      jump\t// in\n    tag_41:\n      mload(0x40)\n      tag_45\n      swap2\n      swap1\n      tag_17\n      jump\t// in\n    tag_45:\n      mload(0x40)\n      dup1\n      swap2\n      sub\n      swap1\n      return\n        /* \"crowdfunding.sol\":871:900  IERC20 public immutable token */\n    tag_11:\n      tag_46\n      tag_47\n      jump\t// in\n    tag_46:\n      mload(0x40)\n      tag_48\n      swap2\n      swap1\n      tag_49\n      jump\t// in\n    tag_48:\n      mload(0x40)\n      dup1\n      swap2\n      sub\n      swap1\n      return\n        /* \"crowdfunding.sol\":2010:2461  function pledge(uint _id, uint _amount) external {... */\n    tag_12:\n      tag_50\n      0x04\n      dup1\n      calldatasize\n      sub\n      dup2\n      add\n      swap1\n      tag_51\n      swap2\n      swap1\n      tag_39\n      jump\t// in\n    tag_51:\n      tag_52\n      jump\t// in\n    tag_50:\n      stop\n        /* \"crowdfunding.sol\":906:923  uint public count */\n    tag_15:\n      sload(0x00)\n      dup2\n      jump\t// out\n        /* \"crowdfunding.sol\":926:968  mapping(uint => Campaign) public campaigns */\n    tag_21:\n      mstore(0x20, 0x01)\n      dup1\n      0x00\n      mstore\n      keccak256(0x00, 0x40)\n      0x00\n      swap2\n      pop\n      swap1\n      pop\n      dup1\n      0x00\n      add\n      0x00\n      swap1\n      sload\n      swap1\n      0x0100\n      exp\n      swap1\n      div\n      0xffffffffffffffffffffffffffffffffffffffff\n      and\n      swap1\n      dup1\n      0x01\n      add\n      sload\n      swap1\n      dup1\n      0x02\n      add\n      sload\n      swap1\n      dup1\n      0x03\n      add\n      sload\n      swap1\n      dup1\n      0x04\n      add\n      sload\n      swap1\n      dup1\n      0x05\n      add\n      0x00\n      swap1\n      sload\n      swap1\n      0x0100\n      exp\n      swap1\n      div\n      0xff\n      and\n      swap1\n      pop\n      dup7\n      jump\t// out\n        /* \"crowdfunding.sol\":3325:3745  function refund(uint _id) external {... */\n    tag_26:\n        /* \"crowdfunding.sol\":3371:3395  Campaign memory campaign */\n      0x00\n        /* \"crowdfunding.sol\":3398:3407  campaigns */\n      0x01\n        /* \"crowdfunding.sol\":3398:3412  campaigns[_id] */\n      0x00\n        /* \"crowdfunding.sol\":3408:3411  _id */\n      dup4\n        /* \"crowdfunding.sol\":3398:3412  campaigns[_id] */\n      dup2\n      mstore\n      0x20\n      add\n      swap1\n      dup2\n      mstore\n      0x20\n      add\n      0x00\n      keccak256\n        /* \"crowdfunding.sol\":3371:3412  Campaign memory campaign = campaigns[_id] */\n      mload(0x40)\n      dup1\n      0xc0\n      add\n      0x40\n      mstore\n      swap1\n      dup2\n      0x00\n      dup3\n      add\n      0x00\n      swap1\n      sload\n      swap1\n      0x0100\n      exp\n      swap1\n      div\n      0xffffffffffffffffffffffffffffffffffffffff\n      and\n      0xffffffffffffffffffffffffffffffffffffffff\n      and\n      0xffffffffffffffffffffffffffffffffffffffff\n      and\n      dup2\n      mstore\n      0x20\n      add\n      0x01\n      dup3\n      add\n      sload\n      dup2\n      mstore\n      0x20\n      add\n      0x02\n      dup3\n      add\n      sload\n      dup2\n      mstore\n      0x20\n      add\n      0x03\n      dup3\n      add\n      sload\n      dup2\n      mstore\n      0x20\n      add\n      0x04\n      dup3\n      add\n      sload\n      dup2\n      mstore\n      0x20\n      add\n      0x05\n      dup3\n      add\n      0x00\n      swap1\n      sload\n      swap1\n      0x0100\n      exp\n      swap1\n      div\n      0xff\n      and\n      iszero\n      iszero\n      iszero\n      iszero\n      dup2\n      mstore\n      pop\n      pop\n      swap1\n      pop\n        /* \"crowdfunding.sol\":3449:3457  campaign */\n      dup1\n        /* \"crowdfunding.sol\":3449:3463  campaign.endAt */\n      0x80\n      add\n      mload\n        /* \"crowdfunding.sol\":3431:3446  block.timestamp */\n      timestamp\n        /* \"crowdfunding.sol\":3431:3463  block.timestamp > campaign.endAt */\n      gt\n        /* \"crowdfunding.sol\":3423:3477  require(block.timestamp > campaign.endAt, \"not ended\") */\n      tag_54\n      jumpi\n      mload(0x40)\n      0x08c379a000000000000000000000000000000000000000000000000000000000\n      dup2\n      mstore\n      0x04\n      add\n      tag_55\n      swap1\n      tag_56\n      jump\t// in\n    tag_55:\n      mload(0x40)\n      dup1\n      swap2\n      sub\n      swap1\n      revert\n    tag_54:\n        /* \"crowdfunding.sol\":3515:3523  campaign */\n      dup1\n        /* \"crowdfunding.sol\":3515:3528  campaign.goal */\n      0x20\n      add\n      mload\n        /* \"crowdfunding.sol\":3496:3504  campaign */\n      dup2\n        /* \"crowdfunding.sol\":3496:3512  campaign.pledged */\n      0x40\n      add\n      mload\n        /* \"crowdfunding.sol\":3496:3528  campaign.pledged < campaign.goal */\n      lt\n        /* \"crowdfunding.sol\":3488:3548  require(campaign.pledged < campaign.goal, \"pledged >= goal\") */\n      tag_57\n      jumpi\n      mload(0x40)\n      0x08c379a000000000000000000000000000000000000000000000000000000000\n      dup2\n      mstore\n      0x04\n      add\n      tag_58\n      swap1\n      tag_59\n      jump\t// in\n    tag_58:\n      mload(0x40)\n      dup1\n      swap2\n      sub\n      swap1\n      revert\n    tag_57:\n        /* \"crowdfunding.sol\":3562:3570  uint bal */\n      0x00\n        /* \"crowdfunding.sol\":3573:3586  pledgedAmount */\n      0x02\n        /* \"crowdfunding.sol\":3573:3591  pledgedAmount[_id] */\n      0x00\n        /* \"crowdfunding.sol\":3587:3590  _id */\n      dup5\n        /* \"crowdfunding.sol\":3573:3591  pledgedAmount[_id] */\n      dup2\n      mstore\n      0x20\n      add\n      swap1\n      dup2\n      mstore\n      0x20\n      add\n      0x00\n      keccak256\n        /* \"crowdfunding.sol\":3573:3603  pledgedAmount[_id][msg.sender] */\n      0x00\n        /* \"crowdfunding.sol\":3592:3602  msg.sender */\n      caller\n        /* \"crowdfunding.sol\":3573:3603  pledgedAmount[_id][msg.sender] */\n      0xffffffffffffffffffffffffffffffffffffffff\n      and\n      0xffffffffffffffffffffffffffffffffffffffff\n      and\n      dup2\n      mstore\n      0x20\n      add\n      swap1\n      dup2\n      mstore\n      0x20\n      add\n      0x00\n      keccak256\n      sload\n        /* \"crowdfunding.sol\":3562:3603  uint bal = pledgedAmount[_id][msg.sender] */\n      swap1\n      pop\n        /* \"crowdfunding.sol\":3647:3648  0 */\n      0x00\n        /* \"crowdfunding.sol\":3614:3627  pledgedAmount */\n      0x02\n        /* \"crowdfunding.sol\":3614:3632  pledgedAmount[_id] */\n      0x00\n        /* \"crowdfunding.sol\":3628:3631  _id */\n      dup6\n        /* \"crowdfunding.sol\":3614:3632  pledgedAmount[_id] */\n      dup2\n      mstore\n      0x20\n      add\n      swap1\n      dup2\n      mstore\n      0x20\n      add\n      0x00\n      keccak256\n        /* \"crowdfunding.sol\":3614:3644  pledgedAmount[_id][msg.sender] */\n      0x00\n        /* \"crowdfunding.sol\":3633:3643  msg.sender */\n      caller\n        /* \"crowdfunding.sol\":3614:3644  pledgedAmount[_id][msg.sender] */\n      0xffffffffffffffffffffffffffffffffffffffff\n      and\n      0xffffffffffffffffffffffffffffffffffffffff\n      and\n      dup2\n      mstore\n      0x20\n      add\n      swap1\n      dup2\n      mstore\n      0x20\n      add\n      0x00\n      keccak256\n        /* \"crowdfunding.sol\":3614:3648  pledgedAmount[_id][msg.sender] = 0 */\n      dup2\n      swap1\n      sstore\n      pop\n        /* \"crowdfunding.sol\":3659:3664  token */\n      immutable(\"0x5392f7a671cdf89487ccf8e3646ea8f7570009490584962db6fa064c6e4ad499\")\n        /* \"crowdfunding.sol\":3659:3673  token.transfer */\n      0xffffffffffffffffffffffffffffffffffffffff\n      and\n      0xa9059cbb\n        /* \"crowdfunding.sol\":3674:3684  msg.sender */\n      caller\n        /* \"crowdfunding.sol\":3686:3689  bal */\n      dup4\n        /* \"crowdfunding.sol\":3659:3690  token.transfer(msg.sender, bal) */\n      mload(0x40)\n      dup4\n      0xffffffff\n      and\n      0xe0\n      shl\n      dup2\n      mstore\n      0x04\n      add\n      tag_60\n      swap3\n      swap2\n      swap1\n      tag_61\n      jump\t// in\n    tag_60:\n      0x20\n      mload(0x40)\n      dup1\n      dup4\n      sub\n      dup2\n      0x00\n      dup8\n      gas\n      call\n      iszero\n      dup1\n      iszero\n      tag_63\n      jumpi\n      returndatasize\n      0x00\n      dup1\n      returndatacopy\n      revert(0x00, returndatasize)\n    tag_63:\n      pop\n      pop\n      pop\n      pop\n      mload(0x40)\n      returndatasize\n      not(0x1f)\n      0x1f\n      dup3\n      add\n      and\n      dup3\n      add\n      dup1\n      0x40\n      mstore\n      pop\n      dup2\n      add\n      swap1\n      tag_64\n      swap2\n      swap1\n      tag_65\n      jump\t// in\n    tag_64:\n      pop\n        /* \"crowdfunding.sol\":3721:3731  msg.sender */\n      caller\n        /* \"crowdfunding.sol\":3709:3737  Refund(_id, msg.sender, bal) */\n      0xffffffffffffffffffffffffffffffffffffffff\n      and\n      0x21e12a7cad0da5928167e1084ea4d5fdf8d9af66657a2543a9ac76a0ca081477\n        /* \"crowdfunding.sol\":3716:3719  _id */\n      dup5\n        /* \"crowdfunding.sol\":3733:3736  bal */\n      dup4\n        /* \"crowdfunding.sol\":3709:3737  Refund(_id, msg.sender, bal) */\n      mload(0x40)\n      tag_66\n      swap3\n      swap2\n      swap1\n      tag_67\n      jump\t// in\n    tag_66:\n      mload(0x40)\n      dup1\n      swap2\n      sub\n      swap1\n      log2\n        /* \"crowdfunding.sol\":3360:3745  {... */\n      pop\n      pop\n        /* \"crowdfunding.sol\":3325:3745  function refund(uint _id) external {... */\n      pop\n      jump\t// out\n        /* \"crowdfunding.sol\":1106:1705  function launch(uint _goal, uint32 _startAt, uint32 _endAt) external {... */\n    tag_30:\n        /* \"crowdfunding.sol\":1206:1221  block.timestamp */\n      timestamp\n        /* \"crowdfunding.sol\":1194:1202  _startAt */\n      dup3\n        /* \"crowdfunding.sol\":1194:1221  _startAt >= block.timestamp */\n      0xffffffff\n      and\n      lt\n      iszero\n        /* \"crowdfunding.sol\":1186:1240  require(_startAt >= block.timestamp, \"start at < now\") */\n      tag_69\n      jumpi\n      mload(0x40)\n      0x08c379a000000000000000000000000000000000000000000000000000000000\n      dup2\n      mstore\n      0x04\n      add\n      tag_70\n      swap1\n      tag_71\n      jump\t// in\n    tag_70:\n      mload(0x40)\n      dup1\n      swap2\n      sub\n      swap1\n      revert\n    tag_69:\n        /* \"crowdfunding.sol\":1269:1277  _startAt */\n      dup2\n        /* \"crowdfunding.sol\":1259:1277  _endAt >= _startAt */\n      0xffffffff\n      and\n        /* \"crowdfunding.sol\":1259:1265  _endAt */\n      dup2\n        /* \"crowdfunding.sol\":1259:1277  _endAt >= _startAt */\n      0xffffffff\n      and\n      lt\n      iszero\n        /* \"crowdfunding.sol\":1251:1299  require(_endAt >= _startAt, \"end at < start at\") */\n      tag_72\n      jumpi\n      mload(0x40)\n      0x08c379a000000000000000000000000000000000000000000000000000000000\n      dup2\n      mstore\n      0x04\n      add\n      tag_73\n      swap1\n      tag_74\n      jump\t// in\n    tag_73:\n      mload(0x40)\n      dup1\n      swap2\n      sub\n      swap1\n      revert\n    tag_72:\n        /* \"crowdfunding.sol\":1346:1353  90 days */\n      0x76a700\n        /* \"crowdfunding.sol\":1328:1343  block.timestamp */\n      timestamp\n        /* \"crowdfunding.sol\":1328:1353  block.timestamp + 90 days */\n      tag_75\n      swap2\n      swap1\n      tag_76\n      jump\t// in\n    tag_75:\n        /* \"crowdfunding.sol\":1318:1324  _endAt */\n      dup2\n        /* \"crowdfunding.sol\":1318:1353  _endAt <= block.timestamp + 90 days */\n      0xffffffff\n      and\n      gt\n      iszero\n        /* \"crowdfunding.sol\":1310:1379  require(_endAt <= block.timestamp + 90 days, \"end at > max duration\") */\n      tag_77\n      jumpi\n      mload(0x40)\n      0x08c379a000000000000000000000000000000000000000000000000000000000\n      dup2\n      mstore\n      0x04\n      add\n      tag_78\n      swap1\n      tag_79\n      jump\t// in\n    tag_78:\n      mload(0x40)\n      dup1\n      swap2\n      sub\n      swap1\n      revert\n    tag_77:\n        /* \"crowdfunding.sol\":1402:1403  1 */\n      0x01\n        /* \"crowdfunding.sol\":1393:1398  count */\n      0x00\n      dup1\n        /* \"crowdfunding.sol\":1393:1403  count += 1 */\n      dup3\n      dup3\n      sload\n      tag_80\n      swap2\n      swap1\n      tag_76\n      jump\t// in\n    tag_80:\n      swap3\n      pop\n      pop\n      dup2\n      swap1\n      sstore\n      pop\n        /* \"crowdfunding.sol\":1433:1628  Campaign({... */\n      mload(0x40)\n      dup1\n      0xc0\n      add\n      0x40\n      mstore\n      dup1\n        /* \"crowdfunding.sol\":1466:1476  msg.sender */\n      caller\n        /* \"crowdfunding.sol\":1433:1628  Campaign({... */\n      0xffffffffffffffffffffffffffffffffffffffff\n      and\n      dup2\n      mstore\n      0x20\n      add\n        /* \"crowdfunding.sol\":1497:1502  _goal */\n      dup5\n        /* \"crowdfunding.sol\":1433:1628  Campaign({... */\n      dup2\n      mstore\n      0x20\n      add\n        /* \"crowdfunding.sol\":1526:1527  0 */\n      0x00\n        /* \"crowdfunding.sol\":1433:1628  Campaign({... */\n      dup2\n      mstore\n      0x20\n      add\n        /* \"crowdfunding.sol\":1551:1559  _startAt */\n      dup4\n        /* \"crowdfunding.sol\":1433:1628  Campaign({... */\n      0xffffffff\n      and\n      dup2\n      mstore\n      0x20\n      add\n        /* \"crowdfunding.sol\":1581:1587  _endAt */\n      dup3\n        /* \"crowdfunding.sol\":1433:1628  Campaign({... */\n      0xffffffff\n      and\n      dup2\n      mstore\n      0x20\n      add\n        /* \"crowdfunding.sol\":1611:1616  false */\n      0x00\n        /* \"crowdfunding.sol\":1433:1628  Campaign({... */\n      iszero\n      iszero\n      dup2\n      mstore\n      pop\n        /* \"crowdfunding.sol\":1414:1423  campaigns */\n      0x01\n        /* \"crowdfunding.sol\":1414:1430  campaigns[count] */\n      0x00\n        /* \"crowdfunding.sol\":1424:1429  count */\n      dup1\n      sload\n        /* \"crowdfunding.sol\":1414:1430  campaigns[count] */\n      dup2\n      mstore\n      0x20\n      add\n      swap1\n      dup2\n      mstore\n      0x20\n      add\n      0x00\n      keccak256\n        /* \"crowdfunding.sol\":1414:1628  campaigns[count] = Campaign({... */\n      0x00\n      dup3\n      add\n      mload\n      dup2\n      0x00\n      add\n      exp(0x0100, 0x00)\n      dup2\n      sload\n      dup2\n      0xffffffffffffffffffffffffffffffffffffffff\n      mul\n      not\n      and\n      swap1\n      dup4\n      0xffffffffffffffffffffffffffffffffffffffff\n      and\n      mul\n      or\n      swap1\n      sstore\n      pop\n      0x20\n      dup3\n      add\n      mload\n      dup2\n      0x01\n      add\n      sstore\n      0x40\n      dup3\n      add\n      mload\n      dup2\n      0x02\n      add\n      sstore\n      0x60\n      dup3\n      add\n      mload\n      dup2\n      0x03\n      add\n      sstore\n      0x80\n      dup3\n      add\n      mload\n      dup2\n      0x04\n      add\n      sstore\n      0xa0\n      dup3\n      add\n      mload\n      dup2\n      0x05\n      add\n      exp(0x0100, 0x00)\n      dup2\n      sload\n      dup2\n      0xff\n      mul\n      not\n      and\n      swap1\n      dup4\n      iszero\n      iszero\n      mul\n      or\n      swap1\n      sstore\n      pop\n      swap1\n      pop\n      pop\n        /* \"crowdfunding.sol\":1661:1671  msg.sender */\n      caller\n        /* \"crowdfunding.sol\":1647:1697  Launch(count, msg.sender, _goal, _startAt, _endAt) */\n      0xffffffffffffffffffffffffffffffffffffffff\n      and\n      0xc9142a9424eb889eb9f9493aeb5b3b9ffffe3e32c9361bd725d709f6b28b91b1\n        /* \"crowdfunding.sol\":1654:1659  count */\n      sload(0x00)\n        /* \"crowdfunding.sol\":1673:1678  _goal */\n      dup6\n        /* \"crowdfunding.sol\":1680:1688  _startAt */\n      dup6\n        /* \"crowdfunding.sol\":1690:1696  _endAt */\n      dup6\n        /* \"crowdfunding.sol\":1647:1697  Launch(count, msg.sender, _goal, _startAt, _endAt) */\n      mload(0x40)\n      tag_81\n      swap5\n      swap4\n      swap3\n      swap2\n      swap1\n      tag_82\n      jump\t// in\n    tag_81:\n      mload(0x40)\n      dup1\n      swap2\n      sub\n      swap1\n      log2\n        /* \"crowdfunding.sol\":1106:1705  function launch(uint _goal, uint32 _startAt, uint32 _endAt) external {... */\n      pop\n      pop\n      pop\n      jump\t// out\n        /* \"crowdfunding.sol\":2845:3316  function claim(uint _id) external {... */\n    tag_33:\n        /* \"crowdfunding.sol\":2890:2915  Campaign storage campaign */\n      0x00\n        /* \"crowdfunding.sol\":2918:2927  campaigns */\n      0x01\n        /* \"crowdfunding.sol\":2918:2932  campaigns[_id] */\n      0x00\n        /* \"crowdfunding.sol\":2928:2931  _id */\n      dup4\n        /* \"crowdfunding.sol\":2918:2932  campaigns[_id] */\n      dup2\n      mstore\n      0x20\n      add\n      swap1\n      dup2\n      mstore\n      0x20\n      add\n      0x00\n      keccak256\n        /* \"crowdfunding.sol\":2890:2932  Campaign storage campaign = campaigns[_id] */\n      swap1\n      pop\n        /* \"crowdfunding.sol\":2971:2981  msg.sender */\n      caller\n        /* \"crowdfunding.sol\":2951:2981  campaign.creator == msg.sender */\n      0xffffffffffffffffffffffffffffffffffffffff\n      and\n        /* \"crowdfunding.sol\":2951:2959  campaign */\n      dup2\n        /* \"crowdfunding.sol\":2951:2967  campaign.creator */\n      0x00\n      add\n      0x00\n      swap1\n      sload\n      swap1\n      0x0100\n      exp\n      swap1\n      div\n      0xffffffffffffffffffffffffffffffffffffffff\n      and\n        /* \"crowdfunding.sol\":2951:2981  campaign.creator == msg.sender */\n      0xffffffffffffffffffffffffffffffffffffffff\n      and\n      eq\n        /* \"crowdfunding.sol\":2943:2997  require(campaign.creator == msg.sender, \"not creator\") */\n      tag_84\n      jumpi\n      mload(0x40)\n      0x08c379a000000000000000000000000000000000000000000000000000000000\n      dup2\n      mstore\n      0x04\n      add\n      tag_85\n      swap1\n      tag_86\n      jump\t// in\n    tag_85:\n      mload(0x40)\n      dup1\n      swap2\n      sub\n      swap1\n      revert\n    tag_84:\n        /* \"crowdfunding.sol\":3034:3042  campaign */\n      dup1\n        /* \"crowdfunding.sol\":3034:3048  campaign.endAt */\n      0x04\n      add\n      sload\n        /* \"crowdfunding.sol\":3016:3031  block.timestamp */\n      timestamp\n        /* \"crowdfunding.sol\":3016:3048  block.timestamp > campaign.endAt */\n      gt\n        /* \"crowdfunding.sol\":3008:3062  require(block.timestamp > campaign.endAt, \"not ended\") */\n      tag_87\n      jumpi\n      mload(0x40)\n      0x08c379a000000000000000000000000000000000000000000000000000000000\n      dup2\n      mstore\n      0x04\n      add\n      tag_88\n      swap1\n      tag_56\n      jump\t// in\n    tag_88:\n      mload(0x40)\n      dup1\n      swap2\n      sub\n      swap1\n      revert\n    tag_87:\n        /* \"crowdfunding.sol\":3101:3109  campaign */\n      dup1\n        /* \"crowdfunding.sol\":3101:3114  campaign.goal */\n      0x01\n      add\n      sload\n        /* \"crowdfunding.sol\":3081:3089  campaign */\n      dup2\n        /* \"crowdfunding.sol\":3081:3097  campaign.pledged */\n      0x02\n      add\n      sload\n        /* \"crowdfunding.sol\":3081:3114  campaign.pledged >= campaign.goal */\n      lt\n      iszero\n        /* \"crowdfunding.sol\":3073:3133  require(campaign.pledged >= campaign.goal, \"pledged < goal\") */\n      tag_89\n      jumpi\n      mload(0x40)\n      0x08c379a000000000000000000000000000000000000000000000000000000000\n      dup2\n      mstore\n      0x04\n      add\n      tag_90\n      swap1\n      tag_91\n      jump\t// in\n    tag_90:\n      mload(0x40)\n      dup1\n      swap2\n      sub\n      swap1\n      revert\n    tag_89:\n        /* \"crowdfunding.sol\":3153:3161  campaign */\n      dup1\n        /* \"crowdfunding.sol\":3153:3169  campaign.claimed */\n      0x05\n      add\n      0x00\n      swap1\n      sload\n      swap1\n      0x0100\n      exp\n      swap1\n      div\n      0xff\n      and\n        /* \"crowdfunding.sol\":3152:3169  !campaign.claimed */\n      iszero\n        /* \"crowdfunding.sol\":3144:3181  require(!campaign.claimed, \"claimed\") */\n      tag_92\n      jumpi\n      mload(0x40)\n      0x08c379a000000000000000000000000000000000000000000000000000000000\n      dup2\n      mstore\n      0x04\n      add\n      tag_93\n      swap1\n      tag_94\n      jump\t// in\n    tag_93:\n      mload(0x40)\n      dup1\n      swap2\n      sub\n      swap1\n      revert\n    tag_92:\n        /* \"crowdfunding.sol\":3214:3218  true */\n      0x01\n        /* \"crowdfunding.sol\":3195:3203  campaign */\n      dup2\n        /* \"crowdfunding.sol\":3195:3211  campaign.claimed */\n      0x05\n      add\n      0x00\n        /* \"crowdfunding.sol\":3195:3218  campaign.claimed = true */\n      0x0100\n      exp\n      dup2\n      sload\n      dup2\n      0xff\n      mul\n      not\n      and\n      swap1\n      dup4\n      iszero\n      iszero\n      mul\n      or\n      swap1\n      sstore\n      pop\n        /* \"crowdfunding.sol\":3229:3234  token */\n      immutable(\"0x5392f7a671cdf89487ccf8e3646ea8f7570009490584962db6fa064c6e4ad499\")\n        /* \"crowdfunding.sol\":3229:3243  token.transfer */\n      0xffffffffffffffffffffffffffffffffffffffff\n      and\n      0xa9059cbb\n        /* \"crowdfunding.sol\":3244:3252  campaign */\n      dup3\n        /* \"crowdfunding.sol\":3244:3260  campaign.creator */\n      0x00\n      add\n      0x00\n      swap1\n      sload\n      swap1\n      0x0100\n      exp\n      swap1\n      div\n      0xffffffffffffffffffffffffffffffffffffffff\n      and\n        /* \"crowdfunding.sol\":3262:3270  campaign */\n      dup4\n        /* \"crowdfunding.sol\":3262:3278  campaign.pledged */\n      0x02\n      add\n      sload\n        /* \"crowdfunding.sol\":3229:3279  token.transfer(campaign.creator, campaign.pledged) */\n      mload(0x40)\n      dup4\n      0xffffffff\n      and\n      0xe0\n      shl\n      dup2\n      mstore\n      0x04\n      add\n      tag_95\n      swap3\n      swap2\n      swap1\n      tag_61\n      jump\t// in\n    tag_95:\n      0x20\n      mload(0x40)\n      dup1\n      dup4\n      sub\n      dup2\n      0x00\n      dup8\n      gas\n      call\n      iszero\n      dup1\n      iszero\n      tag_97\n      jumpi\n      returndatasize\n      0x00\n      dup1\n      returndatacopy\n      revert(0x00, returndatasize)\n    tag_97:\n      pop\n      pop\n      pop\n      pop\n      mload(0x40)\n      returndatasize\n      not(0x1f)\n      0x1f\n      dup3\n      add\n      and\n      dup3\n      add\n      dup1\n      0x40\n      mstore\n      pop\n      dup2\n      add\n      swap1\n      tag_98\n      swap2\n      swap1\n      tag_65\n      jump\t// in\n    tag_98:\n      pop\n        /* \"crowdfunding.sol\":3298:3308  Claim(_id) */\n      0x7bb2b3c10797baccb6f8c4791f1edd6ca2f0d028ee0eda64b01a9a57e3a653f7\n        /* \"crowdfunding.sol\":3304:3307  _id */\n      dup3\n        /* \"crowdfunding.sol\":3298:3308  Claim(_id) */\n      mload(0x40)\n      tag_99\n      swap2\n      swap1\n      tag_17\n      jump\t// in\n    tag_99:\n      mload(0x40)\n      dup1\n      swap2\n      sub\n      swap1\n      log1\n        /* \"crowdfunding.sol\":2879:3316  {... */\n      pop\n        /* \"crowdfunding.sol\":2845:3316  function claim(uint _id) external {... */\n      pop\n      jump\t// out\n        /* \"crowdfunding.sol\":1714:2001  function cancel(uint _id) external {... */\n    tag_36:\n        /* \"crowdfunding.sol\":1760:1784  Campaign memory campaign */\n      0x00\n        /* \"crowdfunding.sol\":1787:1796  campaigns */\n      0x01\n        /* \"crowdfunding.sol\":1787:1801  campaigns[_id] */\n      0x00\n        /* \"crowdfunding.sol\":1797:1800  _id */\n      dup4\n        /* \"crowdfunding.sol\":1787:1801  campaigns[_id] */\n      dup2\n      mstore\n      0x20\n      add\n      swap1\n      dup2\n      mstore\n      0x20\n      add\n      0x00\n      keccak256\n        /* \"crowdfunding.sol\":1760:1801  Campaign memory campaign = campaigns[_id] */\n      mload(0x40)\n      dup1\n      0xc0\n      add\n      0x40\n      mstore\n      swap1\n      dup2\n      0x00\n      dup3\n      add\n      0x00\n      swap1\n      sload\n      swap1\n      0x0100\n      exp\n      swap1\n      div\n      0xffffffffffffffffffffffffffffffffffffffff\n      and\n      0xffffffffffffffffffffffffffffffffffffffff\n      and\n      0xffffffffffffffffffffffffffffffffffffffff\n      and\n      dup2\n      mstore\n      0x20\n      add\n      0x01\n      dup3\n      add\n      sload\n      dup2\n      mstore\n      0x20\n      add\n      0x02\n      dup3\n      add\n      sload\n      dup2\n      mstore\n      0x20\n      add\n      0x03\n      dup3\n      add\n      sload\n      dup2\n      mstore\n      0x20\n      add\n      0x04\n      dup3\n      add\n      sload\n      dup2\n      mstore\n      0x20\n      add\n      0x05\n      dup3\n      add\n      0x00\n      swap1\n      sload\n      swap1\n      0x0100\n      exp\n      swap1\n      div\n      0xff\n      and\n      iszero\n      iszero\n      iszero\n      iszero\n      dup2\n      mstore\n      pop\n      pop\n      swap1\n      pop\n        /* \"crowdfunding.sol\":1840:1850  msg.sender */\n      caller\n        /* \"crowdfunding.sol\":1820:1850  campaign.creator == msg.sender */\n      0xffffffffffffffffffffffffffffffffffffffff\n      and\n        /* \"crowdfunding.sol\":1820:1828  campaign */\n      dup2\n        /* \"crowdfunding.sol\":1820:1836  campaign.creator */\n      0x00\n      add\n      mload\n        /* \"crowdfunding.sol\":1820:1850  campaign.creator == msg.sender */\n      0xffffffffffffffffffffffffffffffffffffffff\n      and\n      eq\n        /* \"crowdfunding.sol\":1812:1866  require(campaign.creator == msg.sender, \"not creator\") */\n      tag_101\n      jumpi\n      mload(0x40)\n      0x08c379a000000000000000000000000000000000000000000000000000000000\n      dup2\n      mstore\n      0x04\n      add\n      tag_102\n      swap1\n      tag_86\n      jump\t// in\n    tag_102:\n      mload(0x40)\n      dup1\n      swap2\n      sub\n      swap1\n      revert\n    tag_101:\n        /* \"crowdfunding.sol\":1903:1911  campaign */\n      dup1\n        /* \"crowdfunding.sol\":1903:1919  campaign.startAt */\n      0x60\n      add\n      mload\n        /* \"crowdfunding.sol\":1885:1900  block.timestamp */\n      timestamp\n        /* \"crowdfunding.sol\":1885:1919  block.timestamp < campaign.startAt */\n      lt\n        /* \"crowdfunding.sol\":1877:1931  require(block.timestamp < campaign.startAt, \"started\") */\n      tag_103\n      jumpi\n      mload(0x40)\n      0x08c379a000000000000000000000000000000000000000000000000000000000\n      dup2\n      mstore\n      0x04\n      add\n      tag_104\n      swap1\n      tag_105\n      jump\t// in\n    tag_104:\n      mload(0x40)\n      dup1\n      swap2\n      sub\n      swap1\n      revert\n    tag_103:\n        /* \"crowdfunding.sol\":1952:1961  campaigns */\n      0x01\n        /* \"crowdfunding.sol\":1952:1966  campaigns[_id] */\n      0x00\n        /* \"crowdfunding.sol\":1962:1965  _id */\n      dup4\n        /* \"crowdfunding.sol\":1952:1966  campaigns[_id] */\n      dup2\n      mstore\n      0x20\n      add\n      swap1\n      dup2\n      mstore\n      0x20\n      add\n      0x00\n      keccak256\n      0x00\n        /* \"crowdfunding.sol\":1945:1966  delete campaigns[_id] */\n      dup1\n      dup3\n      add\n      exp(0x0100, 0x00)\n      dup2\n      sload\n      swap1\n      0xffffffffffffffffffffffffffffffffffffffff\n      mul\n      not\n      and\n      swap1\n      sstore\n      0x01\n      dup3\n      add\n      0x00\n      swap1\n      sstore\n      0x02\n      dup3\n      add\n      0x00\n      swap1\n      sstore\n      0x03\n      dup3\n      add\n      0x00\n      swap1\n      sstore\n      0x04\n      dup3\n      add\n      0x00\n      swap1\n      sstore\n      0x05\n      dup3\n      add\n      exp(0x0100, 0x00)\n      dup2\n      sload\n      swap1\n      0xff\n      mul\n      not\n      and\n      swap1\n      sstore\n      pop\n      pop\n        /* \"crowdfunding.sol\":1982:1993  Cancel(_id) */\n      0x8bf30e7ff26833413be5f69e1d373744864d600b664204b4a2f9844a8eedb9ed\n        /* \"crowdfunding.sol\":1989:1992  _id */\n      dup3\n        /* \"crowdfunding.sol\":1982:1993  Cancel(_id) */\n      mload(0x40)\n      tag_106\n      swap2\n      swap1\n      tag_17\n      jump\t// in\n    tag_106:\n      mload(0x40)\n      dup1\n      swap2\n      sub\n      swap1\n      log1\n        /* \"crowdfunding.sol\":1749:2001  {... */\n      pop\n        /* \"crowdfunding.sol\":1714:2001  function cancel(uint _id) external {... */\n      pop\n      jump\t// out\n        /* \"crowdfunding.sol\":2470:2836  function unpledge(uint _id, uint _amount) external {... */\n    tag_40:\n        /* \"crowdfunding.sol\":2532:2557  Campaign storage campaign */\n      0x00\n        /* \"crowdfunding.sol\":2560:2569  campaigns */\n      0x01\n        /* \"crowdfunding.sol\":2560:2574  campaigns[_id] */\n      0x00\n        /* \"crowdfunding.sol\":2570:2573  _id */\n      dup5\n        /* \"crowdfunding.sol\":2560:2574  campaigns[_id] */\n      dup2\n      mstore\n      0x20\n      add\n      swap1\n      dup2\n      mstore\n      0x20\n      add\n      0x00\n      keccak256\n        /* \"crowdfunding.sol\":2532:2574  Campaign storage campaign = campaigns[_id] */\n      swap1\n      pop\n        /* \"crowdfunding.sol\":2612:2620  campaign */\n      dup1\n        /* \"crowdfunding.sol\":2612:2626  campaign.endAt */\n      0x04\n      add\n      sload\n        /* \"crowdfunding.sol\":2593:2608  block.timestamp */\n      timestamp\n        /* \"crowdfunding.sol\":2593:2626  block.timestamp <= campaign.endAt */\n      gt\n      iszero\n        /* \"crowdfunding.sol\":2585:2636  require(block.timestamp <= campaign.endAt, \"ended\") */\n      tag_108\n      jumpi\n      mload(0x40)\n      0x08c379a000000000000000000000000000000000000000000000000000000000\n      dup2\n      mstore\n      0x04\n      add\n      tag_109\n      swap1\n      tag_110\n      jump\t// in\n    tag_109:\n      mload(0x40)\n      dup1\n      swap2\n      sub\n      swap1\n      revert\n    tag_108:\n        /* \"crowdfunding.sol\":2670:2677  _amount */\n      dup2\n        /* \"crowdfunding.sol\":2650:2658  campaign */\n      dup2\n        /* \"crowdfunding.sol\":2650:2666  campaign.pledged */\n      0x02\n      add\n      0x00\n        /* \"crowdfunding.sol\":2650:2677  campaign.pledged -= _amount */\n      dup3\n      dup3\n      sload\n      tag_111\n      swap2\n      swap1\n      tag_112\n      jump\t// in\n    tag_111:\n      swap3\n      pop\n      pop\n      dup2\n      swap1\n      sstore\n      pop\n        /* \"crowdfunding.sol\":2722:2729  _amount */\n      dup2\n        /* \"crowdfunding.sol\":2688:2701  pledgedAmount */\n      0x02\n        /* \"crowdfunding.sol\":2688:2706  pledgedAmount[_id] */\n      0x00\n        /* \"crowdfunding.sol\":2702:2705  _id */\n      dup6\n        /* \"crowdfunding.sol\":2688:2706  pledgedAmount[_id] */\n      dup2\n      mstore\n      0x20\n      add\n      swap1\n      dup2\n      mstore\n      0x20\n      add\n      0x00\n      keccak256\n        /* \"crowdfunding.sol\":2688:2718  pledgedAmount[_id][msg.sender] */\n      0x00\n        /* \"crowdfunding.sol\":2707:2717  msg.sender */\n      caller\n        /* \"crowdfunding.sol\":2688:2718  pledgedAmount[_id][msg.sender] */\n      0xffffffffffffffffffffffffffffffffffffffff\n      and\n      0xffffffffffffffffffffffffffffffffffffffff\n      and\n      dup2\n      mstore\n      0x20\n      add\n      swap1\n      dup2\n      mstore\n      0x20\n      add\n      0x00\n      keccak256\n      0x00\n        /* \"crowdfunding.sol\":2688:2729  pledgedAmount[_id][msg.sender] -= _amount */\n      dup3\n      dup3\n      sload\n      tag_113\n      swap2\n      swap1\n      tag_112\n      jump\t// in\n    tag_113:\n      swap3\n      pop\n      pop\n      dup2\n      swap1\n      sstore\n      pop\n        /* \"crowdfunding.sol\":2740:2745  token */\n      immutable(\"0x5392f7a671cdf89487ccf8e3646ea8f7570009490584962db6fa064c6e4ad499\")\n        /* \"crowdfunding.sol\":2740:2754  token.transfer */\n      0xffffffffffffffffffffffffffffffffffffffff\n      and\n      0xa9059cbb\n        /* \"crowdfunding.sol\":2755:2765  msg.sender */\n      caller\n        /* \"crowdfunding.sol\":2767:2774  _amount */\n      dup5\n        /* \"crowdfunding.sol\":2740:2775  token.transfer(msg.sender, _amount) */\n      mload(0x40)\n      dup4\n      0xffffffff\n      and\n      0xe0\n      shl\n      dup2\n      mstore\n      0x04\n      add\n      tag_114\n      swap3\n      swap2\n      swap1\n      tag_61\n      jump\t// in\n    tag_114:\n      0x20\n      mload(0x40)\n      dup1\n      dup4\n      sub\n      dup2\n      0x00\n      dup8\n      gas\n      call\n      iszero\n      dup1\n      iszero\n      tag_116\n      jumpi\n      returndatasize\n      0x00\n      dup1\n      returndatacopy\n      revert(0x00, returndatasize)\n    tag_116:\n      pop\n      pop\n      pop\n      pop\n      mload(0x40)\n      returndatasize\n      not(0x1f)\n      0x1f\n      dup3\n      add\n      and\n      dup3\n      add\n      dup1\n      0x40\n      mstore\n      pop\n      dup2\n      add\n      swap1\n      tag_117\n      swap2\n      swap1\n      tag_65\n      jump\t// in\n    tag_117:\n      pop\n        /* \"crowdfunding.sol\":2808:2818  msg.sender */\n      caller\n        /* \"crowdfunding.sol\":2794:2828  Unpledge(_id, msg.sender, _amount) */\n      0xffffffffffffffffffffffffffffffffffffffff\n      and\n        /* \"crowdfunding.sol\":2803:2806  _id */\n      dup4\n        /* \"crowdfunding.sol\":2794:2828  Unpledge(_id, msg.sender, _amount) */\n      0x2eeeab891b26a214d1b25749f88a406bdea852bd8c9bfda977e0ef8114c180ba\n        /* \"crowdfunding.sol\":2820:2827  _amount */\n      dup5\n        /* \"crowdfunding.sol\":2794:2828  Unpledge(_id, msg.sender, _amount) */\n      mload(0x40)\n      tag_118\n      swap2\n      swap1\n      tag_17\n      jump\t// in\n    tag_118:\n      mload(0x40)\n      dup1\n      swap2\n      sub\n      swap1\n      log3\n        /* \"crowdfunding.sol\":2521:2836  {... */\n      pop\n        /* \"crowdfunding.sol\":2470:2836  function unpledge(uint _id, uint _amount) external {... */\n      pop\n      pop\n      jump\t// out\n        /* \"crowdfunding.sol\":971:1032  mapping(uint => mapping(address =>uint)) public pledgedAmount */\n    tag_44:\n      mstore(0x20, 0x02)\n      dup2\n      0x00\n      mstore\n      mstore(0x20, keccak256(0x00, 0x40))\n      dup1\n      0x00\n      mstore\n      keccak256(0x00, 0x40)\n      0x00\n      swap2\n      pop\n      swap2\n      pop\n      pop\n      sload\n      dup2\n      jump\t// out\n        /* \"crowdfunding.sol\":871:900  IERC20 public immutable token */\n    tag_47:\n      immutable(\"0x5392f7a671cdf89487ccf8e3646ea8f7570009490584962db6fa064c6e4ad499\")\n      dup2\n      jump\t// out\n        /* \"crowdfunding.sol\":2010:2461  function pledge(uint _id, uint _amount) external {... */\n    tag_52:\n        /* \"crowdfunding.sol\":2070:2095  Campaign storage campaign */\n      0x00\n        /* \"crowdfunding.sol\":2098:2107  campaigns */\n      0x01\n        /* \"crowdfunding.sol\":2098:2112  campaigns[_id] */\n      0x00\n        /* \"crowdfunding.sol\":2108:2111  _id */\n      dup5\n        /* \"crowdfunding.sol\":2098:2112  campaigns[_id] */\n      dup2\n      mstore\n      0x20\n      add\n      swap1\n      dup2\n      mstore\n      0x20\n      add\n      0x00\n      keccak256\n        /* \"crowdfunding.sol\":2070:2112  Campaign storage campaign = campaigns[_id] */\n      swap1\n      pop\n        /* \"crowdfunding.sol\":2150:2158  campaign */\n      dup1\n        /* \"crowdfunding.sol\":2150:2166  campaign.startAt */\n      0x03\n      add\n      sload\n        /* \"crowdfunding.sol\":2131:2146  block.timestamp */\n      timestamp\n        /* \"crowdfunding.sol\":2131:2166  block.timestamp >= campaign.startAt */\n      lt\n      iszero\n        /* \"crowdfunding.sol\":2123:2182  require(block.timestamp >= campaign.startAt, \"not started\") */\n      tag_120\n      jumpi\n      mload(0x40)\n      0x08c379a000000000000000000000000000000000000000000000000000000000\n      dup2\n      mstore\n      0x04\n      add\n      tag_121\n      swap1\n      tag_122\n      jump\t// in\n    tag_121:\n      mload(0x40)\n      dup1\n      swap2\n      sub\n      swap1\n      revert\n    tag_120:\n        /* \"crowdfunding.sol\":2220:2228  campaign */\n      dup1\n        /* \"crowdfunding.sol\":2220:2234  campaign.endAt */\n      0x04\n      add\n      sload\n        /* \"crowdfunding.sol\":2201:2216  block.timestamp */\n      timestamp\n        /* \"crowdfunding.sol\":2201:2234  block.timestamp <= campaign.endAt */\n      gt\n      iszero\n        /* \"crowdfunding.sol\":2193:2244  require(block.timestamp <= campaign.endAt, \"ended\") */\n      tag_123\n      jumpi\n      mload(0x40)\n      0x08c379a000000000000000000000000000000000000000000000000000000000\n      dup2\n      mstore\n      0x04\n      add\n      tag_124\n      swap1\n      tag_110\n      jump\t// in\n    tag_124:\n      mload(0x40)\n      dup1\n      swap2\n      sub\n      swap1\n      revert\n    tag_123:\n        /* \"crowdfunding.sol\":2278:2285  _amount */\n      dup2\n        /* \"crowdfunding.sol\":2258:2266  campaign */\n      dup2\n        /* \"crowdfunding.sol\":2258:2274  campaign.pledged */\n      0x02\n      add\n      0x00\n        /* \"crowdfunding.sol\":2258:2285  campaign.pledged += _amount */\n      dup3\n      dup3\n      sload\n      tag_125\n      swap2\n      swap1\n      tag_76\n      jump\t// in\n    tag_125:\n      swap3\n      pop\n      pop\n      dup2\n      swap1\n      sstore\n      pop\n        /* \"crowdfunding.sol\":2330:2337  _amount */\n      dup2\n        /* \"crowdfunding.sol\":2296:2309  pledgedAmount */\n      0x02\n        /* \"crowdfunding.sol\":2296:2314  pledgedAmount[_id] */\n      0x00\n        /* \"crowdfunding.sol\":2310:2313  _id */\n      dup6\n        /* \"crowdfunding.sol\":2296:2314  pledgedAmount[_id] */\n      dup2\n      mstore\n      0x20\n      add\n      swap1\n      dup2\n      mstore\n      0x20\n      add\n      0x00\n      keccak256\n        /* \"crowdfunding.sol\":2296:2326  pledgedAmount[_id][msg.sender] */\n      0x00\n        /* \"crowdfunding.sol\":2315:2325  msg.sender */\n      caller\n        /* \"crowdfunding.sol\":2296:2326  pledgedAmount[_id][msg.sender] */\n      0xffffffffffffffffffffffffffffffffffffffff\n      and\n      0xffffffffffffffffffffffffffffffffffffffff\n      and\n      dup2\n      mstore\n      0x20\n      add\n      swap1\n      dup2\n      mstore\n      0x20\n      add\n      0x00\n      keccak256\n      0x00\n        /* \"crowdfunding.sol\":2296:2337  pledgedAmount[_id][msg.sender] += _amount */\n      dup3\n      dup3\n      sload\n      tag_126\n      swap2\n      swap1\n      tag_76\n      jump\t// in\n    tag_126:\n      swap3\n      pop\n      pop\n      dup2\n      swap1\n      sstore\n      pop\n        /* \"crowdfunding.sol\":2348:2353  token */\n      immutable(\"0x5392f7a671cdf89487ccf8e3646ea8f7570009490584962db6fa064c6e4ad499\")\n        /* \"crowdfunding.sol\":2348:2366  token.transferFrom */\n      0xffffffffffffffffffffffffffffffffffffffff\n      and\n      0x23b872dd\n        /* \"crowdfunding.sol\":2367:2377  msg.sender */\n      caller\n        /* \"crowdfunding.sol\":2387:2391  this */\n      address\n        /* \"crowdfunding.sol\":2394:2401  _amount */\n      dup6\n        /* \"crowdfunding.sol\":2348:2402  token.transferFrom(msg.sender, address(this), _amount) */\n      mload(0x40)\n      dup5\n      0xffffffff\n      and\n      0xe0\n      shl\n      dup2\n      mstore\n      0x04\n      add\n      tag_127\n      swap4\n      swap3\n      swap2\n      swap1\n      tag_128\n      jump\t// in\n    tag_127:\n      0x20\n      mload(0x40)\n      dup1\n      dup4\n      sub\n      dup2\n      0x00\n      dup8\n      gas\n      call\n      iszero\n      dup1\n      iszero\n      tag_130\n      jumpi\n      returndatasize\n      0x00\n      dup1\n      returndatacopy\n      revert(0x00, returndatasize)\n    tag_130:\n      pop\n      pop\n      pop\n      pop\n      mload(0x40)\n      returndatasize\n      not(0x1f)\n      0x1f\n      dup3\n      add\n      and\n      dup3\n      add\n      dup1\n      0x40\n      mstore\n      pop\n      dup2\n      add\n      swap1\n      tag_131\n      swap2\n      swap1\n      tag_65\n      jump\t// in\n    tag_131:\n      pop\n        /* \"crowdfunding.sol\":2433:2443  msg.sender */\n      caller\n        /* \"crowdfunding.sol\":2421:2453  Pledge(_id, msg.sender, _amount) */\n      0xffffffffffffffffffffffffffffffffffffffff\n      and\n        /* \"crowdfunding.sol\":2428:2431  _id */\n      dup4\n        /* \"crowdfunding.sol\":2421:2453  Pledge(_id, msg.sender, _amount) */\n      0x06bdb975df800a73232998e71ed585d536222f1dfeaa622d7f62a23ada686c82\n        /* \"crowdfunding.sol\":2445:2452  _amount */\n      dup5\n        /* \"crowdfunding.sol\":2421:2453  Pledge(_id, msg.sender, _amount) */\n      mload(0x40)\n      tag_132\n      swap2\n      swap1\n      tag_17\n      jump\t// in\n    tag_132:\n      mload(0x40)\n      dup1\n      swap2\n      sub\n      swap1\n      log3\n        /* \"crowdfunding.sol\":2059:2461  {... */\n      pop\n        /* \"crowdfunding.sol\":2010:2461  function pledge(uint _id, uint _amount) external {... */\n      pop\n      pop\n      jump\t// out\n        /* \"#utility.yul\":7:84   */\n    tag_133:\n        /* \"#utility.yul\":44:51   */\n      0x00\n        /* \"#utility.yul\":73:78   */\n      dup2\n        /* \"#utility.yul\":62:78   */\n      swap1\n      pop\n        /* \"#utility.yul\":7:84   */\n      swap2\n      swap1\n      pop\n      jump\t// out\n        /* \"#utility.yul\":90:208   */\n    tag_134:\n        /* \"#utility.yul\":177:201   */\n      tag_186\n        /* \"#utility.yul\":195:200   */\n      dup2\n        /* \"#utility.yul\":177:201   */\n      tag_133\n      jump\t// in\n    tag_186:\n        /* \"#utility.yul\":172:175   */\n      dup3\n        /* \"#utility.yul\":165:202   */\n      mstore\n        /* \"#utility.yul\":90:208   */\n      pop\n      pop\n      jump\t// out\n        /* \"#utility.yul\":214:436   */\n    tag_17:\n        /* \"#utility.yul\":307:311   */\n      0x00\n        /* \"#utility.yul\":345:347   */\n      0x20\n        /* \"#utility.yul\":334:343   */\n      dup3\n        /* \"#utility.yul\":330:348   */\n      add\n        /* \"#utility.yul\":322:348   */\n      swap1\n      pop\n        /* \"#utility.yul\":358:429   */\n      tag_188\n        /* \"#utility.yul\":426:427   */\n      0x00\n        /* \"#utility.yul\":415:424   */\n      dup4\n        /* \"#utility.yul\":411:428   */\n      add\n        /* \"#utility.yul\":402:408   */\n      dup5\n        /* \"#utility.yul\":358:429   */\n      tag_134\n      jump\t// in\n    tag_188:\n        /* \"#utility.yul\":214:436   */\n      swap3\n      swap2\n      pop\n      pop\n      jump\t// out\n        /* \"#utility.yul\":523:640   */\n    tag_136:\n        /* \"#utility.yul\":632:633   */\n      0x00\n        /* \"#utility.yul\":629:630   */\n      dup1\n        /* \"#utility.yul\":622:634   */\n      revert\n        /* \"#utility.yul\":769:891   */\n    tag_138:\n        /* \"#utility.yul\":842:866   */\n      tag_193\n        /* \"#utility.yul\":860:865   */\n      dup2\n        /* \"#utility.yul\":842:866   */\n      tag_133\n      jump\t// in\n    tag_193:\n        /* \"#utility.yul\":835:840   */\n      dup2\n        /* \"#utility.yul\":832:867   */\n      eq\n        /* \"#utility.yul\":822:885   */\n      tag_194\n      jumpi\n        /* \"#utility.yul\":881:882   */\n      0x00\n        /* \"#utility.yul\":878:879   */\n      dup1\n        /* \"#utility.yul\":871:883   */\n      revert\n        /* \"#utility.yul\":822:885   */\n    tag_194:\n        /* \"#utility.yul\":769:891   */\n      pop\n      jump\t// out\n        /* \"#utility.yul\":897:1036   */\n    tag_139:\n        /* \"#utility.yul\":943:948   */\n      0x00\n        /* \"#utility.yul\":981:987   */\n      dup2\n        /* \"#utility.yul\":968:988   */\n      calldataload\n        /* \"#utility.yul\":959:988   */\n      swap1\n      pop\n        /* \"#utility.yul\":997:1030   */\n      tag_196\n        /* \"#utility.yul\":1024:1029   */\n      dup2\n        /* \"#utility.yul\":997:1030   */\n      tag_138\n      jump\t// in\n    tag_196:\n        /* \"#utility.yul\":897:1036   */\n      swap3\n      swap2\n      pop\n      pop\n      jump\t// out\n        /* \"#utility.yul\":1042:1371   */\n    tag_20:\n        /* \"#utility.yul\":1101:1107   */\n      0x00\n        /* \"#utility.yul\":1150:1152   */\n      0x20\n        /* \"#utility.yul\":1138:1147   */\n      dup3\n        /* \"#utility.yul\":1129:1136   */\n      dup5\n        /* \"#utility.yul\":1125:1148   */\n      sub\n        /* \"#utility.yul\":1121:1153   */\n      slt\n        /* \"#utility.yul\":1118:1237   */\n      iszero\n      tag_198\n      jumpi\n        /* \"#utility.yul\":1156:1235   */\n      tag_199\n      tag_136\n      jump\t// in\n    tag_199:\n        /* \"#utility.yul\":1118:1237   */\n    tag_198:\n        /* \"#utility.yul\":1276:1277   */\n      0x00\n        /* \"#utility.yul\":1301:1354   */\n      tag_200\n        /* \"#utility.yul\":1346:1353   */\n      dup5\n        /* \"#utility.yul\":1337:1343   */\n      dup3\n        /* \"#utility.yul\":1326:1335   */\n      dup6\n        /* \"#utility.yul\":1322:1344   */\n      add\n        /* \"#utility.yul\":1301:1354   */\n      tag_139\n      jump\t// in\n    tag_200:\n        /* \"#utility.yul\":1291:1354   */\n      swap2\n      pop\n        /* \"#utility.yul\":1247:1364   */\n      pop\n        /* \"#utility.yul\":1042:1371   */\n      swap3\n      swap2\n      pop\n      pop\n      jump\t// out\n        /* \"#utility.yul\":1377:1503   */\n    tag_140:\n        /* \"#utility.yul\":1414:1421   */\n      0x00\n        /* \"#utility.yul\":1454:1496   */\n      0xffffffffffffffffffffffffffffffffffffffff\n        /* \"#utility.yul\":1447:1452   */\n      dup3\n        /* \"#utility.yul\":1443:1497   */\n      and\n        /* \"#utility.yul\":1432:1497   */\n      swap1\n      pop\n        /* \"#utility.yul\":1377:1503   */\n      swap2\n      swap1\n      pop\n      jump\t// out\n        /* \"#utility.yul\":1509:1605   */\n    tag_141:\n        /* \"#utility.yul\":1546:1553   */\n      0x00\n        /* \"#utility.yul\":1575:1599   */\n      tag_203\n        /* \"#utility.yul\":1593:1598   */\n      dup3\n        /* \"#utility.yul\":1575:1599   */\n      tag_140\n      jump\t// in\n    tag_203:\n        /* \"#utility.yul\":1564:1599   */\n      swap1\n      pop\n        /* \"#utility.yul\":1509:1605   */\n      swap2\n      swap1\n      pop\n      jump\t// out\n        /* \"#utility.yul\":1611:1729   */\n    tag_142:\n        /* \"#utility.yul\":1698:1722   */\n      tag_205\n        /* \"#utility.yul\":1716:1721   */\n      dup2\n        /* \"#utility.yul\":1698:1722   */\n      tag_141\n      jump\t// in\n    tag_205:\n        /* \"#utility.yul\":1693:1696   */\n      dup3\n        /* \"#utility.yul\":1686:1723   */\n      mstore\n        /* \"#utility.yul\":1611:1729   */\n      pop\n      pop\n      jump\t// out\n        /* \"#utility.yul\":1735:1825   */\n    tag_143:\n        /* \"#utility.yul\":1769:1776   */\n      0x00\n        /* \"#utility.yul\":1812:1817   */\n      dup2\n        /* \"#utility.yul\":1805:1818   */\n      iszero\n        /* \"#utility.yul\":1798:1819   */\n      iszero\n        /* \"#utility.yul\":1787:1819   */\n      swap1\n      pop\n        /* \"#utility.yul\":1735:1825   */\n      swap2\n      swap1\n      pop\n      jump\t// out\n        /* \"#utility.yul\":1831:1940   */\n    tag_144:\n        /* \"#utility.yul\":1912:1933   */\n      tag_208\n        /* \"#utility.yul\":1927:1932   */\n      dup2\n        /* \"#utility.yul\":1912:1933   */\n      tag_143\n      jump\t// in\n    tag_208:\n        /* \"#utility.yul\":1907:1910   */\n      dup3\n        /* \"#utility.yul\":1900:1934   */\n      mstore\n        /* \"#utility.yul\":1831:1940   */\n      pop\n      pop\n      jump\t// out\n        /* \"#utility.yul\":1946:2709   */\n    tag_23:\n        /* \"#utility.yul\":2173:2177   */\n      0x00\n        /* \"#utility.yul\":2211:2214   */\n      0xc0\n        /* \"#utility.yul\":2200:2209   */\n      dup3\n        /* \"#utility.yul\":2196:2215   */\n      add\n        /* \"#utility.yul\":2188:2215   */\n      swap1\n      pop\n        /* \"#utility.yul\":2225:2296   */\n      tag_210\n        /* \"#utility.yul\":2293:2294   */\n      0x00\n        /* \"#utility.yul\":2282:2291   */\n      dup4\n        /* \"#utility.yul\":2278:2295   */\n      add\n        /* \"#utility.yul\":2269:2275   */\n      dup10\n        /* \"#utility.yul\":2225:2296   */\n      tag_142\n      jump\t// in\n    tag_210:\n        /* \"#utility.yul\":2306:2378   */\n      tag_211\n        /* \"#utility.yul\":2374:2376   */\n      0x20\n        /* \"#utility.yul\":2363:2372   */\n      dup4\n        /* \"#utility.yul\":2359:2377   */\n      add\n        /* \"#utility.yul\":2350:2356   */\n      dup9\n        /* \"#utility.yul\":2306:2378   */\n      tag_134\n      jump\t// in\n    tag_211:\n        /* \"#utility.yul\":2388:2460   */\n      tag_212\n        /* \"#utility.yul\":2456:2458   */\n      0x40\n        /* \"#utility.yul\":2445:2454   */\n      dup4\n        /* \"#utility.yul\":2441:2459   */\n      add\n        /* \"#utility.yul\":2432:2438   */\n      dup8\n        /* \"#utility.yul\":2388:2460   */\n      tag_134\n      jump\t// in\n    tag_212:\n        /* \"#utility.yul\":2470:2542   */\n      tag_213\n        /* \"#utility.yul\":2538:2540   */\n      0x60\n        /* \"#utility.yul\":2527:2536   */\n      dup4\n        /* \"#utility.yul\":2523:2541   */\n      add\n        /* \"#utility.yul\":2514:2520   */\n      dup7\n        /* \"#utility.yul\":2470:2542   */\n      tag_134\n      jump\t// in\n    tag_213:\n        /* \"#utility.yul\":2552:2625   */\n      tag_214\n        /* \"#utility.yul\":2620:2623   */\n      0x80\n        /* \"#utility.yul\":2609:2618   */\n      dup4\n        /* \"#utility.yul\":2605:2624   */\n      add\n        /* \"#utility.yul\":2596:2602   */\n      dup6\n        /* \"#utility.yul\":2552:2625   */\n      tag_134\n      jump\t// in\n    tag_214:\n        /* \"#utility.yul\":2635:2702   */\n      tag_215\n        /* \"#utility.yul\":2697:2700   */\n      0xa0\n        /* \"#utility.yul\":2686:2695   */\n      dup4\n        /* \"#utility.yul\":2682:2701   */\n      add\n        /* \"#utility.yul\":2673:2679   */\n      dup5\n        /* \"#utility.yul\":2635:2702   */\n      tag_144\n      jump\t// in\n    tag_215:\n        /* \"#utility.yul\":1946:2709   */\n      swap8\n      swap7\n      pop\n      pop\n      pop\n      pop\n      pop\n      pop\n      pop\n      jump\t// out\n        /* \"#utility.yul\":2715:2808   */\n    tag_145:\n        /* \"#utility.yul\":2751:2758   */\n      0x00\n        /* \"#utility.yul\":2791:2801   */\n      0xffffffff\n        /* \"#utility.yul\":2784:2789   */\n      dup3\n        /* \"#utility.yul\":2780:2802   */\n      and\n        /* \"#utility.yul\":2769:2802   */\n      swap1\n      pop\n        /* \"#utility.yul\":2715:2808   */\n      swap2\n      swap1\n      pop\n      jump\t// out\n        /* \"#utility.yul\":2814:2934   */\n    tag_146:\n        /* \"#utility.yul\":2886:2909   */\n      tag_218\n        /* \"#utility.yul\":2903:2908   */\n      dup2\n        /* \"#utility.yul\":2886:2909   */\n      tag_145\n      jump\t// in\n    tag_218:\n        /* \"#utility.yul\":2879:2884   */\n      dup2\n        /* \"#utility.yul\":2876:2910   */\n      eq\n        /* \"#utility.yul\":2866:2928   */\n      tag_219\n      jumpi\n        /* \"#utility.yul\":2924:2925   */\n      0x00\n        /* \"#utility.yul\":2921:2922   */\n      dup1\n        /* \"#utility.yul\":2914:2926   */\n      revert\n        /* \"#utility.yul\":2866:2928   */\n    tag_219:\n        /* \"#utility.yul\":2814:2934   */\n      pop\n      jump\t// out\n        /* \"#utility.yul\":2940:3077   */\n    tag_147:\n        /* \"#utility.yul\":2985:2990   */\n      0x00\n        /* \"#utility.yul\":3023:3029   */\n      dup2\n        /* \"#utility.yul\":3010:3030   */\n      calldataload\n        /* \"#utility.yul\":3001:3030   */\n      swap1\n      pop\n        /* \"#utility.yul\":3039:3071   */\n      tag_221\n        /* \"#utility.yul\":3065:3070   */\n      dup2\n        /* \"#utility.yul\":3039:3071   */\n      tag_146\n      jump\t// in\n    tag_221:\n        /* \"#utility.yul\":2940:3077   */\n      swap3\n      swap2\n      pop\n      pop\n      jump\t// out\n        /* \"#utility.yul\":3083:3698   */\n    tag_29:\n        /* \"#utility.yul\":3158:3164   */\n      0x00\n        /* \"#utility.yul\":3166:3172   */\n      dup1\n        /* \"#utility.yul\":3174:3180   */\n      0x00\n        /* \"#utility.yul\":3223:3225   */\n      0x60\n        /* \"#utility.yul\":3211:3220   */\n      dup5\n        /* \"#utility.yul\":3202:3209   */\n      dup7\n        /* \"#utility.yul\":3198:3221   */\n      sub\n        /* \"#utility.yul\":3194:3226   */\n      slt\n        /* \"#utility.yul\":3191:3310   */\n      iszero\n      tag_223\n      jumpi\n        /* \"#utility.yul\":3229:3308   */\n      tag_224\n      tag_136\n      jump\t// in\n    tag_224:\n        /* \"#utility.yul\":3191:3310   */\n    tag_223:\n        /* \"#utility.yul\":3349:3350   */\n      0x00\n        /* \"#utility.yul\":3374:3427   */\n      tag_225\n        /* \"#utility.yul\":3419:3426   */\n      dup7\n        /* \"#utility.yul\":3410:3416   */\n      dup3\n        /* \"#utility.yul\":3399:3408   */\n      dup8\n        /* \"#utility.yul\":3395:3417   */\n      add\n        /* \"#utility.yul\":3374:3427   */\n      tag_139\n      jump\t// in\n    tag_225:\n        /* \"#utility.yul\":3364:3427   */\n      swap4\n      pop\n        /* \"#utility.yul\":3320:3437   */\n      pop\n        /* \"#utility.yul\":3476:3478   */\n      0x20\n        /* \"#utility.yul\":3502:3554   */\n      tag_226\n        /* \"#utility.yul\":3546:3553   */\n      dup7\n        /* \"#utility.yul\":3537:3543   */\n      dup3\n        /* \"#utility.yul\":3526:3535   */\n      dup8\n        /* \"#utility.yul\":3522:3544   */\n      add\n        /* \"#utility.yul\":3502:3554   */\n      tag_147\n      jump\t// in\n    tag_226:\n        /* \"#utility.yul\":3492:3554   */\n      swap3\n      pop\n        /* \"#utility.yul\":3447:3564   */\n      pop\n        /* \"#utility.yul\":3603:3605   */\n      0x40\n        /* \"#utility.yul\":3629:3681   */\n      tag_227\n        /* \"#utility.yul\":3673:3680   */\n      dup7\n        /* \"#utility.yul\":3664:3670   */\n      dup3\n        /* \"#utility.yul\":3653:3662   */\n      dup8\n        /* \"#utility.yul\":3649:3671   */\n      add\n        /* \"#utility.yul\":3629:3681   */\n      tag_147\n      jump\t// in\n    tag_227:\n        /* \"#utility.yul\":3619:3681   */\n      swap2\n      pop\n        /* \"#utility.yul\":3574:3691   */\n      pop\n        /* \"#utility.yul\":3083:3698   */\n      swap3\n      pop\n      swap3\n      pop\n      swap3\n      jump\t// out\n        /* \"#utility.yul\":3704:4178   */\n    tag_39:\n        /* \"#utility.yul\":3772:3778   */\n      0x00\n        /* \"#utility.yul\":3780:3786   */\n      dup1\n        /* \"#utility.yul\":3829:3831   */\n      0x40\n        /* \"#utility.yul\":3817:3826   */\n      dup4\n        /* \"#utility.yul\":3808:3815   */\n      dup6\n        /* \"#utility.yul\":3804:3827   */\n      sub\n        /* \"#utility.yul\":3800:3832   */\n      slt\n        /* \"#utility.yul\":3797:3916   */\n      iszero\n      tag_229\n      jumpi\n        /* \"#utility.yul\":3835:3914   */\n      tag_230\n      tag_136\n      jump\t// in\n    tag_230:\n        /* \"#utility.yul\":3797:3916   */\n    tag_229:\n        /* \"#utility.yul\":3955:3956   */\n      0x00\n        /* \"#utility.yul\":3980:4033   */\n      tag_231\n        /* \"#utility.yul\":4025:4032   */\n      dup6\n        /* \"#utility.yul\":4016:4022   */\n      dup3\n        /* \"#utility.yul\":4005:4014   */\n      dup7\n        /* \"#utility.yul\":4001:4023   */\n      add\n        /* \"#utility.yul\":3980:4033   */\n      tag_139\n      jump\t// in\n    tag_231:\n        /* \"#utility.yul\":3970:4033   */\n      swap3\n      pop\n        /* \"#utility.yul\":3926:4043   */\n      pop\n        /* \"#utility.yul\":4082:4084   */\n      0x20\n        /* \"#utility.yul\":4108:4161   */\n      tag_232\n        /* \"#utility.yul\":4153:4160   */\n      dup6\n        /* \"#utility.yul\":4144:4150   */\n      dup3\n        /* \"#utility.yul\":4133:4142   */\n      dup7\n        /* \"#utility.yul\":4129:4151   */\n      add\n        /* \"#utility.yul\":4108:4161   */\n      tag_139\n      jump\t// in\n    tag_232:\n        /* \"#utility.yul\":4098:4161   */\n      swap2\n      pop\n        /* \"#utility.yul\":4053:4171   */\n      pop\n        /* \"#utility.yul\":3704:4178   */\n      swap3\n      pop\n      swap3\n      swap1\n      pop\n      jump\t// out\n        /* \"#utility.yul\":4184:4306   */\n    tag_148:\n        /* \"#utility.yul\":4257:4281   */\n      tag_234\n        /* \"#utility.yul\":4275:4280   */\n      dup2\n        /* \"#utility.yul\":4257:4281   */\n      tag_141\n      jump\t// in\n    tag_234:\n        /* \"#utility.yul\":4250:4255   */\n      dup2\n        /* \"#utility.yul\":4247:4282   */\n      eq\n        /* \"#utility.yul\":4237:4300   */\n      tag_235\n      jumpi\n        /* \"#utility.yul\":4296:4297   */\n      0x00\n        /* \"#utility.yul\":4293:4294   */\n      dup1\n        /* \"#utility.yul\":4286:4298   */\n      revert\n        /* \"#utility.yul\":4237:4300   */\n    tag_235:\n        /* \"#utility.yul\":4184:4306   */\n      pop\n      jump\t// out\n        /* \"#utility.yul\":4312:4451   */\n    tag_149:\n        /* \"#utility.yul\":4358:4363   */\n      0x00\n        /* \"#utility.yul\":4396:4402   */\n      dup2\n        /* \"#utility.yul\":4383:4403   */\n      calldataload\n        /* \"#utility.yul\":4374:4403   */\n      swap1\n      pop\n        /* \"#utility.yul\":4412:4445   */\n      tag_237\n        /* \"#utility.yul\":4439:4444   */\n      dup2\n        /* \"#utility.yul\":4412:4445   */\n      tag_148\n      jump\t// in\n    tag_237:\n        /* \"#utility.yul\":4312:4451   */\n      swap3\n      swap2\n      pop\n      pop\n      jump\t// out\n        /* \"#utility.yul\":4457:4931   */\n    tag_43:\n        /* \"#utility.yul\":4525:4531   */\n      0x00\n        /* \"#utility.yul\":4533:4539   */\n      dup1\n        /* \"#utility.yul\":4582:4584   */\n      0x40\n        /* \"#utility.yul\":4570:4579   */\n      dup4\n        /* \"#utility.yul\":4561:4568   */\n      dup6\n        /* \"#utility.yul\":4557:4580   */\n      sub\n        /* \"#utility.yul\":4553:4585   */\n      slt\n        /* \"#utility.yul\":4550:4669   */\n      iszero\n      tag_239\n      jumpi\n        /* \"#utility.yul\":4588:4667   */\n      tag_240\n      tag_136\n      jump\t// in\n    tag_240:\n        /* \"#utility.yul\":4550:4669   */\n    tag_239:\n        /* \"#utility.yul\":4708:4709   */\n      0x00\n        /* \"#utility.yul\":4733:4786   */\n      tag_241\n        /* \"#utility.yul\":4778:4785   */\n      dup6\n        /* \"#utility.yul\":4769:4775   */\n      dup3\n        /* \"#utility.yul\":4758:4767   */\n      dup7\n        /* \"#utility.yul\":4754:4776   */\n      add\n        /* \"#utility.yul\":4733:4786   */\n      tag_139\n      jump\t// in\n    tag_241:\n        /* \"#utility.yul\":4723:4786   */\n      swap3\n      pop\n        /* \"#utility.yul\":4679:4796   */\n      pop\n        /* \"#utility.yul\":4835:4837   */\n      0x20\n        /* \"#utility.yul\":4861:4914   */\n      tag_242\n        /* \"#utility.yul\":4906:4913   */\n      dup6\n        /* \"#utility.yul\":4897:4903   */\n      dup3\n        /* \"#utility.yul\":4886:4895   */\n      dup7\n        /* \"#utility.yul\":4882:4904   */\n      add\n        /* \"#utility.yul\":4861:4914   */\n      tag_149\n      jump\t// in\n    tag_242:\n        /* \"#utility.yul\":4851:4914   */\n      swap2\n      pop\n        /* \"#utility.yul\":4806:4924   */\n      pop\n        /* \"#utility.yul\":4457:4931   */\n      swap3\n      pop\n      swap3\n      swap1\n      pop\n      jump\t// out\n        /* \"#utility.yul\":4937:4997   */\n    tag_150:\n        /* \"#utility.yul\":4965:4968   */\n      0x00\n        /* \"#utility.yul\":4986:4991   */\n      dup2\n        /* \"#utility.yul\":4979:4991   */\n      swap1\n      pop\n        /* \"#utility.yul\":4937:4997   */\n      swap2\n      swap1\n      pop\n      jump\t// out\n        /* \"#utility.yul\":5003:5145   */\n    tag_151:\n        /* \"#utility.yul\":5053:5062   */\n      0x00\n        /* \"#utility.yul\":5086:5139   */\n      tag_245\n        /* \"#utility.yul\":5104:5138   */\n      tag_246\n        /* \"#utility.yul\":5113:5137   */\n      tag_247\n        /* \"#utility.yul\":5131:5136   */\n      dup5\n        /* \"#utility.yul\":5113:5137   */\n      tag_140\n      jump\t// in\n    tag_247:\n        /* \"#utility.yul\":5104:5138   */\n      tag_150\n      jump\t// in\n    tag_246:\n        /* \"#utility.yul\":5086:5139   */\n      tag_140\n      jump\t// in\n    tag_245:\n        /* \"#utility.yul\":5073:5139   */\n      swap1\n      pop\n        /* \"#utility.yul\":5003:5145   */\n      swap2\n      swap1\n      pop\n      jump\t// out\n        /* \"#utility.yul\":5151:5277   */\n    tag_152:\n        /* \"#utility.yul\":5201:5210   */\n      0x00\n        /* \"#utility.yul\":5234:5271   */\n      tag_249\n        /* \"#utility.yul\":5265:5270   */\n      dup3\n        /* \"#utility.yul\":5234:5271   */\n      tag_151\n      jump\t// in\n    tag_249:\n        /* \"#utility.yul\":5221:5271   */\n      swap1\n      pop\n        /* \"#utility.yul\":5151:5277   */\n      swap2\n      swap1\n      pop\n      jump\t// out\n        /* \"#utility.yul\":5283:5422   */\n    tag_153:\n        /* \"#utility.yul\":5346:5355   */\n      0x00\n        /* \"#utility.yul\":5379:5416   */\n      tag_251\n        /* \"#utility.yul\":5410:5415   */\n      dup3\n        /* \"#utility.yul\":5379:5416   */\n      tag_152\n      jump\t// in\n    tag_251:\n        /* \"#utility.yul\":5366:5416   */\n      swap1\n      pop\n        /* \"#utility.yul\":5283:5422   */\n      swap2\n      swap1\n      pop\n      jump\t// out\n        /* \"#utility.yul\":5428:5585   */\n    tag_154:\n        /* \"#utility.yul\":5528:5578   */\n      tag_253\n        /* \"#utility.yul\":5572:5577   */\n      dup2\n        /* \"#utility.yul\":5528:5578   */\n      tag_153\n      jump\t// in\n    tag_253:\n        /* \"#utility.yul\":5523:5526   */\n      dup3\n        /* \"#utility.yul\":5516:5579   */\n      mstore\n        /* \"#utility.yul\":5428:5585   */\n      pop\n      pop\n      jump\t// out\n        /* \"#utility.yul\":5591:5839   */\n    tag_49:\n        /* \"#utility.yul\":5697:5701   */\n      0x00\n        /* \"#utility.yul\":5735:5737   */\n      0x20\n        /* \"#utility.yul\":5724:5733   */\n      dup3\n        /* \"#utility.yul\":5720:5738   */\n      add\n        /* \"#utility.yul\":5712:5738   */\n      swap1\n      pop\n        /* \"#utility.yul\":5748:5832   */\n      tag_255\n        /* \"#utility.yul\":5829:5830   */\n      0x00\n        /* \"#utility.yul\":5818:5827   */\n      dup4\n        /* \"#utility.yul\":5814:5831   */\n      add\n        /* \"#utility.yul\":5805:5811   */\n      dup5\n        /* \"#utility.yul\":5748:5832   */\n      tag_154\n      jump\t// in\n    tag_255:\n        /* \"#utility.yul\":5591:5839   */\n      swap3\n      swap2\n      pop\n      pop\n      jump\t// out\n        /* \"#utility.yul\":5845:6014   */\n    tag_155:\n        /* \"#utility.yul\":5929:5940   */\n      0x00\n        /* \"#utility.yul\":5963:5969   */\n      dup3\n        /* \"#utility.yul\":5958:5961   */\n      dup3\n        /* \"#utility.yul\":5951:5970   */\n      mstore\n        /* \"#utility.yul\":6003:6007   */\n      0x20\n        /* \"#utility.yul\":5998:6001   */\n      dup3\n        /* \"#utility.yul\":5994:6008   */\n      add\n        /* \"#utility.yul\":5979:6008   */\n      swap1\n      pop\n        /* \"#utility.yul\":5845:6014   */\n      swap3\n      swap2\n      pop\n      pop\n      jump\t// out\n        /* \"#utility.yul\":6020:6179   */\n    tag_156:\n        /* \"#utility.yul\":6160:6171   */\n      0x6e6f7420656e6465640000000000000000000000000000000000000000000000\n        /* \"#utility.yul\":6156:6157   */\n      0x00\n        /* \"#utility.yul\":6148:6154   */\n      dup3\n        /* \"#utility.yul\":6144:6158   */\n      add\n        /* \"#utility.yul\":6137:6172   */\n      mstore\n        /* \"#utility.yul\":6020:6179   */\n      pop\n      jump\t// out\n        /* \"#utility.yul\":6185:6550   */\n    tag_157:\n        /* \"#utility.yul\":6327:6330   */\n      0x00\n        /* \"#utility.yul\":6348:6414   */\n      tag_259\n        /* \"#utility.yul\":6412:6413   */\n      0x09\n        /* \"#utility.yul\":6407:6410   */\n      dup4\n        /* \"#utility.yul\":6348:6414   */\n      tag_155\n      jump\t// in\n    tag_259:\n        /* \"#utility.yul\":6341:6414   */\n      swap2\n      pop\n        /* \"#utility.yul\":6423:6516   */\n      tag_260\n        /* \"#utility.yul\":6512:6515   */\n      dup3\n        /* \"#utility.yul\":6423:6516   */\n      tag_156\n      jump\t// in\n    tag_260:\n        /* \"#utility.yul\":6541:6543   */\n      0x20\n        /* \"#utility.yul\":6536:6539   */\n      dup3\n        /* \"#utility.yul\":6532:6544   */\n      add\n        /* \"#utility.yul\":6525:6544   */\n      swap1\n      pop\n        /* \"#utility.yul\":6185:6550   */\n      swap2\n      swap1\n      pop\n      jump\t// out\n        /* \"#utility.yul\":6556:6975   */\n    tag_56:\n        /* \"#utility.yul\":6722:6726   */\n      0x00\n        /* \"#utility.yul\":6760:6762   */\n      0x20\n        /* \"#utility.yul\":6749:6758   */\n      dup3\n        /* \"#utility.yul\":6745:6763   */\n      add\n        /* \"#utility.yul\":6737:6763   */\n      swap1\n      pop\n        /* \"#utility.yul\":6809:6818   */\n      dup2\n        /* \"#utility.yul\":6803:6807   */\n      dup2\n        /* \"#utility.yul\":6799:6819   */\n      sub\n        /* \"#utility.yul\":6795:6796   */\n      0x00\n        /* \"#utility.yul\":6784:6793   */\n      dup4\n        /* \"#utility.yul\":6780:6797   */\n      add\n        /* \"#utility.yul\":6773:6820   */\n      mstore\n        /* \"#utility.yul\":6837:6968   */\n      tag_262\n        /* \"#utility.yul\":6963:6967   */\n      dup2\n        /* \"#utility.yul\":6837:6968   */\n      tag_157\n      jump\t// in\n    tag_262:\n        /* \"#utility.yul\":6829:6968   */\n      swap1\n      pop\n        /* \"#utility.yul\":6556:6975   */\n      swap2\n      swap1\n      pop\n      jump\t// out\n        /* \"#utility.yul\":6981:7146   */\n    tag_158:\n        /* \"#utility.yul\":7121:7138   */\n      0x706c6564676564203e3d20676f616c0000000000000000000000000000000000\n        /* \"#utility.yul\":7117:7118   */\n      0x00\n        /* \"#utility.yul\":7109:7115   */\n      dup3\n        /* \"#utility.yul\":7105:7119   */\n      add\n        /* \"#utility.yul\":7098:7139   */\n      mstore\n        /* \"#utility.yul\":6981:7146   */\n      pop\n      jump\t// out\n        /* \"#utility.yul\":7152:7518   */\n    tag_159:\n        /* \"#utility.yul\":7294:7297   */\n      0x00\n        /* \"#utility.yul\":7315:7382   */\n      tag_265\n        /* \"#utility.yul\":7379:7381   */\n      0x0f\n        /* \"#utility.yul\":7374:7377   */\n      dup4\n        /* \"#utility.yul\":7315:7382   */\n      tag_155\n      jump\t// in\n    tag_265:\n        /* \"#utility.yul\":7308:7382   */\n      swap2\n      pop\n        /* \"#utility.yul\":7391:7484   */\n      tag_266\n        /* \"#utility.yul\":7480:7483   */\n      dup3\n        /* \"#utility.yul\":7391:7484   */\n      tag_158\n      jump\t// in\n    tag_266:\n        /* \"#utility.yul\":7509:7511   */\n      0x20\n        /* \"#utility.yul\":7504:7507   */\n      dup3\n        /* \"#utility.yul\":7500:7512   */\n      add\n        /* \"#utility.yul\":7493:7512   */\n      swap1\n      pop\n        /* \"#utility.yul\":7152:7518   */\n      swap2\n      swap1\n      pop\n      jump\t// out\n        /* \"#utility.yul\":7524:7943   */\n    tag_59:\n        /* \"#utility.yul\":7690:7694   */\n      0x00\n        /* \"#utility.yul\":7728:7730   */\n      0x20\n        /* \"#utility.yul\":7717:7726   */\n      dup3\n        /* \"#utility.yul\":7713:7731   */\n      add\n        /* \"#utility.yul\":7705:7731   */\n      swap1\n      pop\n        /* \"#utility.yul\":7777:7786   */\n      dup2\n        /* \"#utility.yul\":7771:7775   */\n      dup2\n        /* \"#utility.yul\":7767:7787   */\n      sub\n        /* \"#utility.yul\":7763:7764   */\n      0x00\n        /* \"#utility.yul\":7752:7761   */\n      dup4\n        /* \"#utility.yul\":7748:7765   */\n      add\n        /* \"#utility.yul\":7741:7788   */\n      mstore\n        /* \"#utility.yul\":7805:7936   */\n      tag_268\n        /* \"#utility.yul\":7931:7935   */\n      dup2\n        /* \"#utility.yul\":7805:7936   */\n      tag_159\n      jump\t// in\n    tag_268:\n        /* \"#utility.yul\":7797:7936   */\n      swap1\n      pop\n        /* \"#utility.yul\":7524:7943   */\n      swap2\n      swap1\n      pop\n      jump\t// out\n        /* \"#utility.yul\":7949:8281   */\n    tag_61:\n        /* \"#utility.yul\":8070:8074   */\n      0x00\n        /* \"#utility.yul\":8108:8110   */\n      0x40\n        /* \"#utility.yul\":8097:8106   */\n      dup3\n        /* \"#utility.yul\":8093:8111   */\n      add\n        /* \"#utility.yul\":8085:8111   */\n      swap1\n      pop\n        /* \"#utility.yul\":8121:8192   */\n      tag_270\n        /* \"#utility.yul\":8189:8190   */\n      0x00\n        /* \"#utility.yul\":8178:8187   */\n      dup4\n        /* \"#utility.yul\":8174:8191   */\n      add\n        /* \"#utility.yul\":8165:8171   */\n      dup6\n        /* \"#utility.yul\":8121:8192   */\n      tag_142\n      jump\t// in\n    tag_270:\n        /* \"#utility.yul\":8202:8274   */\n      tag_271\n        /* \"#utility.yul\":8270:8272   */\n      0x20\n        /* \"#utility.yul\":8259:8268   */\n      dup4\n        /* \"#utility.yul\":8255:8273   */\n      add\n        /* \"#utility.yul\":8246:8252   */\n      dup5\n        /* \"#utility.yul\":8202:8274   */\n      tag_134\n      jump\t// in\n    tag_271:\n        /* \"#utility.yul\":7949:8281   */\n      swap4\n      swap3\n      pop\n      pop\n      pop\n      jump\t// out\n        /* \"#utility.yul\":8287:8403   */\n    tag_160:\n        /* \"#utility.yul\":8357:8378   */\n      tag_273\n        /* \"#utility.yul\":8372:8377   */\n      dup2\n        /* \"#utility.yul\":8357:8378   */\n      tag_143\n      jump\t// in\n    tag_273:\n        /* \"#utility.yul\":8350:8355   */\n      dup2\n        /* \"#utility.yul\":8347:8379   */\n      eq\n        /* \"#utility.yul\":8337:8397   */\n      tag_274\n      jumpi\n        /* \"#utility.yul\":8393:8394   */\n      0x00\n        /* \"#utility.yul\":8390:8391   */\n      dup1\n        /* \"#utility.yul\":8383:8395   */\n      revert\n        /* \"#utility.yul\":8337:8397   */\n    tag_274:\n        /* \"#utility.yul\":8287:8403   */\n      pop\n      jump\t// out\n        /* \"#utility.yul\":8409:8546   */\n    tag_161:\n        /* \"#utility.yul\":8463:8468   */\n      0x00\n        /* \"#utility.yul\":8494:8500   */\n      dup2\n        /* \"#utility.yul\":8488:8501   */\n      mload\n        /* \"#utility.yul\":8479:8501   */\n      swap1\n      pop\n        /* \"#utility.yul\":8510:8540   */\n      tag_276\n        /* \"#utility.yul\":8534:8539   */\n      dup2\n        /* \"#utility.yul\":8510:8540   */\n      tag_160\n      jump\t// in\n    tag_276:\n        /* \"#utility.yul\":8409:8546   */\n      swap3\n      swap2\n      pop\n      pop\n      jump\t// out\n        /* \"#utility.yul\":8552:8897   */\n    tag_65:\n        /* \"#utility.yul\":8619:8625   */\n      0x00\n        /* \"#utility.yul\":8668:8670   */\n      0x20\n        /* \"#utility.yul\":8656:8665   */\n      dup3\n        /* \"#utility.yul\":8647:8654   */\n      dup5\n        /* \"#utility.yul\":8643:8666   */\n      sub\n        /* \"#utility.yul\":8639:8671   */\n      slt\n        /* \"#utility.yul\":8636:8755   */\n      iszero\n      tag_278\n      jumpi\n        /* \"#utility.yul\":8674:8753   */\n      tag_279\n      tag_136\n      jump\t// in\n    tag_279:\n        /* \"#utility.yul\":8636:8755   */\n    tag_278:\n        /* \"#utility.yul\":8794:8795   */\n      0x00\n        /* \"#utility.yul\":8819:8880   */\n      tag_280\n        /* \"#utility.yul\":8872:8879   */\n      dup5\n        /* \"#utility.yul\":8863:8869   */\n      dup3\n        /* \"#utility.yul\":8852:8861   */\n      dup6\n        /* \"#utility.yul\":8848:8870   */\n      add\n        /* \"#utility.yul\":8819:8880   */\n      tag_161\n      jump\t// in\n    tag_280:\n        /* \"#utility.yul\":8809:8880   */\n      swap2\n      pop\n        /* \"#utility.yul\":8765:8890   */\n      pop\n        /* \"#utility.yul\":8552:8897   */\n      swap3\n      swap2\n      pop\n      pop\n      jump\t// out\n        /* \"#utility.yul\":8903:9235   */\n    tag_67:\n        /* \"#utility.yul\":9024:9028   */\n      0x00\n        /* \"#utility.yul\":9062:9064   */\n      0x40\n        /* \"#utility.yul\":9051:9060   */\n      dup3\n        /* \"#utility.yul\":9047:9065   */\n      add\n        /* \"#utility.yul\":9039:9065   */\n      swap1\n      pop\n        /* \"#utility.yul\":9075:9146   */\n      tag_282\n        /* \"#utility.yul\":9143:9144   */\n      0x00\n        /* \"#utility.yul\":9132:9141   */\n      dup4\n        /* \"#utility.yul\":9128:9145   */\n      add\n        /* \"#utility.yul\":9119:9125   */\n      dup6\n        /* \"#utility.yul\":9075:9146   */\n      tag_134\n      jump\t// in\n    tag_282:\n        /* \"#utility.yul\":9156:9228   */\n      tag_283\n        /* \"#utility.yul\":9224:9226   */\n      0x20\n        /* \"#utility.yul\":9213:9222   */\n      dup4\n        /* \"#utility.yul\":9209:9227   */\n      add\n        /* \"#utility.yul\":9200:9206   */\n      dup5\n        /* \"#utility.yul\":9156:9228   */\n      tag_134\n      jump\t// in\n    tag_283:\n        /* \"#utility.yul\":8903:9235   */\n      swap4\n      swap3\n      pop\n      pop\n      pop\n      jump\t// out\n        /* \"#utility.yul\":9241:9405   */\n    tag_162:\n        /* \"#utility.yul\":9381:9397   */\n      0x7374617274206174203c206e6f77000000000000000000000000000000000000\n        /* \"#utility.yul\":9377:9378   */\n      0x00\n        /* \"#utility.yul\":9369:9375   */\n      dup3\n        /* \"#utility.yul\":9365:9379   */\n      add\n        /* \"#utility.yul\":9358:9398   */\n      mstore\n        /* \"#utility.yul\":9241:9405   */\n      pop\n      jump\t// out\n        /* \"#utility.yul\":9411:9777   */\n    tag_163:\n        /* \"#utility.yul\":9553:9556   */\n      0x00\n        /* \"#utility.yul\":9574:9641   */\n      tag_286\n        /* \"#utility.yul\":9638:9640   */\n      0x0e\n        /* \"#utility.yul\":9633:9636   */\n      dup4\n        /* \"#utility.yul\":9574:9641   */\n      tag_155\n      jump\t// in\n    tag_286:\n        /* \"#utility.yul\":9567:9641   */\n      swap2\n      pop\n        /* \"#utility.yul\":9650:9743   */\n      tag_287\n        /* \"#utility.yul\":9739:9742   */\n      dup3\n        /* \"#utility.yul\":9650:9743   */\n      tag_162\n      jump\t// in\n    tag_287:\n        /* \"#utility.yul\":9768:9770   */\n      0x20\n        /* \"#utility.yul\":9763:9766   */\n      dup3\n        /* \"#utility.yul\":9759:9771   */\n      add\n        /* \"#utility.yul\":9752:9771   */\n      swap1\n      pop\n        /* \"#utility.yul\":9411:9777   */\n      swap2\n      swap1\n      pop\n      jump\t// out\n        /* \"#utility.yul\":9783:10202   */\n    tag_71:\n        /* \"#utility.yul\":9949:9953   */\n      0x00\n        /* \"#utility.yul\":9987:9989   */\n      0x20\n        /* \"#utility.yul\":9976:9985   */\n      dup3\n        /* \"#utility.yul\":9972:9990   */\n      add\n        /* \"#utility.yul\":9964:9990   */\n      swap1\n      pop\n        /* \"#utility.yul\":10036:10045   */\n      dup2\n        /* \"#utility.yul\":10030:10034   */\n      dup2\n        /* \"#utility.yul\":10026:10046   */\n      sub\n        /* \"#utility.yul\":10022:10023   */\n      0x00\n        /* \"#utility.yul\":10011:10020   */\n      dup4\n        /* \"#utility.yul\":10007:10024   */\n      add\n        /* \"#utility.yul\":10000:10047   */\n      mstore\n        /* \"#utility.yul\":10064:10195   */\n      tag_289\n        /* \"#utility.yul\":10190:10194   */\n      dup2\n        /* \"#utility.yul\":10064:10195   */\n      tag_163\n      jump\t// in\n    tag_289:\n        /* \"#utility.yul\":10056:10195   */\n      swap1\n      pop\n        /* \"#utility.yul\":9783:10202   */\n      swap2\n      swap1\n      pop\n      jump\t// out\n        /* \"#utility.yul\":10208:10375   */\n    tag_164:\n        /* \"#utility.yul\":10348:10367   */\n      0x656e64206174203c207374617274206174000000000000000000000000000000\n        /* \"#utility.yul\":10344:10345   */\n      0x00\n        /* \"#utility.yul\":10336:10342   */\n      dup3\n        /* \"#utility.yul\":10332:10346   */\n      add\n        /* \"#utility.yul\":10325:10368   */\n      mstore\n        /* \"#utility.yul\":10208:10375   */\n      pop\n      jump\t// out\n        /* \"#utility.yul\":10381:10747   */\n    tag_165:\n        /* \"#utility.yul\":10523:10526   */\n      0x00\n        /* \"#utility.yul\":10544:10611   */\n      tag_292\n        /* \"#utility.yul\":10608:10610   */\n      0x11\n        /* \"#utility.yul\":10603:10606   */\n      dup4\n        /* \"#utility.yul\":10544:10611   */\n      tag_155\n      jump\t// in\n    tag_292:\n        /* \"#utility.yul\":10537:10611   */\n      swap2\n      pop\n        /* \"#utility.yul\":10620:10713   */\n      tag_293\n        /* \"#utility.yul\":10709:10712   */\n      dup3\n        /* \"#utility.yul\":10620:10713   */\n      tag_164\n      jump\t// in\n    tag_293:\n        /* \"#utility.yul\":10738:10740   */\n      0x20\n        /* \"#utility.yul\":10733:10736   */\n      dup3\n        /* \"#utility.yul\":10729:10741   */\n      add\n        /* \"#utility.yul\":10722:10741   */\n      swap1\n      pop\n        /* \"#utility.yul\":10381:10747   */\n      swap2\n      swap1\n      pop\n      jump\t// out\n        /* \"#utility.yul\":10753:11172   */\n    tag_74:\n        /* \"#utility.yul\":10919:10923   */\n      0x00\n        /* \"#utility.yul\":10957:10959   */\n      0x20\n        /* \"#utility.yul\":10946:10955   */\n      dup3\n        /* \"#utility.yul\":10942:10960   */\n      add\n        /* \"#utility.yul\":10934:10960   */\n      swap1\n      pop\n        /* \"#utility.yul\":11006:11015   */\n      dup2\n        /* \"#utility.yul\":11000:11004   */\n      dup2\n        /* \"#utility.yul\":10996:11016   */\n      sub\n        /* \"#utility.yul\":10992:10993   */\n      0x00\n        /* \"#utility.yul\":10981:10990   */\n      dup4\n        /* \"#utility.yul\":10977:10994   */\n      add\n        /* \"#utility.yul\":10970:11017   */\n      mstore\n        /* \"#utility.yul\":11034:11165   */\n      tag_295\n        /* \"#utility.yul\":11160:11164   */\n      dup2\n        /* \"#utility.yul\":11034:11165   */\n      tag_165\n      jump\t// in\n    tag_295:\n        /* \"#utility.yul\":11026:11165   */\n      swap1\n      pop\n        /* \"#utility.yul\":10753:11172   */\n      swap2\n      swap1\n      pop\n      jump\t// out\n        /* \"#utility.yul\":11178:11358   */\n    tag_166:\n        /* \"#utility.yul\":11226:11303   */\n      0x4e487b7100000000000000000000000000000000000000000000000000000000\n        /* \"#utility.yul\":11223:11224   */\n      0x00\n        /* \"#utility.yul\":11216:11304   */\n      mstore\n        /* \"#utility.yul\":11323:11327   */\n      0x11\n        /* \"#utility.yul\":11320:11321   */\n      0x04\n        /* \"#utility.yul\":11313:11328   */\n      mstore\n        /* \"#utility.yul\":11347:11351   */\n      0x24\n        /* \"#utility.yul\":11344:11345   */\n      0x00\n        /* \"#utility.yul\":11337:11352   */\n      revert\n        /* \"#utility.yul\":11364:11555   */\n    tag_76:\n        /* \"#utility.yul\":11404:11407   */\n      0x00\n        /* \"#utility.yul\":11423:11443   */\n      tag_298\n        /* \"#utility.yul\":11441:11442   */\n      dup3\n        /* \"#utility.yul\":11423:11443   */\n      tag_133\n      jump\t// in\n    tag_298:\n        /* \"#utility.yul\":11418:11443   */\n      swap2\n      pop\n        /* \"#utility.yul\":11457:11477   */\n      tag_299\n        /* \"#utility.yul\":11475:11476   */\n      dup4\n        /* \"#utility.yul\":11457:11477   */\n      tag_133\n      jump\t// in\n    tag_299:\n        /* \"#utility.yul\":11452:11477   */\n      swap3\n      pop\n        /* \"#utility.yul\":11500:11501   */\n      dup3\n        /* \"#utility.yul\":11497:11498   */\n      dup3\n        /* \"#utility.yul\":11493:11502   */\n      add\n        /* \"#utility.yul\":11486:11502   */\n      swap1\n      pop\n        /* \"#utility.yul\":11521:11524   */\n      dup1\n        /* \"#utility.yul\":11518:11519   */\n      dup3\n        /* \"#utility.yul\":11515:11525   */\n      gt\n        /* \"#utility.yul\":11512:11548   */\n      iszero\n      tag_300\n      jumpi\n        /* \"#utility.yul\":11528:11546   */\n      tag_301\n      tag_166\n      jump\t// in\n    tag_301:\n        /* \"#utility.yul\":11512:11548   */\n    tag_300:\n        /* \"#utility.yul\":11364:11555   */\n      swap3\n      swap2\n      pop\n      pop\n      jump\t// out\n        /* \"#utility.yul\":11561:11732   */\n    tag_167:\n        /* \"#utility.yul\":11701:11724   */\n      0x656e64206174203e206d6178206475726174696f6e0000000000000000000000\n        /* \"#utility.yul\":11697:11698   */\n      0x00\n        /* \"#utility.yul\":11689:11695   */\n      dup3\n        /* \"#utility.yul\":11685:11699   */\n      add\n        /* \"#utility.yul\":11678:11725   */\n      mstore\n        /* \"#utility.yul\":11561:11732   */\n      pop\n      jump\t// out\n        /* \"#utility.yul\":11738:12104   */\n    tag_168:\n        /* \"#utility.yul\":11880:11883   */\n      0x00\n        /* \"#utility.yul\":11901:11968   */\n      tag_304\n        /* \"#utility.yul\":11965:11967   */\n      0x15\n        /* \"#utility.yul\":11960:11963   */\n      dup4\n        /* \"#utility.yul\":11901:11968   */\n      tag_155\n      jump\t// in\n    tag_304:\n        /* \"#utility.yul\":11894:11968   */\n      swap2\n      pop\n        /* \"#utility.yul\":11977:12070   */\n      tag_305\n        /* \"#utility.yul\":12066:12069   */\n      dup3\n        /* \"#utility.yul\":11977:12070   */\n      tag_167\n      jump\t// in\n    tag_305:\n        /* \"#utility.yul\":12095:12097   */\n      0x20\n        /* \"#utility.yul\":12090:12093   */\n      dup3\n        /* \"#utility.yul\":12086:12098   */\n      add\n        /* \"#utility.yul\":12079:12098   */\n      swap1\n      pop\n        /* \"#utility.yul\":11738:12104   */\n      swap2\n      swap1\n      pop\n      jump\t// out\n        /* \"#utility.yul\":12110:12529   */\n    tag_79:\n        /* \"#utility.yul\":12276:12280   */\n      0x00\n        /* \"#utility.yul\":12314:12316   */\n      0x20\n        /* \"#utility.yul\":12303:12312   */\n      dup3\n        /* \"#utility.yul\":12299:12317   */\n      add\n        /* \"#utility.yul\":12291:12317   */\n      swap1\n      pop\n        /* \"#utility.yul\":12363:12372   */\n      dup2\n        /* \"#utility.yul\":12357:12361   */\n      dup2\n        /* \"#utility.yul\":12353:12373   */\n      sub\n        /* \"#utility.yul\":12349:12350   */\n      0x00\n        /* \"#utility.yul\":12338:12347   */\n      dup4\n        /* \"#utility.yul\":12334:12351   */\n      add\n        /* \"#utility.yul\":12327:12374   */\n      mstore\n        /* \"#utility.yul\":12391:12522   */\n      tag_307\n        /* \"#utility.yul\":12517:12521   */\n      dup2\n        /* \"#utility.yul\":12391:12522   */\n      tag_168\n      jump\t// in\n    tag_307:\n        /* \"#utility.yul\":12383:12522   */\n      swap1\n      pop\n        /* \"#utility.yul\":12110:12529   */\n      swap2\n      swap1\n      pop\n      jump\t// out\n        /* \"#utility.yul\":12535:12675   */\n    tag_169:\n        /* \"#utility.yul\":12584:12593   */\n      0x00\n        /* \"#utility.yul\":12617:12669   */\n      tag_309\n        /* \"#utility.yul\":12635:12668   */\n      tag_310\n        /* \"#utility.yul\":12644:12667   */\n      tag_311\n        /* \"#utility.yul\":12661:12666   */\n      dup5\n        /* \"#utility.yul\":12644:12667   */\n      tag_145\n      jump\t// in\n    tag_311:\n        /* \"#utility.yul\":12635:12668   */\n      tag_150\n      jump\t// in\n    tag_310:\n        /* \"#utility.yul\":12617:12669   */\n      tag_133\n      jump\t// in\n    tag_309:\n        /* \"#utility.yul\":12604:12669   */\n      swap1\n      pop\n        /* \"#utility.yul\":12535:12675   */\n      swap2\n      swap1\n      pop\n      jump\t// out\n        /* \"#utility.yul\":12681:12810   */\n    tag_170:\n        /* \"#utility.yul\":12767:12803   */\n      tag_313\n        /* \"#utility.yul\":12797:12802   */\n      dup2\n        /* \"#utility.yul\":12767:12803   */\n      tag_169\n      jump\t// in\n    tag_313:\n        /* \"#utility.yul\":12762:12765   */\n      dup3\n        /* \"#utility.yul\":12755:12804   */\n      mstore\n        /* \"#utility.yul\":12681:12810   */\n      pop\n      pop\n      jump\t// out\n        /* \"#utility.yul\":12816:13365   */\n    tag_82:\n        /* \"#utility.yul\":12991:12995   */\n      0x00\n        /* \"#utility.yul\":13029:13032   */\n      0x80\n        /* \"#utility.yul\":13018:13027   */\n      dup3\n        /* \"#utility.yul\":13014:13033   */\n      add\n        /* \"#utility.yul\":13006:13033   */\n      swap1\n      pop\n        /* \"#utility.yul\":13043:13114   */\n      tag_315\n        /* \"#utility.yul\":13111:13112   */\n      0x00\n        /* \"#utility.yul\":13100:13109   */\n      dup4\n        /* \"#utility.yul\":13096:13113   */\n      add\n        /* \"#utility.yul\":13087:13093   */\n      dup8\n        /* \"#utility.yul\":13043:13114   */\n      tag_134\n      jump\t// in\n    tag_315:\n        /* \"#utility.yul\":13124:13196   */\n      tag_316\n        /* \"#utility.yul\":13192:13194   */\n      0x20\n        /* \"#utility.yul\":13181:13190   */\n      dup4\n        /* \"#utility.yul\":13177:13195   */\n      add\n        /* \"#utility.yul\":13168:13174   */\n      dup7\n        /* \"#utility.yul\":13124:13196   */\n      tag_134\n      jump\t// in\n    tag_316:\n        /* \"#utility.yul\":13206:13277   */\n      tag_317\n        /* \"#utility.yul\":13273:13275   */\n      0x40\n        /* \"#utility.yul\":13262:13271   */\n      dup4\n        /* \"#utility.yul\":13258:13276   */\n      add\n        /* \"#utility.yul\":13249:13255   */\n      dup6\n        /* \"#utility.yul\":13206:13277   */\n      tag_170\n      jump\t// in\n    tag_317:\n        /* \"#utility.yul\":13287:13358   */\n      tag_318\n        /* \"#utility.yul\":13354:13356   */\n      0x60\n        /* \"#utility.yul\":13343:13352   */\n      dup4\n        /* \"#utility.yul\":13339:13357   */\n      add\n        /* \"#utility.yul\":13330:13336   */\n      dup5\n        /* \"#utility.yul\":13287:13358   */\n      tag_170\n      jump\t// in\n    tag_318:\n        /* \"#utility.yul\":12816:13365   */\n      swap6\n      swap5\n      pop\n      pop\n      pop\n      pop\n      pop\n      jump\t// out\n        /* \"#utility.yul\":13371:13532   */\n    tag_171:\n        /* \"#utility.yul\":13511:13524   */\n      0x6e6f742063726561746f72000000000000000000000000000000000000000000\n        /* \"#utility.yul\":13507:13508   */\n      0x00\n        /* \"#utility.yul\":13499:13505   */\n      dup3\n        /* \"#utility.yul\":13495:13509   */\n      add\n        /* \"#utility.yul\":13488:13525   */\n      mstore\n        /* \"#utility.yul\":13371:13532   */\n      pop\n      jump\t// out\n        /* \"#utility.yul\":13538:13904   */\n    tag_172:\n        /* \"#utility.yul\":13680:13683   */\n      0x00\n        /* \"#utility.yul\":13701:13768   */\n      tag_321\n        /* \"#utility.yul\":13765:13767   */\n      0x0b\n        /* \"#utility.yul\":13760:13763   */\n      dup4\n        /* \"#utility.yul\":13701:13768   */\n      tag_155\n      jump\t// in\n    tag_321:\n        /* \"#utility.yul\":13694:13768   */\n      swap2\n      pop\n        /* \"#utility.yul\":13777:13870   */\n      tag_322\n        /* \"#utility.yul\":13866:13869   */\n      dup3\n        /* \"#utility.yul\":13777:13870   */\n      tag_171\n      jump\t// in\n    tag_322:\n        /* \"#utility.yul\":13895:13897   */\n      0x20\n        /* \"#utility.yul\":13890:13893   */\n      dup3\n        /* \"#utility.yul\":13886:13898   */\n      add\n        /* \"#utility.yul\":13879:13898   */\n      swap1\n      pop\n        /* \"#utility.yul\":13538:13904   */\n      swap2\n      swap1\n      pop\n      jump\t// out\n        /* \"#utility.yul\":13910:14329   */\n    tag_86:\n        /* \"#utility.yul\":14076:14080   */\n      0x00\n        /* \"#utility.yul\":14114:14116   */\n      0x20\n        /* \"#utility.yul\":14103:14112   */\n      dup3\n        /* \"#utility.yul\":14099:14117   */\n      add\n        /* \"#utility.yul\":14091:14117   */\n      swap1\n      pop\n        /* \"#utility.yul\":14163:14172   */\n      dup2\n        /* \"#utility.yul\":14157:14161   */\n      dup2\n        /* \"#utility.yul\":14153:14173   */\n      sub\n        /* \"#utility.yul\":14149:14150   */\n      0x00\n        /* \"#utility.yul\":14138:14147   */\n      dup4\n        /* \"#utility.yul\":14134:14151   */\n      add\n        /* \"#utility.yul\":14127:14174   */\n      mstore\n        /* \"#utility.yul\":14191:14322   */\n      tag_324\n        /* \"#utility.yul\":14317:14321   */\n      dup2\n        /* \"#utility.yul\":14191:14322   */\n      tag_172\n      jump\t// in\n    tag_324:\n        /* \"#utility.yul\":14183:14322   */\n      swap1\n      pop\n        /* \"#utility.yul\":13910:14329   */\n      swap2\n      swap1\n      pop\n      jump\t// out\n        /* \"#utility.yul\":14335:14499   */\n    tag_173:\n        /* \"#utility.yul\":14475:14491   */\n      0x706c6564676564203c20676f616c000000000000000000000000000000000000\n        /* \"#utility.yul\":14471:14472   */\n      0x00\n        /* \"#utility.yul\":14463:14469   */\n      dup3\n        /* \"#utility.yul\":14459:14473   */\n      add\n        /* \"#utility.yul\":14452:14492   */\n      mstore\n        /* \"#utility.yul\":14335:14499   */\n      pop\n      jump\t// out\n        /* \"#utility.yul\":14505:14871   */\n    tag_174:\n        /* \"#utility.yul\":14647:14650   */\n      0x00\n        /* \"#utility.yul\":14668:14735   */\n      tag_327\n        /* \"#utility.yul\":14732:14734   */\n      0x0e\n        /* \"#utility.yul\":14727:14730   */\n      dup4\n        /* \"#utility.yul\":14668:14735   */\n      tag_155\n      jump\t// in\n    tag_327:\n        /* \"#utility.yul\":14661:14735   */\n      swap2\n      pop\n        /* \"#utility.yul\":14744:14837   */\n      tag_328\n        /* \"#utility.yul\":14833:14836   */\n      dup3\n        /* \"#utility.yul\":14744:14837   */\n      tag_173\n      jump\t// in\n    tag_328:\n        /* \"#utility.yul\":14862:14864   */\n      0x20\n        /* \"#utility.yul\":14857:14860   */\n      dup3\n        /* \"#utility.yul\":14853:14865   */\n      add\n        /* \"#utility.yul\":14846:14865   */\n      swap1\n      pop\n        /* \"#utility.yul\":14505:14871   */\n      swap2\n      swap1\n      pop\n      jump\t// out\n        /* \"#utility.yul\":14877:15296   */\n    tag_91:\n        /* \"#utility.yul\":15043:15047   */\n      0x00\n        /* \"#utility.yul\":15081:15083   */\n      0x20\n        /* \"#utility.yul\":15070:15079   */\n      dup3\n        /* \"#utility.yul\":15066:15084   */\n      add\n        /* \"#utility.yul\":15058:15084   */\n      swap1\n      pop\n        /* \"#utility.yul\":15130:15139   */\n      dup2\n        /* \"#utility.yul\":15124:15128   */\n      dup2\n        /* \"#utility.yul\":15120:15140   */\n      sub\n        /* \"#utility.yul\":15116:15117   */\n      0x00\n        /* \"#utility.yul\":15105:15114   */\n      dup4\n        /* \"#utility.yul\":15101:15118   */\n      add\n        /* \"#utility.yul\":15094:15141   */\n      mstore\n        /* \"#utility.yul\":15158:15289   */\n      tag_330\n        /* \"#utility.yul\":15284:15288   */\n      dup2\n        /* \"#utility.yul\":15158:15289   */\n      tag_174\n      jump\t// in\n    tag_330:\n        /* \"#utility.yul\":15150:15289   */\n      swap1\n      pop\n        /* \"#utility.yul\":14877:15296   */\n      swap2\n      swap1\n      pop\n      jump\t// out\n        /* \"#utility.yul\":15302:15459   */\n    tag_175:\n        /* \"#utility.yul\":15442:15451   */\n      0x636c61696d656400000000000000000000000000000000000000000000000000\n        /* \"#utility.yul\":15438:15439   */\n      0x00\n        /* \"#utility.yul\":15430:15436   */\n      dup3\n        /* \"#utility.yul\":15426:15440   */\n      add\n        /* \"#utility.yul\":15419:15452   */\n      mstore\n        /* \"#utility.yul\":15302:15459   */\n      pop\n      jump\t// out\n        /* \"#utility.yul\":15465:15830   */\n    tag_176:\n        /* \"#utility.yul\":15607:15610   */\n      0x00\n        /* \"#utility.yul\":15628:15694   */\n      tag_333\n        /* \"#utility.yul\":15692:15693   */\n      0x07\n        /* \"#utility.yul\":15687:15690   */\n      dup4\n        /* \"#utility.yul\":15628:15694   */\n      tag_155\n      jump\t// in\n    tag_333:\n        /* \"#utility.yul\":15621:15694   */\n      swap2\n      pop\n        /* \"#utility.yul\":15703:15796   */\n      tag_334\n        /* \"#utility.yul\":15792:15795   */\n      dup3\n        /* \"#utility.yul\":15703:15796   */\n      tag_175\n      jump\t// in\n    tag_334:\n        /* \"#utility.yul\":15821:15823   */\n      0x20\n        /* \"#utility.yul\":15816:15819   */\n      dup3\n        /* \"#utility.yul\":15812:15824   */\n      add\n        /* \"#utility.yul\":15805:15824   */\n      swap1\n      pop\n        /* \"#utility.yul\":15465:15830   */\n      swap2\n      swap1\n      pop\n      jump\t// out\n        /* \"#utility.yul\":15836:16255   */\n    tag_94:\n        /* \"#utility.yul\":16002:16006   */\n      0x00\n        /* \"#utility.yul\":16040:16042   */\n      0x20\n        /* \"#utility.yul\":16029:16038   */\n      dup3\n        /* \"#utility.yul\":16025:16043   */\n      add\n        /* \"#utility.yul\":16017:16043   */\n      swap1\n      pop\n        /* \"#utility.yul\":16089:16098   */\n      dup2\n        /* \"#utility.yul\":16083:16087   */\n      dup2\n        /* \"#utility.yul\":16079:16099   */\n      sub\n        /* \"#utility.yul\":16075:16076   */\n      0x00\n        /* \"#utility.yul\":16064:16073   */\n      dup4\n        /* \"#utility.yul\":16060:16077   */\n      add\n        /* \"#utility.yul\":16053:16100   */\n      mstore\n        /* \"#utility.yul\":16117:16248   */\n      tag_336\n        /* \"#utility.yul\":16243:16247   */\n      dup2\n        /* \"#utility.yul\":16117:16248   */\n      tag_176\n      jump\t// in\n    tag_336:\n        /* \"#utility.yul\":16109:16248   */\n      swap1\n      pop\n        /* \"#utility.yul\":15836:16255   */\n      swap2\n      swap1\n      pop\n      jump\t// out\n        /* \"#utility.yul\":16261:16418   */\n    tag_177:\n        /* \"#utility.yul\":16401:16410   */\n      0x7374617274656400000000000000000000000000000000000000000000000000\n        /* \"#utility.yul\":16397:16398   */\n      0x00\n        /* \"#utility.yul\":16389:16395   */\n      dup3\n        /* \"#utility.yul\":16385:16399   */\n      add\n        /* \"#utility.yul\":16378:16411   */\n      mstore\n        /* \"#utility.yul\":16261:16418   */\n      pop\n      jump\t// out\n        /* \"#utility.yul\":16424:16789   */\n    tag_178:\n        /* \"#utility.yul\":16566:16569   */\n      0x00\n        /* \"#utility.yul\":16587:16653   */\n      tag_339\n        /* \"#utility.yul\":16651:16652   */\n      0x07\n        /* \"#utility.yul\":16646:16649   */\n      dup4\n        /* \"#utility.yul\":16587:16653   */\n      tag_155\n      jump\t// in\n    tag_339:\n        /* \"#utility.yul\":16580:16653   */\n      swap2\n      pop\n        /* \"#utility.yul\":16662:16755   */\n      tag_340\n        /* \"#utility.yul\":16751:16754   */\n      dup3\n        /* \"#utility.yul\":16662:16755   */\n      tag_177\n      jump\t// in\n    tag_340:\n        /* \"#utility.yul\":16780:16782   */\n      0x20\n        /* \"#utility.yul\":16775:16778   */\n      dup3\n        /* \"#utility.yul\":16771:16783   */\n      add\n        /* \"#utility.yul\":16764:16783   */\n      swap1\n      pop\n        /* \"#utility.yul\":16424:16789   */\n      swap2\n      swap1\n      pop\n      jump\t// out\n        /* \"#utility.yul\":16795:17214   */\n    tag_105:\n        /* \"#utility.yul\":16961:16965   */\n      0x00\n        /* \"#utility.yul\":16999:17001   */\n      0x20\n        /* \"#utility.yul\":16988:16997   */\n      dup3\n        /* \"#utility.yul\":16984:17002   */\n      add\n        /* \"#utility.yul\":16976:17002   */\n      swap1\n      pop\n        /* \"#utility.yul\":17048:17057   */\n      dup2\n        /* \"#utility.yul\":17042:17046   */\n      dup2\n        /* \"#utility.yul\":17038:17058   */\n      sub\n        /* \"#utility.yul\":17034:17035   */\n      0x00\n        /* \"#utility.yul\":17023:17032   */\n      dup4\n        /* \"#utility.yul\":17019:17036   */\n      add\n        /* \"#utility.yul\":17012:17059   */\n      mstore\n        /* \"#utility.yul\":17076:17207   */\n      tag_342\n        /* \"#utility.yul\":17202:17206   */\n      dup2\n        /* \"#utility.yul\":17076:17207   */\n      tag_178\n      jump\t// in\n    tag_342:\n        /* \"#utility.yul\":17068:17207   */\n      swap1\n      pop\n        /* \"#utility.yul\":16795:17214   */\n      swap2\n      swap1\n      pop\n      jump\t// out\n        /* \"#utility.yul\":17220:17375   */\n    tag_179:\n        /* \"#utility.yul\":17360:17367   */\n      0x656e646564000000000000000000000000000000000000000000000000000000\n        /* \"#utility.yul\":17356:17357   */\n      0x00\n        /* \"#utility.yul\":17348:17354   */\n      dup3\n        /* \"#utility.yul\":17344:17358   */\n      add\n        /* \"#utility.yul\":17337:17368   */\n      mstore\n        /* \"#utility.yul\":17220:17375   */\n      pop\n      jump\t// out\n        /* \"#utility.yul\":17381:17746   */\n    tag_180:\n        /* \"#utility.yul\":17523:17526   */\n      0x00\n        /* \"#utility.yul\":17544:17610   */\n      tag_345\n        /* \"#utility.yul\":17608:17609   */\n      0x05\n        /* \"#utility.yul\":17603:17606   */\n      dup4\n        /* \"#utility.yul\":17544:17610   */\n      tag_155\n      jump\t// in\n    tag_345:\n        /* \"#utility.yul\":17537:17610   */\n      swap2\n      pop\n        /* \"#utility.yul\":17619:17712   */\n      tag_346\n        /* \"#utility.yul\":17708:17711   */\n      dup3\n        /* \"#utility.yul\":17619:17712   */\n      tag_179\n      jump\t// in\n    tag_346:\n        /* \"#utility.yul\":17737:17739   */\n      0x20\n        /* \"#utility.yul\":17732:17735   */\n      dup3\n        /* \"#utility.yul\":17728:17740   */\n      add\n        /* \"#utility.yul\":17721:17740   */\n      swap1\n      pop\n        /* \"#utility.yul\":17381:17746   */\n      swap2\n      swap1\n      pop\n      jump\t// out\n        /* \"#utility.yul\":17752:18171   */\n    tag_110:\n        /* \"#utility.yul\":17918:17922   */\n      0x00\n        /* \"#utility.yul\":17956:17958   */\n      0x20\n        /* \"#utility.yul\":17945:17954   */\n      dup3\n        /* \"#utility.yul\":17941:17959   */\n      add\n        /* \"#utility.yul\":17933:17959   */\n      swap1\n      pop\n        /* \"#utility.yul\":18005:18014   */\n      dup2\n        /* \"#utility.yul\":17999:18003   */\n      dup2\n        /* \"#utility.yul\":17995:18015   */\n      sub\n        /* \"#utility.yul\":17991:17992   */\n      0x00\n        /* \"#utility.yul\":17980:17989   */\n      dup4\n        /* \"#utility.yul\":17976:17993   */\n      add\n        /* \"#utility.yul\":17969:18016   */\n      mstore\n        /* \"#utility.yul\":18033:18164   */\n      tag_348\n        /* \"#utility.yul\":18159:18163   */\n      dup2\n        /* \"#utility.yul\":18033:18164   */\n      tag_180\n      jump\t// in\n    tag_348:\n        /* \"#utility.yul\":18025:18164   */\n      swap1\n      pop\n        /* \"#utility.yul\":17752:18171   */\n      swap2\n      swap1\n      pop\n      jump\t// out\n        /* \"#utility.yul\":18177:18371   */\n    tag_112:\n        /* \"#utility.yul\":18217:18221   */\n      0x00\n        /* \"#utility.yul\":18237:18257   */\n      tag_350\n        /* \"#utility.yul\":18255:18256   */\n      dup3\n        /* \"#utility.yul\":18237:18257   */\n      tag_133\n      jump\t// in\n    tag_350:\n        /* \"#utility.yul\":18232:18257   */\n      swap2\n      pop\n        /* \"#utility.yul\":18271:18291   */\n      tag_351\n        /* \"#utility.yul\":18289:18290   */\n      dup4\n        /* \"#utility.yul\":18271:18291   */\n      tag_133\n      jump\t// in\n    tag_351:\n        /* \"#utility.yul\":18266:18291   */\n      swap3\n      pop\n        /* \"#utility.yul\":18315:18316   */\n      dup3\n        /* \"#utility.yul\":18312:18313   */\n      dup3\n        /* \"#utility.yul\":18308:18317   */\n      sub\n        /* \"#utility.yul\":18300:18317   */\n      swap1\n      pop\n        /* \"#utility.yul\":18339:18340   */\n      dup2\n        /* \"#utility.yul\":18333:18337   */\n      dup2\n        /* \"#utility.yul\":18330:18341   */\n      gt\n        /* \"#utility.yul\":18327:18364   */\n      iszero\n      tag_352\n      jumpi\n        /* \"#utility.yul\":18344:18362   */\n      tag_353\n      tag_166\n      jump\t// in\n    tag_353:\n        /* \"#utility.yul\":18327:18364   */\n    tag_352:\n        /* \"#utility.yul\":18177:18371   */\n      swap3\n      swap2\n      pop\n      pop\n      jump\t// out\n        /* \"#utility.yul\":18377:18538   */\n    tag_181:\n        /* \"#utility.yul\":18517:18530   */\n      0x6e6f742073746172746564000000000000000000000000000000000000000000\n        /* \"#utility.yul\":18513:18514   */\n      0x00\n        /* \"#utility.yul\":18505:18511   */\n      dup3\n        /* \"#utility.yul\":18501:18515   */\n      add\n        /* \"#utility.yul\":18494:18531   */\n      mstore\n        /* \"#utility.yul\":18377:18538   */\n      pop\n      jump\t// out\n        /* \"#utility.yul\":18544:18910   */\n    tag_182:\n        /* \"#utility.yul\":18686:18689   */\n      0x00\n        /* \"#utility.yul\":18707:18774   */\n      tag_356\n        /* \"#utility.yul\":18771:18773   */\n      0x0b\n        /* \"#utility.yul\":18766:18769   */\n      dup4\n        /* \"#utility.yul\":18707:18774   */\n      tag_155\n      jump\t// in\n    tag_356:\n        /* \"#utility.yul\":18700:18774   */\n      swap2\n      pop\n        /* \"#utility.yul\":18783:18876   */\n      tag_357\n        /* \"#utility.yul\":18872:18875   */\n      dup3\n        /* \"#utility.yul\":18783:18876   */\n      tag_181\n      jump\t// in\n    tag_357:\n        /* \"#utility.yul\":18901:18903   */\n      0x20\n        /* \"#utility.yul\":18896:18899   */\n      dup3\n        /* \"#utility.yul\":18892:18904   */\n      add\n        /* \"#utility.yul\":18885:18904   */\n      swap1\n      pop\n        /* \"#utility.yul\":18544:18910   */\n      swap2\n      swap1\n      pop\n      jump\t// out\n        /* \"#utility.yul\":18916:19335   */\n    tag_122:\n        /* \"#utility.yul\":19082:19086   */\n      0x00\n        /* \"#utility.yul\":19120:19122   */\n      0x20\n        /* \"#utility.yul\":19109:19118   */\n      dup3\n        /* \"#utility.yul\":19105:19123   */\n      add\n        /* \"#utility.yul\":19097:19123   */\n      swap1\n      pop\n        /* \"#utility.yul\":19169:19178   */\n      dup2\n        /* \"#utility.yul\":19163:19167   */\n      dup2\n        /* \"#utility.yul\":19159:19179   */\n      sub\n        /* \"#utility.yul\":19155:19156   */\n      0x00\n        /* \"#utility.yul\":19144:19153   */\n      dup4\n        /* \"#utility.yul\":19140:19157   */\n      add\n        /* \"#utility.yul\":19133:19180   */\n      mstore\n        /* \"#utility.yul\":19197:19328   */\n      tag_359\n        /* \"#utility.yul\":19323:19327   */\n      dup2\n        /* \"#utility.yul\":19197:19328   */\n      tag_182\n      jump\t// in\n    tag_359:\n        /* \"#utility.yul\":19189:19328   */\n      swap1\n      pop\n        /* \"#utility.yul\":18916:19335   */\n      swap2\n      swap1\n      pop\n      jump\t// out\n        /* \"#utility.yul\":19341:19783   */\n    tag_128:\n        /* \"#utility.yul\":19490:19494   */\n      0x00\n        /* \"#utility.yul\":19528:19530   */\n      0x60\n        /* \"#utility.yul\":19517:19526   */\n      dup3\n        /* \"#utility.yul\":19513:19531   */\n      add\n        /* \"#utility.yul\":19505:19531   */\n      swap1\n      pop\n        /* \"#utility.yul\":19541:19612   */\n      tag_361\n        /* \"#utility.yul\":19609:19610   */\n      0x00\n        /* \"#utility.yul\":19598:19607   */\n      dup4\n        /* \"#utility.yul\":19594:19611   */\n      add\n        /* \"#utility.yul\":19585:19591   */\n      dup7\n        /* \"#utility.yul\":19541:19612   */\n      tag_142\n      jump\t// in\n    tag_361:\n        /* \"#utility.yul\":19622:19694   */\n      tag_362\n        /* \"#utility.yul\":19690:19692   */\n      0x20\n        /* \"#utility.yul\":19679:19688   */\n      dup4\n        /* \"#utility.yul\":19675:19693   */\n      add\n        /* \"#utility.yul\":19666:19672   */\n      dup6\n        /* \"#utility.yul\":19622:19694   */\n      tag_142\n      jump\t// in\n    tag_362:\n        /* \"#utility.yul\":19704:19776   */\n      tag_363\n        /* \"#utility.yul\":19772:19774   */\n      0x40\n        /* \"#utility.yul\":19761:19770   */\n      dup4\n        /* \"#utility.yul\":19757:19775   */\n      add\n        /* \"#utility.yul\":19748:19754   */\n      dup5\n        /* \"#utility.yul\":19704:19776   */\n      tag_134\n      jump\t// in\n    tag_363:\n        /* \"#utility.yul\":19341:19783   */\n      swap5\n      swap4\n      pop\n      pop\n      pop\n      pop\n      jump\t// out\n\n    auxdata: 0xa264697066735822122007ad915066b05e08e04cd2d3095a0774d51ec521da8acdc1dbe31fb46d7c11cf64736f6c63430008160033\n}\n",
				"bytecode": {
					"linkReferences": {},
					"object": "60a060405234801562000010575f80fd5b5060405162001aff38038062001aff8339818101604052810190620000369190620000d6565b8073ffffffffffffffffffffffffffffffffffffffff1660808173ffffffffffffffffffffffffffffffffffffffff16815250505062000106565b5f80fd5b5f73ffffffffffffffffffffffffffffffffffffffff82169050919050565b5f620000a08262000075565b9050919050565b620000b28162000094565b8114620000bd575f80fd5b50565b5f81519050620000d081620000a7565b92915050565b5f60208284031215620000ee57620000ed62000071565b5b5f620000fd84828501620000c0565b91505092915050565b6080516119c46200013b5f395f81816104390152818161091e01528181610d0101528181610e110152610f5301526119c45ff3fe608060405234801561000f575f80fd5b506004361061009c575f3560e01c806340e58ee51161006457806340e58ee514610147578063711853ab14610163578063aa4fb63a1461017f578063fc0c546a146101af578063fde327be146101cd5761009c565b806306661abd146100a0578063141961bc146100be578063278ecde1146100f35780632c63f1461461010f578063379607f51461012b575b5f80fd5b6100a86101e9565b6040516100b5919061105b565b60405180910390f35b6100d860048036038101906100d391906110a2565b6101ee565b6040516100ea96959493929190611126565b60405180910390f35b61010d600480360381019061010891906110a2565b610251565b005b610129600480360381019061012491906111be565b610528565b005b610145600480360381019061014091906110a2565b61077a565b005b610161600480360381019061015c91906110a2565b610a19565b005b61017d6004803603810190610178919061120e565b610c28565b005b61019960048036038101906101949190611276565b610def565b6040516101a6919061105b565b60405180910390f35b6101b7610e0f565b6040516101c4919061130f565b60405180910390f35b6101e760048036038101906101e2919061120e565b610e33565b005b5f5481565b6001602052805f5260405f205f91509050805f015f9054906101000a900473ffffffffffffffffffffffffffffffffffffffff1690806001015490806002015490806003015490806004015490806005015f9054906101000a900460ff16905086565b5f60015f8381526020019081526020015f206040518060c00160405290815f82015f9054906101000a900473ffffffffffffffffffffffffffffffffffffffff1673ffffffffffffffffffffffffffffffffffffffff1673ffffffffffffffffffffffffffffffffffffffff16815260200160018201548152602001600282015481526020016003820154815260200160048201548152602001600582015f9054906101000a900460ff16151515158152505090508060800151421161034c576040517f08c379a000000000000000000000000000000000000000000000000000000000815260040161034390611382565b60405180910390fd5b8060200151816040015110610396576040517f08c379a000000000000000000000000000000000000000000000000000000000815260040161038d906113ea565b60405180910390fd5b5f60025f8481526020019081526020015f205f3373ffffffffffffffffffffffffffffffffffffffff1673ffffffffffffffffffffffffffffffffffffffff1681526020019081526020015f205490505f60025f8581526020019081526020015f205f3373ffffffffffffffffffffffffffffffffffffffff1673ffffffffffffffffffffffffffffffffffffffff1681526020019081526020015f20819055507f000000000000000000000000000000000000000000000000000000000000000073ffffffffffffffffffffffffffffffffffffffff1663a9059cbb33836040518363ffffffff1660e01b8152600401610492929190611408565b6020604051808303815f875af11580156104ae573d5f803e3d5ffd5b505050506040513d601f19601f820116820180604052508101906104d29190611459565b503373ffffffffffffffffffffffffffffffffffffffff167f21e12a7cad0da5928167e1084ea4d5fdf8d9af66657a2543a9ac76a0ca081477848360405161051b929190611484565b60405180910390a2505050565b428263ffffffff161015610571576040517f08c379a0000000000000000000000000000000000000000000000000000000008152600401610568906114f5565b60405180910390fd5b8163ffffffff168163ffffffff1610156105c0576040517f08c379a00000000000000000000000000000000000000000000000000000000081526004016105b79061155d565b60405180910390fd5b6276a700426105cf91906115a8565b8163ffffffff161115610617576040517f08c379a000000000000000000000000000000000000000000000000000000000815260040161060e90611625565b60405180910390fd5b60015f8082825461062891906115a8565b925050819055506040518060c001604052803373ffffffffffffffffffffffffffffffffffffffff1681526020018481526020015f81526020018363ffffffff1681526020018263ffffffff1681526020015f151581525060015f805481526020019081526020015f205f820151815f015f6101000a81548173ffffffffffffffffffffffffffffffffffffffff021916908373ffffffffffffffffffffffffffffffffffffffff1602179055506020820151816001015560408201518160020155606082015181600301556080820151816004015560a0820151816005015f6101000a81548160ff0219169083151502179055509050503373ffffffffffffffffffffffffffffffffffffffff167fc9142a9424eb889eb9f9493aeb5b3b9ffffe3e32c9361bd725d709f6b28b91b15f5485858560405161076d9493929190611673565b60405180910390a2505050565b5f60015f8381526020019081526020015f2090503373ffffffffffffffffffffffffffffffffffffffff16815f015f9054906101000a900473ffffffffffffffffffffffffffffffffffffffff1673ffffffffffffffffffffffffffffffffffffffff161461081e576040517f08c379a000000000000000000000000000000000000000000000000000000000815260040161081590611700565b60405180910390fd5b80600401544211610864576040517f08c379a000000000000000000000000000000000000000000000000000000000815260040161085b90611382565b60405180910390fd5b8060010154816002015410156108af576040517f08c379a00000000000000000000000000000000000000000000000000000000081526004016108a690611768565b60405180910390fd5b806005015f9054906101000a900460ff1615610900576040517f08c379a00000000000000000000000000000000000000000000000000000000081526004016108f7906117d0565b60405180910390fd5b6001816005015f6101000a81548160ff0219169083151502179055507f000000000000000000000000000000000000000000000000000000000000000073ffffffffffffffffffffffffffffffffffffffff1663a9059cbb825f015f9054906101000a900473ffffffffffffffffffffffffffffffffffffffff1683600201546040518363ffffffff1660e01b815260040161099d929190611408565b6020604051808303815f875af11580156109b9573d5f803e3d5ffd5b505050506040513d601f19601f820116820180604052508101906109dd9190611459565b507f7bb2b3c10797baccb6f8c4791f1edd6ca2f0d028ee0eda64b01a9a57e3a653f782604051610a0d919061105b565b60405180910390a15050565b5f60015f8381526020019081526020015f206040518060c00160405290815f82015f9054906101000a900473ffffffffffffffffffffffffffffffffffffffff1673ffffffffffffffffffffffffffffffffffffffff1673ffffffffffffffffffffffffffffffffffffffff16815260200160018201548152602001600282015481526020016003820154815260200160048201548152602001600582015f9054906101000a900460ff16151515158152505090503373ffffffffffffffffffffffffffffffffffffffff16815f015173ffffffffffffffffffffffffffffffffffffffff1614610b3f576040517f08c379a0000000000000000000000000000000000000000000000000000000008152600401610b3690611700565b60405180910390fd5b80606001514210610b85576040517f08c379a0000000000000000000000000000000000000000000000000000000008152600401610b7c90611838565b60405180910390fd5b60015f8381526020019081526020015f205f8082015f6101000a81549073ffffffffffffffffffffffffffffffffffffffff0219169055600182015f9055600282015f9055600382015f9055600482015f9055600582015f6101000a81549060ff021916905550507f8bf30e7ff26833413be5f69e1d373744864d600b664204b4a2f9844a8eedb9ed82604051610c1c919061105b565b60405180910390a15050565b5f60015f8481526020019081526020015f2090508060040154421115610c83576040517f08c379a0000000000000000000000000000000000000000000000000000000008152600401610c7a906118a0565b60405180910390fd5b81816002015f828254610c9691906118be565b925050819055508160025f8581526020019081526020015f205f3373ffffffffffffffffffffffffffffffffffffffff1673ffffffffffffffffffffffffffffffffffffffff1681526020019081526020015f205f828254610cf891906118be565b925050819055507f000000000000000000000000000000000000000000000000000000000000000073ffffffffffffffffffffffffffffffffffffffff1663a9059cbb33846040518363ffffffff1660e01b8152600401610d5a929190611408565b6020604051808303815f875af1158015610d76573d5f803e3d5ffd5b505050506040513d601f19601f82011682018060405250810190610d9a9190611459565b503373ffffffffffffffffffffffffffffffffffffffff16837f2eeeab891b26a214d1b25749f88a406bdea852bd8c9bfda977e0ef8114c180ba84604051610de2919061105b565b60405180910390a3505050565b6002602052815f5260405f20602052805f5260405f205f91509150505481565b7f000000000000000000000000000000000000000000000000000000000000000081565b5f60015f8481526020019081526020015f2090508060030154421015610e8e576040517f08c379a0000000000000000000000000000000000000000000000000000000008152600401610e859061193b565b60405180910390fd5b8060040154421115610ed5576040517f08c379a0000000000000000000000000000000000000000000000000000000008152600401610ecc906118a0565b60405180910390fd5b81816002015f828254610ee891906115a8565b925050819055508160025f8581526020019081526020015f205f3373ffffffffffffffffffffffffffffffffffffffff1673ffffffffffffffffffffffffffffffffffffffff1681526020019081526020015f205f828254610f4a91906115a8565b925050819055507f000000000000000000000000000000000000000000000000000000000000000073ffffffffffffffffffffffffffffffffffffffff166323b872dd3330856040518463ffffffff1660e01b8152600401610fae93929190611959565b6020604051808303815f875af1158015610fca573d5f803e3d5ffd5b505050506040513d601f19601f82011682018060405250810190610fee9190611459565b503373ffffffffffffffffffffffffffffffffffffffff16837f06bdb975df800a73232998e71ed585d536222f1dfeaa622d7f62a23ada686c8284604051611036919061105b565b60405180910390a3505050565b5f819050919050565b61105581611043565b82525050565b5f60208201905061106e5f83018461104c565b92915050565b5f80fd5b61108181611043565b811461108b575f80fd5b50565b5f8135905061109c81611078565b92915050565b5f602082840312156110b7576110b6611074565b5b5f6110c48482850161108e565b91505092915050565b5f73ffffffffffffffffffffffffffffffffffffffff82169050919050565b5f6110f6826110cd565b9050919050565b611106816110ec565b82525050565b5f8115159050919050565b6111208161110c565b82525050565b5f60c0820190506111395f8301896110fd565b611146602083018861104c565b611153604083018761104c565b611160606083018661104c565b61116d608083018561104c565b61117a60a0830184611117565b979650505050505050565b5f63ffffffff82169050919050565b61119d81611185565b81146111a7575f80fd5b50565b5f813590506111b881611194565b92915050565b5f805f606084860312156111d5576111d4611074565b5b5f6111e28682870161108e565b93505060206111f3868287016111aa565b9250506040611204868287016111aa565b9150509250925092565b5f806040838503121561122457611223611074565b5b5f6112318582860161108e565b92505060206112428582860161108e565b9150509250929050565b611255816110ec565b811461125f575f80fd5b50565b5f813590506112708161124c565b92915050565b5f806040838503121561128c5761128b611074565b5b5f6112998582860161108e565b92505060206112aa85828601611262565b9150509250929050565b5f819050919050565b5f6112d76112d26112cd846110cd565b6112b4565b6110cd565b9050919050565b5f6112e8826112bd565b9050919050565b5f6112f9826112de565b9050919050565b611309816112ef565b82525050565b5f6020820190506113225f830184611300565b92915050565b5f82825260208201905092915050565b7f6e6f7420656e64656400000000000000000000000000000000000000000000005f82015250565b5f61136c600983611328565b915061137782611338565b602082019050919050565b5f6020820190508181035f83015261139981611360565b9050919050565b7f706c6564676564203e3d20676f616c00000000000000000000000000000000005f82015250565b5f6113d4600f83611328565b91506113df826113a0565b602082019050919050565b5f6020820190508181035f830152611401816113c8565b9050919050565b5f60408201905061141b5f8301856110fd565b611428602083018461104c565b9392505050565b6114388161110c565b8114611442575f80fd5b50565b5f815190506114538161142f565b92915050565b5f6020828403121561146e5761146d611074565b5b5f61147b84828501611445565b91505092915050565b5f6040820190506114975f83018561104c565b6114a4602083018461104c565b9392505050565b7f7374617274206174203c206e6f770000000000000000000000000000000000005f82015250565b5f6114df600e83611328565b91506114ea826114ab565b602082019050919050565b5f6020820190508181035f83015261150c816114d3565b9050919050565b7f656e64206174203c2073746172742061740000000000000000000000000000005f82015250565b5f611547601183611328565b915061155282611513565b602082019050919050565b5f6020820190508181035f8301526115748161153b565b9050919050565b7f4e487b71000000000000000000000000000000000000000000000000000000005f52601160045260245ffd5b5f6115b282611043565b91506115bd83611043565b92508282019050808211156115d5576115d461157b565b5b92915050565b7f656e64206174203e206d6178206475726174696f6e00000000000000000000005f82015250565b5f61160f601583611328565b915061161a826115db565b602082019050919050565b5f6020820190508181035f83015261163c81611603565b9050919050565b5f61165d61165861165384611185565b6112b4565b611043565b9050919050565b61166d81611643565b82525050565b5f6080820190506116865f83018761104c565b611693602083018661104c565b6116a06040830185611664565b6116ad6060830184611664565b95945050505050565b7f6e6f742063726561746f720000000000000000000000000000000000000000005f82015250565b5f6116ea600b83611328565b91506116f5826116b6565b602082019050919050565b5f6020820190508181035f830152611717816116de565b9050919050565b7f706c6564676564203c20676f616c0000000000000000000000000000000000005f82015250565b5f611752600e83611328565b915061175d8261171e565b602082019050919050565b5f6020820190508181035f83015261177f81611746565b9050919050565b7f636c61696d6564000000000000000000000000000000000000000000000000005f82015250565b5f6117ba600783611328565b91506117c582611786565b602082019050919050565b5f6020820190508181035f8301526117e7816117ae565b9050919050565b7f73746172746564000000000000000000000000000000000000000000000000005f82015250565b5f611822600783611328565b915061182d826117ee565b602082019050919050565b5f6020820190508181035f83015261184f81611816565b9050919050565b7f656e6465640000000000000000000000000000000000000000000000000000005f82015250565b5f61188a600583611328565b915061189582611856565b602082019050919050565b5f6020820190508181035f8301526118b78161187e565b9050919050565b5f6118c882611043565b91506118d383611043565b92508282039050818111156118eb576118ea61157b565b5b92915050565b7f6e6f7420737461727465640000000000000000000000000000000000000000005f82015250565b5f611925600b83611328565b9150611930826118f1565b602082019050919050565b5f6020820190508181035f83015261195281611919565b9050919050565b5f60608201905061196c5f8301866110fd565b61197960208301856110fd565b611986604083018461104c565b94935050505056fea264697066735822122007ad915066b05e08e04cd2d3095a0774d51ec521da8acdc1dbe31fb46d7c11cf64736f6c63430008160033",
					"opcodes": "PUSH1 0xA0 PUSH1 0x40 MSTORE CALLVALUE DUP1 ISZERO PUSH3 0x10 JUMPI PUSH0 DUP1 REVERT JUMPDEST POP PUSH1 0x40 MLOAD PUSH3 0x1AFF CODESIZE SUB DUP1 PUSH3 0x1AFF DUP4 CODECOPY DUP2 DUP2 ADD PUSH1 0x40 MSTORE DUP2 ADD SWAP1 PUSH3 0x36 SWAP2 SWAP1 PUSH3 0xD6 JUMP JUMPDEST DUP1 PUSH20 0xFFFFFFFFFFFFFFFFFFFFFFFFFFFFFFFFFFFFFFFF AND PUSH1 0x80 DUP2 PUSH20 0xFFFFFFFFFFFFFFFFFFFFFFFFFFFFFFFFFFFFFFFF AND DUP2 MSTORE POP POP POP PUSH3 0x106 JUMP JUMPDEST PUSH0 DUP1 REVERT JUMPDEST PUSH0 PUSH20 0xFFFFFFFFFFFFFFFFFFFFFFFFFFFFFFFFFFFFFFFF DUP3 AND SWAP1 POP SWAP2 SWAP1 POP JUMP JUMPDEST PUSH0 PUSH3 0xA0 DUP3 PUSH3 0x75 JUMP JUMPDEST SWAP1 POP SWAP2 SWAP1 POP JUMP JUMPDEST PUSH3 0xB2 DUP2 PUSH3 0x94 JUMP JUMPDEST DUP2 EQ PUSH3 0xBD JUMPI PUSH0 DUP1 REVERT JUMPDEST POP JUMP JUMPDEST PUSH0 DUP2 MLOAD SWAP1 POP PUSH3 0xD0 DUP2 PUSH3 0xA7 JUMP JUMPDEST SWAP3 SWAP2 POP POP JUMP JUMPDEST PUSH0 PUSH1 0x20 DUP3 DUP5 SUB SLT ISZERO PUSH3 0xEE JUMPI PUSH3 0xED PUSH3 0x71 JUMP JUMPDEST JUMPDEST PUSH0 PUSH3 0xFD DUP5 DUP3 DUP6 ADD PUSH3 0xC0 JUMP JUMPDEST SWAP2 POP POP SWAP3 SWAP2 POP POP JUMP JUMPDEST PUSH1 0x80 MLOAD PUSH2 0x19C4 PUSH3 0x13B PUSH0 CODECOPY PUSH0 DUP2 DUP2 PUSH2 0x439 ADD MSTORE DUP2 DUP2 PUSH2 0x91E ADD MSTORE DUP2 DUP2 PUSH2 0xD01 ADD MSTORE DUP2 DUP2 PUSH2 0xE11 ADD MSTORE PUSH2 0xF53 ADD MSTORE PUSH2 0x19C4 PUSH0 RETURN INVALID PUSH1 0x80 PUSH1 0x40 MSTORE CALLVALUE DUP1 ISZERO PUSH2 0xF JUMPI PUSH0 DUP1 REVERT JUMPDEST POP PUSH1 0x4 CALLDATASIZE LT PUSH2 0x9C JUMPI PUSH0 CALLDATALOAD PUSH1 0xE0 SHR DUP1 PUSH4 0x40E58EE5 GT PUSH2 0x64 JUMPI DUP1 PUSH4 0x40E58EE5 EQ PUSH2 0x147 JUMPI DUP1 PUSH4 0x711853AB EQ PUSH2 0x163 JUMPI DUP1 PUSH4 0xAA4FB63A EQ PUSH2 0x17F JUMPI DUP1 PUSH4 0xFC0C546A EQ PUSH2 0x1AF JUMPI DUP1 PUSH4 0xFDE327BE EQ PUSH2 0x1CD JUMPI PUSH2 0x9C JUMP JUMPDEST DUP1 PUSH4 0x6661ABD EQ PUSH2 0xA0 JUMPI DUP1 PUSH4 0x141961BC EQ PUSH2 0xBE JUMPI DUP1 PUSH4 0x278ECDE1 EQ PUSH2 0xF3 JUMPI DUP1 PUSH4 0x2C63F146 EQ PUSH2 0x10F JUMPI DUP1 PUSH4 0x379607F5 EQ PUSH2 0x12B JUMPI JUMPDEST PUSH0 DUP1 REVERT JUMPDEST PUSH2 0xA8 PUSH2 0x1E9 JUMP JUMPDEST PUSH1 0x40 MLOAD PUSH2 0xB5 SWAP2 SWAP1 PUSH2 0x105B JUMP JUMPDEST PUSH1 0x40 MLOAD DUP1 SWAP2 SUB SWAP1 RETURN JUMPDEST PUSH2 0xD8 PUSH1 0x4 DUP1 CALLDATASIZE SUB DUP2 ADD SWAP1 PUSH2 0xD3 SWAP2 SWAP1 PUSH2 0x10A2 JUMP JUMPDEST PUSH2 0x1EE JUMP JUMPDEST PUSH1 0x40 MLOAD PUSH2 0xEA SWAP7 SWAP6 SWAP5 SWAP4 SWAP3 SWAP2 SWAP1 PUSH2 0x1126 JUMP JUMPDEST PUSH1 0x40 MLOAD DUP1 SWAP2 SUB SWAP1 RETURN JUMPDEST PUSH2 0x10D PUSH1 0x4 DUP1 CALLDATASIZE SUB DUP2 ADD SWAP1 PUSH2 0x108 SWAP2 SWAP1 PUSH2 0x10A2 JUMP JUMPDEST PUSH2 0x251 JUMP JUMPDEST STOP JUMPDEST PUSH2 0x129 PUSH1 0x4 DUP1 CALLDATASIZE SUB DUP2 ADD SWAP1 PUSH2 0x124 SWAP2 SWAP1 PUSH2 0x11BE JUMP JUMPDEST PUSH2 0x528 JUMP JUMPDEST STOP JUMPDEST PUSH2 0x145 PUSH1 0x4 DUP1 CALLDATASIZE SUB DUP2 ADD SWAP1 PUSH2 0x140 SWAP2 SWAP1 PUSH2 0x10A2 JUMP JUMPDEST PUSH2 0x77A JUMP JUMPDEST STOP JUMPDEST PUSH2 0x161 PUSH1 0x4 DUP1 CALLDATASIZE SUB DUP2 ADD SWAP1 PUSH2 0x15C SWAP2 SWAP1 PUSH2 0x10A2 JUMP JUMPDEST PUSH2 0xA19 JUMP JUMPDEST STOP JUMPDEST PUSH2 0x17D PUSH1 0x4 DUP1 CALLDATASIZE SUB DUP2 ADD SWAP1 PUSH2 0x178 SWAP2 SWAP1 PUSH2 0x120E JUMP JUMPDEST PUSH2 0xC28 JUMP JUMPDEST STOP JUMPDEST PUSH2 0x199 PUSH1 0x4 DUP1 CALLDATASIZE SUB DUP2 ADD SWAP1 PUSH2 0x194 SWAP2 SWAP1 PUSH2 0x1276 JUMP JUMPDEST PUSH2 0xDEF JUMP JUMPDEST PUSH1 0x40 MLOAD PUSH2 0x1A6 SWAP2 SWAP1 PUSH2 0x105B JUMP JUMPDEST PUSH1 0x40 MLOAD DUP1 SWAP2 SUB SWAP1 RETURN JUMPDEST PUSH2 0x1B7 PUSH2 0xE0F JUMP JUMPDEST PUSH1 0x40 MLOAD PUSH2 0x1C4 SWAP2 SWAP1 PUSH2 0x130F JUMP JUMPDEST PUSH1 0x40 MLOAD DUP1 SWAP2 SUB SWAP1 RETURN JUMPDEST PUSH2 0x1E7 PUSH1 0x4 DUP1 CALLDATASIZE SUB DUP2 ADD SWAP1 PUSH2 0x1E2 SWAP2 SWAP1 PUSH2 0x120E JUMP JUMPDEST PUSH2 0xE33 JUMP JUMPDEST STOP JUMPDEST PUSH0 SLOAD DUP2 JUMP JUMPDEST PUSH1 0x1 PUSH1 0x20 MSTORE DUP1 PUSH0 MSTORE PUSH1 0x40 PUSH0 KECCAK256 PUSH0 SWAP2 POP SWAP1 POP DUP1 PUSH0 ADD PUSH0 SWAP1 SLOAD SWAP1 PUSH2 0x100 EXP SWAP1 DIV PUSH20 0xFFFFFFFFFFFFFFFFFFFFFFFFFFFFFFFFFFFFFFFF AND SWAP1 DUP1 PUSH1 0x1 ADD SLOAD SWAP1 DUP1 PUSH1 0x2 ADD SLOAD SWAP1 DUP1 PUSH1 0x3 ADD SLOAD SWAP1 DUP1 PUSH1 0x4 ADD SLOAD SWAP1 DUP1 PUSH1 0x5 ADD PUSH0 SWAP1 SLOAD SWAP1 PUSH2 0x100 EXP SWAP1 DIV PUSH1 0xFF AND SWAP1 POP DUP7 JUMP JUMPDEST PUSH0 PUSH1 0x1 PUSH0 DUP4 DUP2 MSTORE PUSH1 0x20 ADD SWAP1 DUP2 MSTORE PUSH1 0x20 ADD PUSH0 KECCAK256 PUSH1 0x40 MLOAD DUP1 PUSH1 0xC0 ADD PUSH1 0x40 MSTORE SWAP1 DUP2 PUSH0 DUP3 ADD PUSH0 SWAP1 SLOAD SWAP1 PUSH2 0x100 EXP SWAP1 DIV PUSH20 0xFFFFFFFFFFFFFFFFFFFFFFFFFFFFFFFFFFFFFFFF AND PUSH20 0xFFFFFFFFFFFFFFFFFFFFFFFFFFFFFFFFFFFFFFFF AND PUSH20 0xFFFFFFFFFFFFFFFFFFFFFFFFFFFFFFFFFFFFFFFF AND DUP2 MSTORE PUSH1 0x20 ADD PUSH1 0x1 DUP3 ADD SLOAD DUP2 MSTORE PUSH1 0x20 ADD PUSH1 0x2 DUP3 ADD SLOAD DUP2 MSTORE PUSH1 0x20 ADD PUSH1 0x3 DUP3 ADD SLOAD DUP2 MSTORE PUSH1 0x20 ADD PUSH1 0x4 DUP3 ADD SLOAD DUP2 MSTORE PUSH1 0x20 ADD PUSH1 0x5 DUP3 ADD PUSH0 SWAP1 SLOAD SWAP1 PUSH2 0x100 EXP SWAP1 DIV PUSH1 0xFF AND ISZERO ISZERO ISZERO ISZERO DUP2 MSTORE POP POP SWAP1 POP DUP1 PUSH1 0x80 ADD MLOAD TIMESTAMP GT PUSH2 0x34C JUMPI PUSH1 0x40 MLOAD PUSH32 0x8C379A000000000000000000000000000000000000000000000000000000000 DUP2 MSTORE PUSH1 0x4 ADD PUSH2 0x343 SWAP1 PUSH2 0x1382 JUMP JUMPDEST PUSH1 0x40 MLOAD DUP1 SWAP2 SUB SWAP1 REVERT JUMPDEST DUP1 PUSH1 0x20 ADD MLOAD DUP2 PUSH1 0x40 ADD MLOAD LT PUSH2 0x396 JUMPI PUSH1 0x40 MLOAD PUSH32 0x8C379A000000000000000000000000000000000000000000000000000000000 DUP2 MSTORE PUSH1 0x4 ADD PUSH2 0x38D SWAP1 PUSH2 0x13EA JUMP JUMPDEST PUSH1 0x40 MLOAD DUP1 SWAP2 SUB SWAP1 REVERT JUMPDEST PUSH0 PUSH1 0x2 PUSH0 DUP5 DUP2 MSTORE PUSH1 0x20 ADD SWAP1 DUP2 MSTORE PUSH1 0x20 ADD PUSH0 KECCAK256 PUSH0 CALLER PUSH20 0xFFFFFFFFFFFFFFFFFFFFFFFFFFFFFFFFFFFFFFFF AND PUSH20 0xFFFFFFFFFFFFFFFFFFFFFFFFFFFFFFFFFFFFFFFF AND DUP2 MSTORE PUSH1 0x20 ADD SWAP1 DUP2 MSTORE PUSH1 0x20 ADD PUSH0 KECCAK256 SLOAD SWAP1 POP PUSH0 PUSH1 0x2 PUSH0 DUP6 DUP2 MSTORE PUSH1 0x20 ADD SWAP1 DUP2 MSTORE PUSH1 0x20 ADD PUSH0 KECCAK256 PUSH0 CALLER PUSH20 0xFFFFFFFFFFFFFFFFFFFFFFFFFFFFFFFFFFFFFFFF AND PUSH20 0xFFFFFFFFFFFFFFFFFFFFFFFFFFFFFFFFFFFFFFFF AND DUP2 MSTORE PUSH1 0x20 ADD SWAP1 DUP2 MSTORE PUSH1 0x20 ADD PUSH0 KECCAK256 DUP2 SWAP1 SSTORE POP PUSH32 0x0 PUSH20 0xFFFFFFFFFFFFFFFFFFFFFFFFFFFFFFFFFFFFFFFF AND PUSH4 0xA9059CBB CALLER DUP4 PUSH1 0x40 MLOAD DUP4 PUSH4 0xFFFFFFFF AND PUSH1 0xE0 SHL DUP2 MSTORE PUSH1 0x4 ADD PUSH2 0x492 SWAP3 SWAP2 SWAP1 PUSH2 0x1408 JUMP JUMPDEST PUSH1 0x20 PUSH1 0x40 MLOAD DUP1 DUP4 SUB DUP2 PUSH0 DUP8 GAS CALL ISZERO DUP1 ISZERO PUSH2 0x4AE JUMPI RETURNDATASIZE PUSH0 DUP1 RETURNDATACOPY RETURNDATASIZE PUSH0 REVERT JUMPDEST POP POP POP POP PUSH1 0x40 MLOAD RETURNDATASIZE PUSH1 0x1F NOT PUSH1 0x1F DUP3 ADD AND DUP3 ADD DUP1 PUSH1 0x40 MSTORE POP DUP2 ADD SWAP1 PUSH2 0x4D2 SWAP2 SWAP1 PUSH2 0x1459 JUMP JUMPDEST POP CALLER PUSH20 0xFFFFFFFFFFFFFFFFFFFFFFFFFFFFFFFFFFFFFFFF AND PUSH32 0x21E12A7CAD0DA5928167E1084EA4D5FDF8D9AF66657A2543A9AC76A0CA081477 DUP5 DUP4 PUSH1 0x40 MLOAD PUSH2 0x51B SWAP3 SWAP2 SWAP1 PUSH2 0x1484 JUMP JUMPDEST PUSH1 0x40 MLOAD DUP1 SWAP2 SUB SWAP1 LOG2 POP POP POP JUMP JUMPDEST TIMESTAMP DUP3 PUSH4 0xFFFFFFFF AND LT ISZERO PUSH2 0x571 JUMPI PUSH1 0x40 MLOAD PUSH32 0x8C379A000000000000000000000000000000000000000000000000000000000 DUP2 MSTORE PUSH1 0x4 ADD PUSH2 0x568 SWAP1 PUSH2 0x14F5 JUMP JUMPDEST PUSH1 0x40 MLOAD DUP1 SWAP2 SUB SWAP1 REVERT JUMPDEST DUP2 PUSH4 0xFFFFFFFF AND DUP2 PUSH4 0xFFFFFFFF AND LT ISZERO PUSH2 0x5C0 JUMPI PUSH1 0x40 MLOAD PUSH32 0x8C379A000000000000000000000000000000000000000000000000000000000 DUP2 MSTORE PUSH1 0x4 ADD PUSH2 0x5B7 SWAP1 PUSH2 0x155D JUMP JUMPDEST PUSH1 0x40 MLOAD DUP1 SWAP2 SUB SWAP1 REVERT JUMPDEST PUSH3 0x76A700 TIMESTAMP PUSH2 0x5CF SWAP2 SWAP1 PUSH2 0x15A8 JUMP JUMPDEST DUP2 PUSH4 0xFFFFFFFF AND GT ISZERO PUSH2 0x617 JUMPI PUSH1 0x40 MLOAD PUSH32 0x8C379A000000000000000000000000000000000000000000000000000000000 DUP2 MSTORE PUSH1 0x4 ADD PUSH2 0x60E SWAP1 PUSH2 0x1625 JUMP JUMPDEST PUSH1 0x40 MLOAD DUP1 SWAP2 SUB SWAP1 REVERT JUMPDEST PUSH1 0x1 PUSH0 DUP1 DUP3 DUP3 SLOAD PUSH2 0x628 SWAP2 SWAP1 PUSH2 0x15A8 JUMP JUMPDEST SWAP3 POP POP DUP2 SWAP1 SSTORE POP PUSH1 0x40 MLOAD DUP1 PUSH1 0xC0 ADD PUSH1 0x40 MSTORE DUP1 CALLER PUSH20 0xFFFFFFFFFFFFFFFFFFFFFFFFFFFFFFFFFFFFFFFF AND DUP2 MSTORE PUSH1 0x20 ADD DUP5 DUP2 MSTORE PUSH1 0x20 ADD PUSH0 DUP2 MSTORE PUSH1 0x20 ADD DUP4 PUSH4 0xFFFFFFFF AND DUP2 MSTORE PUSH1 0x20 ADD DUP3 PUSH4 0xFFFFFFFF AND DUP2 MSTORE PUSH1 0x20 ADD PUSH0 ISZERO ISZERO DUP2 MSTORE POP PUSH1 0x1 PUSH0 DUP1 SLOAD DUP2 MSTORE PUSH1 0x20 ADD SWAP1 DUP2 MSTORE PUSH1 0x20 ADD PUSH0 KECCAK256 PUSH0 DUP3 ADD MLOAD DUP2 PUSH0 ADD PUSH0 PUSH2 0x100 EXP DUP2 SLOAD DUP2 PUSH20 0xFFFFFFFFFFFFFFFFFFFFFFFFFFFFFFFFFFFFFFFF MUL NOT AND SWAP1 DUP4 PUSH20 0xFFFFFFFFFFFFFFFFFFFFFFFFFFFFFFFFFFFFFFFF AND MUL OR SWAP1 SSTORE POP PUSH1 0x20 DUP3 ADD MLOAD DUP2 PUSH1 0x1 ADD SSTORE PUSH1 0x40 DUP3 ADD MLOAD DUP2 PUSH1 0x2 ADD SSTORE PUSH1 0x60 DUP3 ADD MLOAD DUP2 PUSH1 0x3 ADD SSTORE PUSH1 0x80 DUP3 ADD MLOAD DUP2 PUSH1 0x4 ADD SSTORE PUSH1 0xA0 DUP3 ADD MLOAD DUP2 PUSH1 0x5 ADD PUSH0 PUSH2 0x100 EXP DUP2 SLOAD DUP2 PUSH1 0xFF MUL NOT AND SWAP1 DUP4 ISZERO ISZERO MUL OR SWAP1 SSTORE POP SWAP1 POP POP CALLER PUSH20 0xFFFFFFFFFFFFFFFFFFFFFFFFFFFFFFFFFFFFFFFF AND PUSH32 0xC9142A9424EB889EB9F9493AEB5B3B9FFFFE3E32C9361BD725D709F6B28B91B1 PUSH0 SLOAD DUP6 DUP6 DUP6 PUSH1 0x40 MLOAD PUSH2 0x76D SWAP5 SWAP4 SWAP3 SWAP2 SWAP1 PUSH2 0x1673 JUMP JUMPDEST PUSH1 0x40 MLOAD DUP1 SWAP2 SUB SWAP1 LOG2 POP POP POP JUMP JUMPDEST PUSH0 PUSH1 0x1 PUSH0 DUP4 DUP2 MSTORE PUSH1 0x20 ADD SWAP1 DUP2 MSTORE PUSH1 0x20 ADD PUSH0 KECCAK256 SWAP1 POP CALLER PUSH20 0xFFFFFFFFFFFFFFFFFFFFFFFFFFFFFFFFFFFFFFFF AND DUP2 PUSH0 ADD PUSH0 SWAP1 SLOAD SWAP1 PUSH2 0x100 EXP SWAP1 DIV PUSH20 0xFFFFFFFFFFFFFFFFFFFFFFFFFFFFFFFFFFFFFFFF AND PUSH20 0xFFFFFFFFFFFFFFFFFFFFFFFFFFFFFFFFFFFFFFFF AND EQ PUSH2 0x81E JUMPI PUSH1 0x40 MLOAD PUSH32 0x8C379A000000000000000000000000000000000000000000000000000000000 DUP2 MSTORE PUSH1 0x4 ADD PUSH2 0x815 SWAP1 PUSH2 0x1700 JUMP JUMPDEST PUSH1 0x40 MLOAD DUP1 SWAP2 SUB SWAP1 REVERT JUMPDEST DUP1 PUSH1 0x4 ADD SLOAD TIMESTAMP GT PUSH2 0x864 JUMPI PUSH1 0x40 MLOAD PUSH32 0x8C379A000000000000000000000000000000000000000000000000000000000 DUP2 MSTORE PUSH1 0x4 ADD PUSH2 0x85B SWAP1 PUSH2 0x1382 JUMP JUMPDEST PUSH1 0x40 MLOAD DUP1 SWAP2 SUB SWAP1 REVERT JUMPDEST DUP1 PUSH1 0x1 ADD SLOAD DUP2 PUSH1 0x2 ADD SLOAD LT ISZERO PUSH2 0x8AF JUMPI PUSH1 0x40 MLOAD PUSH32 0x8C379A000000000000000000000000000000000000000000000000000000000 DUP2 MSTORE PUSH1 0x4 ADD PUSH2 0x8A6 SWAP1 PUSH2 0x1768 JUMP JUMPDEST PUSH1 0x40 MLOAD DUP1 SWAP2 SUB SWAP1 REVERT JUMPDEST DUP1 PUSH1 0x5 ADD PUSH0 SWAP1 SLOAD SWAP1 PUSH2 0x100 EXP SWAP1 DIV PUSH1 0xFF AND ISZERO PUSH2 0x900 JUMPI PUSH1 0x40 MLOAD PUSH32 0x8C379A000000000000000000000000000000000000000000000000000000000 DUP2 MSTORE PUSH1 0x4 ADD PUSH2 0x8F7 SWAP1 PUSH2 0x17D0 JUMP JUMPDEST PUSH1 0x40 MLOAD DUP1 SWAP2 SUB SWAP1 REVERT JUMPDEST PUSH1 0x1 DUP2 PUSH1 0x5 ADD PUSH0 PUSH2 0x100 EXP DUP2 SLOAD DUP2 PUSH1 0xFF MUL NOT AND SWAP1 DUP4 ISZERO ISZERO MUL OR SWAP1 SSTORE POP PUSH32 0x0 PUSH20 0xFFFFFFFFFFFFFFFFFFFFFFFFFFFFFFFFFFFFFFFF AND PUSH4 0xA9059CBB DUP3 PUSH0 ADD PUSH0 SWAP1 SLOAD SWAP1 PUSH2 0x100 EXP SWAP1 DIV PUSH20 0xFFFFFFFFFFFFFFFFFFFFFFFFFFFFFFFFFFFFFFFF AND DUP4 PUSH1 0x2 ADD SLOAD PUSH1 0x40 MLOAD DUP4 PUSH4 0xFFFFFFFF AND PUSH1 0xE0 SHL DUP2 MSTORE PUSH1 0x4 ADD PUSH2 0x99D SWAP3 SWAP2 SWAP1 PUSH2 0x1408 JUMP JUMPDEST PUSH1 0x20 PUSH1 0x40 MLOAD DUP1 DUP4 SUB DUP2 PUSH0 DUP8 GAS CALL ISZERO DUP1 ISZERO PUSH2 0x9B9 JUMPI RETURNDATASIZE PUSH0 DUP1 RETURNDATACOPY RETURNDATASIZE PUSH0 REVERT JUMPDEST POP POP POP POP PUSH1 0x40 MLOAD RETURNDATASIZE PUSH1 0x1F NOT PUSH1 0x1F DUP3 ADD AND DUP3 ADD DUP1 PUSH1 0x40 MSTORE POP DUP2 ADD SWAP1 PUSH2 0x9DD SWAP2 SWAP1 PUSH2 0x1459 JUMP JUMPDEST POP PUSH32 0x7BB2B3C10797BACCB6F8C4791F1EDD6CA2F0D028EE0EDA64B01A9A57E3A653F7 DUP3 PUSH1 0x40 MLOAD PUSH2 0xA0D SWAP2 SWAP1 PUSH2 0x105B JUMP JUMPDEST PUSH1 0x40 MLOAD DUP1 SWAP2 SUB SWAP1 LOG1 POP POP JUMP JUMPDEST PUSH0 PUSH1 0x1 PUSH0 DUP4 DUP2 MSTORE PUSH1 0x20 ADD SWAP1 DUP2 MSTORE PUSH1 0x20 ADD PUSH0 KECCAK256 PUSH1 0x40 MLOAD DUP1 PUSH1 0xC0 ADD PUSH1 0x40 MSTORE SWAP1 DUP2 PUSH0 DUP3 ADD PUSH0 SWAP1 SLOAD SWAP1 PUSH2 0x100 EXP SWAP1 DIV PUSH20 0xFFFFFFFFFFFFFFFFFFFFFFFFFFFFFFFFFFFFFFFF AND PUSH20 0xFFFFFFFFFFFFFFFFFFFFFFFFFFFFFFFFFFFFFFFF AND PUSH20 0xFFFFFFFFFFFFFFFFFFFFFFFFFFFFFFFFFFFFFFFF AND DUP2 MSTORE PUSH1 0x20 ADD PUSH1 0x1 DUP3 ADD SLOAD DUP2 MSTORE PUSH1 0x20 ADD PUSH1 0x2 DUP3 ADD SLOAD DUP2 MSTORE PUSH1 0x20 ADD PUSH1 0x3 DUP3 ADD SLOAD DUP2 MSTORE PUSH1 0x20 ADD PUSH1 0x4 DUP3 ADD SLOAD DUP2 MSTORE PUSH1 0x20 ADD PUSH1 0x5 DUP3 ADD PUSH0 SWAP1 SLOAD SWAP1 PUSH2 0x100 EXP SWAP1 DIV PUSH1 0xFF AND ISZERO ISZERO ISZERO ISZERO DUP2 MSTORE POP POP SWAP1 POP CALLER PUSH20 0xFFFFFFFFFFFFFFFFFFFFFFFFFFFFFFFFFFFFFFFF AND DUP2 PUSH0 ADD MLOAD PUSH20 0xFFFFFFFFFFFFFFFFFFFFFFFFFFFFFFFFFFFFFFFF AND EQ PUSH2 0xB3F JUMPI PUSH1 0x40 MLOAD PUSH32 0x8C379A000000000000000000000000000000000000000000000000000000000 DUP2 MSTORE PUSH1 0x4 ADD PUSH2 0xB36 SWAP1 PUSH2 0x1700 JUMP JUMPDEST PUSH1 0x40 MLOAD DUP1 SWAP2 SUB SWAP1 REVERT JUMPDEST DUP1 PUSH1 0x60 ADD MLOAD TIMESTAMP LT PUSH2 0xB85 JUMPI PUSH1 0x40 MLOAD PUSH32 0x8C379A000000000000000000000000000000000000000000000000000000000 DUP2 MSTORE PUSH1 0x4 ADD PUSH2 0xB7C SWAP1 PUSH2 0x1838 JUMP JUMPDEST PUSH1 0x40 MLOAD DUP1 SWAP2 SUB SWAP1 REVERT JUMPDEST PUSH1 0x1 PUSH0 DUP4 DUP2 MSTORE PUSH1 0x20 ADD SWAP1 DUP2 MSTORE PUSH1 0x20 ADD PUSH0 KECCAK256 PUSH0 DUP1 DUP3 ADD PUSH0 PUSH2 0x100 EXP DUP2 SLOAD SWAP1 PUSH20 0xFFFFFFFFFFFFFFFFFFFFFFFFFFFFFFFFFFFFFFFF MUL NOT AND SWAP1 SSTORE PUSH1 0x1 DUP3 ADD PUSH0 SWAP1 SSTORE PUSH1 0x2 DUP3 ADD PUSH0 SWAP1 SSTORE PUSH1 0x3 DUP3 ADD PUSH0 SWAP1 SSTORE PUSH1 0x4 DUP3 ADD PUSH0 SWAP1 SSTORE PUSH1 0x5 DUP3 ADD PUSH0 PUSH2 0x100 EXP DUP2 SLOAD SWAP1 PUSH1 0xFF MUL NOT AND SWAP1 SSTORE POP POP PUSH32 0x8BF30E7FF26833413BE5F69E1D373744864D600B664204B4A2F9844A8EEDB9ED DUP3 PUSH1 0x40 MLOAD PUSH2 0xC1C SWAP2 SWAP1 PUSH2 0x105B JUMP JUMPDEST PUSH1 0x40 MLOAD DUP1 SWAP2 SUB SWAP1 LOG1 POP POP JUMP JUMPDEST PUSH0 PUSH1 0x1 PUSH0 DUP5 DUP2 MSTORE PUSH1 0x20 ADD SWAP1 DUP2 MSTORE PUSH1 0x20 ADD PUSH0 KECCAK256 SWAP1 POP DUP1 PUSH1 0x4 ADD SLOAD TIMESTAMP GT ISZERO PUSH2 0xC83 JUMPI PUSH1 0x40 MLOAD PUSH32 0x8C379A000000000000000000000000000000000000000000000000000000000 DUP2 MSTORE PUSH1 0x4 ADD PUSH2 0xC7A SWAP1 PUSH2 0x18A0 JUMP JUMPDEST PUSH1 0x40 MLOAD DUP1 SWAP2 SUB SWAP1 REVERT JUMPDEST DUP2 DUP2 PUSH1 0x2 ADD PUSH0 DUP3 DUP3 SLOAD PUSH2 0xC96 SWAP2 SWAP1 PUSH2 0x18BE JUMP JUMPDEST SWAP3 POP POP DUP2 SWAP1 SSTORE POP DUP2 PUSH1 0x2 PUSH0 DUP6 DUP2 MSTORE PUSH1 0x20 ADD SWAP1 DUP2 MSTORE PUSH1 0x20 ADD PUSH0 KECCAK256 PUSH0 CALLER PUSH20 0xFFFFFFFFFFFFFFFFFFFFFFFFFFFFFFFFFFFFFFFF AND PUSH20 0xFFFFFFFFFFFFFFFFFFFFFFFFFFFFFFFFFFFFFFFF AND DUP2 MSTORE PUSH1 0x20 ADD SWAP1 DUP2 MSTORE PUSH1 0x20 ADD PUSH0 KECCAK256 PUSH0 DUP3 DUP3 SLOAD PUSH2 0xCF8 SWAP2 SWAP1 PUSH2 0x18BE JUMP JUMPDEST SWAP3 POP POP DUP2 SWAP1 SSTORE POP PUSH32 0x0 PUSH20 0xFFFFFFFFFFFFFFFFFFFFFFFFFFFFFFFFFFFFFFFF AND PUSH4 0xA9059CBB CALLER DUP5 PUSH1 0x40 MLOAD DUP4 PUSH4 0xFFFFFFFF AND PUSH1 0xE0 SHL DUP2 MSTORE PUSH1 0x4 ADD PUSH2 0xD5A SWAP3 SWAP2 SWAP1 PUSH2 0x1408 JUMP JUMPDEST PUSH1 0x20 PUSH1 0x40 MLOAD DUP1 DUP4 SUB DUP2 PUSH0 DUP8 GAS CALL ISZERO DUP1 ISZERO PUSH2 0xD76 JUMPI RETURNDATASIZE PUSH0 DUP1 RETURNDATACOPY RETURNDATASIZE PUSH0 REVERT JUMPDEST POP POP POP POP PUSH1 0x40 MLOAD RETURNDATASIZE PUSH1 0x1F NOT PUSH1 0x1F DUP3 ADD AND DUP3 ADD DUP1 PUSH1 0x40 MSTORE POP DUP2 ADD SWAP1 PUSH2 0xD9A SWAP2 SWAP1 PUSH2 0x1459 JUMP JUMPDEST POP CALLER PUSH20 0xFFFFFFFFFFFFFFFFFFFFFFFFFFFFFFFFFFFFFFFF AND DUP4 PUSH32 0x2EEEAB891B26A214D1B25749F88A406BDEA852BD8C9BFDA977E0EF8114C180BA DUP5 PUSH1 0x40 MLOAD PUSH2 0xDE2 SWAP2 SWAP1 PUSH2 0x105B JUMP JUMPDEST PUSH1 0x40 MLOAD DUP1 SWAP2 SUB SWAP1 LOG3 POP POP POP JUMP JUMPDEST PUSH1 0x2 PUSH1 0x20 MSTORE DUP2 PUSH0 MSTORE PUSH1 0x40 PUSH0 KECCAK256 PUSH1 0x20 MSTORE DUP1 PUSH0 MSTORE PUSH1 0x40 PUSH0 KECCAK256 PUSH0 SWAP2 POP SWAP2 POP POP SLOAD DUP2 JUMP JUMPDEST PUSH32 0x0 DUP2 JUMP JUMPDEST PUSH0 PUSH1 0x1 PUSH0 DUP5 DUP2 MSTORE PUSH1 0x20 ADD SWAP1 DUP2 MSTORE PUSH1 0x20 ADD PUSH0 KECCAK256 SWAP1 POP DUP1 PUSH1 0x3 ADD SLOAD TIMESTAMP LT ISZERO PUSH2 0xE8E JUMPI PUSH1 0x40 MLOAD PUSH32 0x8C379A000000000000000000000000000000000000000000000000000000000 DUP2 MSTORE PUSH1 0x4 ADD PUSH2 0xE85 SWAP1 PUSH2 0x193B JUMP JUMPDEST PUSH1 0x40 MLOAD DUP1 SWAP2 SUB SWAP1 REVERT JUMPDEST DUP1 PUSH1 0x4 ADD SLOAD TIMESTAMP GT ISZERO PUSH2 0xED5 JUMPI PUSH1 0x40 MLOAD PUSH32 0x8C379A000000000000000000000000000000000000000000000000000000000 DUP2 MSTORE PUSH1 0x4 ADD PUSH2 0xECC SWAP1 PUSH2 0x18A0 JUMP JUMPDEST PUSH1 0x40 MLOAD DUP1 SWAP2 SUB SWAP1 REVERT JUMPDEST DUP2 DUP2 PUSH1 0x2 ADD PUSH0 DUP3 DUP3 SLOAD PUSH2 0xEE8 SWAP2 SWAP1 PUSH2 0x15A8 JUMP JUMPDEST SWAP3 POP POP DUP2 SWAP1 SSTORE POP DUP2 PUSH1 0x2 PUSH0 DUP6 DUP2 MSTORE PUSH1 0x20 ADD SWAP1 DUP2 MSTORE PUSH1 0x20 ADD PUSH0 KECCAK256 PUSH0 CALLER PUSH20 0xFFFFFFFFFFFFFFFFFFFFFFFFFFFFFFFFFFFFFFFF AND PUSH20 0xFFFFFFFFFFFFFFFFFFFFFFFFFFFFFFFFFFFFFFFF AND DUP2 MSTORE PUSH1 0x20 ADD SWAP1 DUP2 MSTORE PUSH1 0x20 ADD PUSH0 KECCAK256 PUSH0 DUP3 DUP3 SLOAD PUSH2 0xF4A SWAP2 SWAP1 PUSH2 0x15A8 JUMP JUMPDEST SWAP3 POP POP DUP2 SWAP1 SSTORE POP PUSH32 0x0 PUSH20 0xFFFFFFFFFFFFFFFFFFFFFFFFFFFFFFFFFFFFFFFF AND PUSH4 0x23B872DD CALLER ADDRESS DUP6 PUSH1 0x40 MLOAD DUP5 PUSH4 0xFFFFFFFF AND PUSH1 0xE0 SHL DUP2 MSTORE PUSH1 0x4 ADD PUSH2 0xFAE SWAP4 SWAP3 SWAP2 SWAP1 PUSH2 0x1959 JUMP JUMPDEST PUSH1 0x20 PUSH1 0x40 MLOAD DUP1 DUP4 SUB DUP2 PUSH0 DUP8 GAS CALL ISZERO DUP1 ISZERO PUSH2 0xFCA JUMPI RETURNDATASIZE PUSH0 DUP1 RETURNDATACOPY RETURNDATASIZE PUSH0 REVERT JUMPDEST POP POP POP POP PUSH1 0x40 MLOAD RETURNDATASIZE PUSH1 0x1F NOT PUSH1 0x1F DUP3 ADD AND DUP3 ADD DUP1 PUSH1 0x40 MSTORE POP DUP2 ADD SWAP1 PUSH2 0xFEE SWAP2 SWAP1 PUSH2 0x1459 JUMP JUMPDEST POP CALLER PUSH20 0xFFFFFFFFFFFFFFFFFFFFFFFFFFFFFFFFFFFFFFFF AND DUP4 PUSH32 0x6BDB975DF800A73232998E71ED585D536222F1DFEAA622D7F62A23ADA686C82 DUP5 PUSH1 0x40 MLOAD PUSH2 0x1036 SWAP2 SWAP1 PUSH2 0x105B JUMP JUMPDEST PUSH1 0x40 MLOAD DUP1 SWAP2 SUB SWAP1 LOG3 POP POP POP JUMP JUMPDEST PUSH0 DUP2 SWAP1 POP SWAP2 SWAP1 POP JUMP JUMPDEST PUSH2 0x1055 DUP2 PUSH2 0x1043 JUMP JUMPDEST DUP3 MSTORE POP POP JUMP JUMPDEST PUSH0 PUSH1 0x20 DUP3 ADD SWAP1 POP PUSH2 0x106E PUSH0 DUP4 ADD DUP5 PUSH2 0x104C JUMP JUMPDEST SWAP3 SWAP2 POP POP JUMP JUMPDEST PUSH0 DUP1 REVERT JUMPDEST PUSH2 0x1081 DUP2 PUSH2 0x1043 JUMP JUMPDEST DUP2 EQ PUSH2 0x108B JUMPI PUSH0 DUP1 REVERT JUMPDEST POP JUMP JUMPDEST PUSH0 DUP2 CALLDATALOAD SWAP1 POP PUSH2 0x109C DUP2 PUSH2 0x1078 JUMP JUMPDEST SWAP3 SWAP2 POP POP JUMP JUMPDEST PUSH0 PUSH1 0x20 DUP3 DUP5 SUB SLT ISZERO PUSH2 0x10B7 JUMPI PUSH2 0x10B6 PUSH2 0x1074 JUMP JUMPDEST JUMPDEST PUSH0 PUSH2 0x10C4 DUP5 DUP3 DUP6 ADD PUSH2 0x108E JUMP JUMPDEST SWAP2 POP POP SWAP3 SWAP2 POP POP JUMP JUMPDEST PUSH0 PUSH20 0xFFFFFFFFFFFFFFFFFFFFFFFFFFFFFFFFFFFFFFFF DUP3 AND SWAP1 POP SWAP2 SWAP1 POP JUMP JUMPDEST PUSH0 PUSH2 0x10F6 DUP3 PUSH2 0x10CD JUMP JUMPDEST SWAP1 POP SWAP2 SWAP1 POP JUMP JUMPDEST PUSH2 0x1106 DUP2 PUSH2 0x10EC JUMP JUMPDEST DUP3 MSTORE POP POP JUMP JUMPDEST PUSH0 DUP2 ISZERO ISZERO SWAP1 POP SWAP2 SWAP1 POP JUMP JUMPDEST PUSH2 0x1120 DUP2 PUSH2 0x110C JUMP JUMPDEST DUP3 MSTORE POP POP JUMP JUMPDEST PUSH0 PUSH1 0xC0 DUP3 ADD SWAP1 POP PUSH2 0x1139 PUSH0 DUP4 ADD DUP10 PUSH2 0x10FD JUMP JUMPDEST PUSH2 0x1146 PUSH1 0x20 DUP4 ADD DUP9 PUSH2 0x104C JUMP JUMPDEST PUSH2 0x1153 PUSH1 0x40 DUP4 ADD DUP8 PUSH2 0x104C JUMP JUMPDEST PUSH2 0x1160 PUSH1 0x60 DUP4 ADD DUP7 PUSH2 0x104C JUMP JUMPDEST PUSH2 0x116D PUSH1 0x80 DUP4 ADD DUP6 PUSH2 0x104C JUMP JUMPDEST PUSH2 0x117A PUSH1 0xA0 DUP4 ADD DUP5 PUSH2 0x1117 JUMP JUMPDEST SWAP8 SWAP7 POP POP POP POP POP POP POP JUMP JUMPDEST PUSH0 PUSH4 0xFFFFFFFF DUP3 AND SWAP1 POP SWAP2 SWAP1 POP JUMP JUMPDEST PUSH2 0x119D DUP2 PUSH2 0x1185 JUMP JUMPDEST DUP2 EQ PUSH2 0x11A7 JUMPI PUSH0 DUP1 REVERT JUMPDEST POP JUMP JUMPDEST PUSH0 DUP2 CALLDATALOAD SWAP1 POP PUSH2 0x11B8 DUP2 PUSH2 0x1194 JUMP JUMPDEST SWAP3 SWAP2 POP POP JUMP JUMPDEST PUSH0 DUP1 PUSH0 PUSH1 0x60 DUP5 DUP7 SUB SLT ISZERO PUSH2 0x11D5 JUMPI PUSH2 0x11D4 PUSH2 0x1074 JUMP JUMPDEST JUMPDEST PUSH0 PUSH2 0x11E2 DUP7 DUP3 DUP8 ADD PUSH2 0x108E JUMP JUMPDEST SWAP4 POP POP PUSH1 0x20 PUSH2 0x11F3 DUP7 DUP3 DUP8 ADD PUSH2 0x11AA JUMP JUMPDEST SWAP3 POP POP PUSH1 0x40 PUSH2 0x1204 DUP7 DUP3 DUP8 ADD PUSH2 0x11AA JUMP JUMPDEST SWAP2 POP POP SWAP3 POP SWAP3 POP SWAP3 JUMP JUMPDEST PUSH0 DUP1 PUSH1 0x40 DUP4 DUP6 SUB SLT ISZERO PUSH2 0x1224 JUMPI PUSH2 0x1223 PUSH2 0x1074 JUMP JUMPDEST JUMPDEST PUSH0 PUSH2 0x1231 DUP6 DUP3 DUP7 ADD PUSH2 0x108E JUMP JUMPDEST SWAP3 POP POP PUSH1 0x20 PUSH2 0x1242 DUP6 DUP3 DUP7 ADD PUSH2 0x108E JUMP JUMPDEST SWAP2 POP POP SWAP3 POP SWAP3 SWAP1 POP JUMP JUMPDEST PUSH2 0x1255 DUP2 PUSH2 0x10EC JUMP JUMPDEST DUP2 EQ PUSH2 0x125F JUMPI PUSH0 DUP1 REVERT JUMPDEST POP JUMP JUMPDEST PUSH0 DUP2 CALLDATALOAD SWAP1 POP PUSH2 0x1270 DUP2 PUSH2 0x124C JUMP JUMPDEST SWAP3 SWAP2 POP POP JUMP JUMPDEST PUSH0 DUP1 PUSH1 0x40 DUP4 DUP6 SUB SLT ISZERO PUSH2 0x128C JUMPI PUSH2 0x128B PUSH2 0x1074 JUMP JUMPDEST JUMPDEST PUSH0 PUSH2 0x1299 DUP6 DUP3 DUP7 ADD PUSH2 0x108E JUMP JUMPDEST SWAP3 POP POP PUSH1 0x20 PUSH2 0x12AA DUP6 DUP3 DUP7 ADD PUSH2 0x1262 JUMP JUMPDEST SWAP2 POP POP SWAP3 POP SWAP3 SWAP1 POP JUMP JUMPDEST PUSH0 DUP2 SWAP1 POP SWAP2 SWAP1 POP JUMP JUMPDEST PUSH0 PUSH2 0x12D7 PUSH2 0x12D2 PUSH2 0x12CD DUP5 PUSH2 0x10CD JUMP JUMPDEST PUSH2 0x12B4 JUMP JUMPDEST PUSH2 0x10CD JUMP JUMPDEST SWAP1 POP SWAP2 SWAP1 POP JUMP JUMPDEST PUSH0 PUSH2 0x12E8 DUP3 PUSH2 0x12BD JUMP JUMPDEST SWAP1 POP SWAP2 SWAP1 POP JUMP JUMPDEST PUSH0 PUSH2 0x12F9 DUP3 PUSH2 0x12DE JUMP JUMPDEST SWAP1 POP SWAP2 SWAP1 POP JUMP JUMPDEST PUSH2 0x1309 DUP2 PUSH2 0x12EF JUMP JUMPDEST DUP3 MSTORE POP POP JUMP JUMPDEST PUSH0 PUSH1 0x20 DUP3 ADD SWAP1 POP PUSH2 0x1322 PUSH0 DUP4 ADD DUP5 PUSH2 0x1300 JUMP JUMPDEST SWAP3 SWAP2 POP POP JUMP JUMPDEST PUSH0 DUP3 DUP3 MSTORE PUSH1 0x20 DUP3 ADD SWAP1 POP SWAP3 SWAP2 POP POP JUMP JUMPDEST PUSH32 0x6E6F7420656E6465640000000000000000000000000000000000000000000000 PUSH0 DUP3 ADD MSTORE POP JUMP JUMPDEST PUSH0 PUSH2 0x136C PUSH1 0x9 DUP4 PUSH2 0x1328 JUMP JUMPDEST SWAP2 POP PUSH2 0x1377 DUP3 PUSH2 0x1338 JUMP JUMPDEST PUSH1 0x20 DUP3 ADD SWAP1 POP SWAP2 SWAP1 POP JUMP JUMPDEST PUSH0 PUSH1 0x20 DUP3 ADD SWAP1 POP DUP2 DUP2 SUB PUSH0 DUP4 ADD MSTORE PUSH2 0x1399 DUP2 PUSH2 0x1360 JUMP JUMPDEST SWAP1 POP SWAP2 SWAP1 POP JUMP JUMPDEST PUSH32 0x706C6564676564203E3D20676F616C0000000000000000000000000000000000 PUSH0 DUP3 ADD MSTORE POP JUMP JUMPDEST PUSH0 PUSH2 0x13D4 PUSH1 0xF DUP4 PUSH2 0x1328 JUMP JUMPDEST SWAP2 POP PUSH2 0x13DF DUP3 PUSH2 0x13A0 JUMP JUMPDEST PUSH1 0x20 DUP3 ADD SWAP1 POP SWAP2 SWAP1 POP JUMP JUMPDEST PUSH0 PUSH1 0x20 DUP3 ADD SWAP1 POP DUP2 DUP2 SUB PUSH0 DUP4 ADD MSTORE PUSH2 0x1401 DUP2 PUSH2 0x13C8 JUMP JUMPDEST SWAP1 POP SWAP2 SWAP1 POP JUMP JUMPDEST PUSH0 PUSH1 0x40 DUP3 ADD SWAP1 POP PUSH2 0x141B PUSH0 DUP4 ADD DUP6 PUSH2 0x10FD JUMP JUMPDEST PUSH2 0x1428 PUSH1 0x20 DUP4 ADD DUP5 PUSH2 0x104C JUMP JUMPDEST SWAP4 SWAP3 POP POP POP JUMP JUMPDEST PUSH2 0x1438 DUP2 PUSH2 0x110C JUMP JUMPDEST DUP2 EQ PUSH2 0x1442 JUMPI PUSH0 DUP1 REVERT JUMPDEST POP JUMP JUMPDEST PUSH0 DUP2 MLOAD SWAP1 POP PUSH2 0x1453 DUP2 PUSH2 0x142F JUMP JUMPDEST SWAP3 SWAP2 POP POP JUMP JUMPDEST PUSH0 PUSH1 0x20 DUP3 DUP5 SUB SLT ISZERO PUSH2 0x146E JUMPI PUSH2 0x146D PUSH2 0x1074 JUMP JUMPDEST JUMPDEST PUSH0 PUSH2 0x147B DUP5 DUP3 DUP6 ADD PUSH2 0x1445 JUMP JUMPDEST SWAP2 POP POP SWAP3 SWAP2 POP POP JUMP JUMPDEST PUSH0 PUSH1 0x40 DUP3 ADD SWAP1 POP PUSH2 0x1497 PUSH0 DUP4 ADD DUP6 PUSH2 0x104C JUMP JUMPDEST PUSH2 0x14A4 PUSH1 0x20 DUP4 ADD DUP5 PUSH2 0x104C JUMP JUMPDEST SWAP4 SWAP3 POP POP POP JUMP JUMPDEST PUSH32 0x7374617274206174203C206E6F77000000000000000000000000000000000000 PUSH0 DUP3 ADD MSTORE POP JUMP JUMPDEST PUSH0 PUSH2 0x14DF PUSH1 0xE DUP4 PUSH2 0x1328 JUMP JUMPDEST SWAP2 POP PUSH2 0x14EA DUP3 PUSH2 0x14AB JUMP JUMPDEST PUSH1 0x20 DUP3 ADD SWAP1 POP SWAP2 SWAP1 POP JUMP JUMPDEST PUSH0 PUSH1 0x20 DUP3 ADD SWAP1 POP DUP2 DUP2 SUB PUSH0 DUP4 ADD MSTORE PUSH2 0x150C DUP2 PUSH2 0x14D3 JUMP JUMPDEST SWAP1 POP SWAP2 SWAP1 POP JUMP JUMPDEST PUSH32 0x656E64206174203C207374617274206174000000000000000000000000000000 PUSH0 DUP3 ADD MSTORE POP JUMP JUMPDEST PUSH0 PUSH2 0x1547 PUSH1 0x11 DUP4 PUSH2 0x1328 JUMP JUMPDEST SWAP2 POP PUSH2 0x1552 DUP3 PUSH2 0x1513 JUMP JUMPDEST PUSH1 0x20 DUP3 ADD SWAP1 POP SWAP2 SWAP1 POP JUMP JUMPDEST PUSH0 PUSH1 0x20 DUP3 ADD SWAP1 POP DUP2 DUP2 SUB PUSH0 DUP4 ADD MSTORE PUSH2 0x1574 DUP2 PUSH2 0x153B JUMP JUMPDEST SWAP1 POP SWAP2 SWAP1 POP JUMP JUMPDEST PUSH32 0x4E487B7100000000000000000000000000000000000000000000000000000000 PUSH0 MSTORE PUSH1 0x11 PUSH1 0x4 MSTORE PUSH1 0x24 PUSH0 REVERT JUMPDEST PUSH0 PUSH2 0x15B2 DUP3 PUSH2 0x1043 JUMP JUMPDEST SWAP2 POP PUSH2 0x15BD DUP4 PUSH2 0x1043 JUMP JUMPDEST SWAP3 POP DUP3 DUP3 ADD SWAP1 POP DUP1 DUP3 GT ISZERO PUSH2 0x15D5 JUMPI PUSH2 0x15D4 PUSH2 0x157B JUMP JUMPDEST JUMPDEST SWAP3 SWAP2 POP POP JUMP JUMPDEST PUSH32 0x656E64206174203E206D6178206475726174696F6E0000000000000000000000 PUSH0 DUP3 ADD MSTORE POP JUMP JUMPDEST PUSH0 PUSH2 0x160F PUSH1 0x15 DUP4 PUSH2 0x1328 JUMP JUMPDEST SWAP2 POP PUSH2 0x161A DUP3 PUSH2 0x15DB JUMP JUMPDEST PUSH1 0x20 DUP3 ADD SWAP1 POP SWAP2 SWAP1 POP JUMP JUMPDEST PUSH0 PUSH1 0x20 DUP3 ADD SWAP1 POP DUP2 DUP2 SUB PUSH0 DUP4 ADD MSTORE PUSH2 0x163C DUP2 PUSH2 0x1603 JUMP JUMPDEST SWAP1 POP SWAP2 SWAP1 POP JUMP JUMPDEST PUSH0 PUSH2 0x165D PUSH2 0x1658 PUSH2 0x1653 DUP5 PUSH2 0x1185 JUMP JUMPDEST PUSH2 0x12B4 JUMP JUMPDEST PUSH2 0x1043 JUMP JUMPDEST SWAP1 POP SWAP2 SWAP1 POP JUMP JUMPDEST PUSH2 0x166D DUP2 PUSH2 0x1643 JUMP JUMPDEST DUP3 MSTORE POP POP JUMP JUMPDEST PUSH0 PUSH1 0x80 DUP3 ADD SWAP1 POP PUSH2 0x1686 PUSH0 DUP4 ADD DUP8 PUSH2 0x104C JUMP JUMPDEST PUSH2 0x1693 PUSH1 0x20 DUP4 ADD DUP7 PUSH2 0x104C JUMP JUMPDEST PUSH2 0x16A0 PUSH1 0x40 DUP4 ADD DUP6 PUSH2 0x1664 JUMP JUMPDEST PUSH2 0x16AD PUSH1 0x60 DUP4 ADD DUP5 PUSH2 0x1664 JUMP JUMPDEST SWAP6 SWAP5 POP POP POP POP POP JUMP JUMPDEST PUSH32 0x6E6F742063726561746F72000000000000000000000000000000000000000000 PUSH0 DUP3 ADD MSTORE POP JUMP JUMPDEST PUSH0 PUSH2 0x16EA PUSH1 0xB DUP4 PUSH2 0x1328 JUMP JUMPDEST SWAP2 POP PUSH2 0x16F5 DUP3 PUSH2 0x16B6 JUMP JUMPDEST PUSH1 0x20 DUP3 ADD SWAP1 POP SWAP2 SWAP1 POP JUMP JUMPDEST PUSH0 PUSH1 0x20 DUP3 ADD SWAP1 POP DUP2 DUP2 SUB PUSH0 DUP4 ADD MSTORE PUSH2 0x1717 DUP2 PUSH2 0x16DE JUMP JUMPDEST SWAP1 POP SWAP2 SWAP1 POP JUMP JUMPDEST PUSH32 0x706C6564676564203C20676F616C000000000000000000000000000000000000 PUSH0 DUP3 ADD MSTORE POP JUMP JUMPDEST PUSH0 PUSH2 0x1752 PUSH1 0xE DUP4 PUSH2 0x1328 JUMP JUMPDEST SWAP2 POP PUSH2 0x175D DUP3 PUSH2 0x171E JUMP JUMPDEST PUSH1 0x20 DUP3 ADD SWAP1 POP SWAP2 SWAP1 POP JUMP JUMPDEST PUSH0 PUSH1 0x20 DUP3 ADD SWAP1 POP DUP2 DUP2 SUB PUSH0 DUP4 ADD MSTORE PUSH2 0x177F DUP2 PUSH2 0x1746 JUMP JUMPDEST SWAP1 POP SWAP2 SWAP1 POP JUMP JUMPDEST PUSH32 0x636C61696D656400000000000000000000000000000000000000000000000000 PUSH0 DUP3 ADD MSTORE POP JUMP JUMPDEST PUSH0 PUSH2 0x17BA PUSH1 0x7 DUP4 PUSH2 0x1328 JUMP JUMPDEST SWAP2 POP PUSH2 0x17C5 DUP3 PUSH2 0x1786 JUMP JUMPDEST PUSH1 0x20 DUP3 ADD SWAP1 POP SWAP2 SWAP1 POP JUMP JUMPDEST PUSH0 PUSH1 0x20 DUP3 ADD SWAP1 POP DUP2 DUP2 SUB PUSH0 DUP4 ADD MSTORE PUSH2 0x17E7 DUP2 PUSH2 0x17AE JUMP JUMPDEST SWAP1 POP SWAP2 SWAP1 POP JUMP JUMPDEST PUSH32 0x7374617274656400000000000000000000000000000000000000000000000000 PUSH0 DUP3 ADD MSTORE POP JUMP JUMPDEST PUSH0 PUSH2 0x1822 PUSH1 0x7 DUP4 PUSH2 0x1328 JUMP JUMPDEST SWAP2 POP PUSH2 0x182D DUP3 PUSH2 0x17EE JUMP JUMPDEST PUSH1 0x20 DUP3 ADD SWAP1 POP SWAP2 SWAP1 POP JUMP JUMPDEST PUSH0 PUSH1 0x20 DUP3 ADD SWAP1 POP DUP2 DUP2 SUB PUSH0 DUP4 ADD MSTORE PUSH2 0x184F DUP2 PUSH2 0x1816 JUMP JUMPDEST SWAP1 POP SWAP2 SWAP1 POP JUMP JUMPDEST PUSH32 0x656E646564000000000000000000000000000000000000000000000000000000 PUSH0 DUP3 ADD MSTORE POP JUMP JUMPDEST PUSH0 PUSH2 0x188A PUSH1 0x5 DUP4 PUSH2 0x1328 JUMP JUMPDEST SWAP2 POP PUSH2 0x1895 DUP3 PUSH2 0x1856 JUMP JUMPDEST PUSH1 0x20 DUP3 ADD SWAP1 POP SWAP2 SWAP1 POP JUMP JUMPDEST PUSH0 PUSH1 0x20 DUP3 ADD SWAP1 POP DUP2 DUP2 SUB PUSH0 DUP4 ADD MSTORE PUSH2 0x18B7 DUP2 PUSH2 0x187E JUMP JUMPDEST SWAP1 POP SWAP2 SWAP1 POP JUMP JUMPDEST PUSH0 PUSH2 0x18C8 DUP3 PUSH2 0x1043 JUMP JUMPDEST SWAP2 POP PUSH2 0x18D3 DUP4 PUSH2 0x1043 JUMP JUMPDEST SWAP3 POP DUP3 DUP3 SUB SWAP1 POP DUP2 DUP2 GT ISZERO PUSH2 0x18EB JUMPI PUSH2 0x18EA PUSH2 0x157B JUMP JUMPDEST JUMPDEST SWAP3 SWAP2 POP POP JUMP JUMPDEST PUSH32 0x6E6F742073746172746564000000000000000000000000000000000000000000 PUSH0 DUP3 ADD MSTORE POP JUMP JUMPDEST PUSH0 PUSH2 0x1925 PUSH1 0xB DUP4 PUSH2 0x1328 JUMP JUMPDEST SWAP2 POP PUSH2 0x1930 DUP3 PUSH2 0x18F1 JUMP JUMPDEST PUSH1 0x20 DUP3 ADD SWAP1 POP SWAP2 SWAP1 POP JUMP JUMPDEST PUSH0 PUSH1 0x20 DUP3 ADD SWAP1 POP DUP2 DUP2 SUB PUSH0 DUP4 ADD MSTORE PUSH2 0x1952 DUP2 PUSH2 0x1919 JUMP JUMPDEST SWAP1 POP SWAP2 SWAP1 POP JUMP JUMPDEST PUSH0 PUSH1 0x60 DUP3 ADD SWAP1 POP PUSH2 0x196C PUSH0 DUP4 ADD DUP7 PUSH2 0x10FD JUMP JUMPDEST PUSH2 0x1979 PUSH1 0x20 DUP4 ADD DUP6 PUSH2 0x10FD JUMP JUMPDEST PUSH2 0x1986 PUSH1 0x40 DUP4 ADD DUP5 PUSH2 0x104C JUMP JUMPDEST SWAP5 SWAP4 POP POP POP POP JUMP INVALID LOG2 PUSH5 0x6970667358 0x22 SLT KECCAK256 SMOD 0xAD SWAP2 POP PUSH7 0xB05E08E04CD2D3 MULMOD GAS SMOD PUSH21 0xD51EC521DA8ACDC1DBE31FB46D7C11CF64736F6C63 NUMBER STOP ADDMOD AND STOP CALLER "
				},
				"gasEstimates": {
					"creation": {
						"codeDepositCost": "1319200",
						"executionCost": "infinite",
						"totalCost": "infinite"
					},
					"external": {
						"campaigns(uint256)": "infinite",
						"cancel(uint256)": "infinite",
						"claim(uint256)": "infinite",
						"count()": "2425",
						"launch(uint256,uint32,uint32)": "infinite",
						"pledge(uint256,uint256)": "infinite",
						"pledgedAmount(uint256,address)": "infinite",
						"refund(uint256)": "infinite",
						"token()": "infinite",
						"unpledge(uint256,uint256)": "infinite"
					}
				},
				"methodIdentifiers": {
					"campaigns(uint256)": "141961bc",
					"cancel(uint256)": "40e58ee5",
					"claim(uint256)": "379607f5",
					"count()": "06661abd",
					"launch(uint256,uint32,uint32)": "2c63f146",
					"pledge(uint256,uint256)": "fde327be",
					"pledgedAmount(uint256,address)": "aa4fb63a",
					"refund(uint256)": "278ecde1",
					"token()": "fc0c546a",
					"unpledge(uint256,uint256)": "711853ab"
				}
			},
			"storageLayout": {
				"storage": [
					{
						"astId": 84,
						"contract": "crowdfunding.sol:CrowdFunding",
						"label": "count",
						"offset": 0,
						"slot": "0",
						"type": "t_uint256"
					},
					{
						"astId": 89,
						"contract": "crowdfunding.sol:CrowdFunding",
						"label": "campaigns",
						"offset": 0,
						"slot": "1",
						"type": "t_mapping(t_uint256,t_struct(Campaign)79_storage)"
					},
					{
						"astId": 95,
						"contract": "crowdfunding.sol:CrowdFunding",
						"label": "pledgedAmount",
						"offset": 0,
						"slot": "2",
						"type": "t_mapping(t_uint256,t_mapping(t_address,t_uint256))"
					}
				],
				"types": {
					"t_address": {
						"encoding": "inplace",
						"label": "address",
						"numberOfBytes": "20"
					},
					"t_bool": {
						"encoding": "inplace",
						"label": "bool",
						"numberOfBytes": "1"
					},
					"t_mapping(t_address,t_uint256)": {
						"encoding": "mapping",
						"key": "t_address",
						"label": "mapping(address => uint256)",
						"numberOfBytes": "32",
						"value": "t_uint256"
					},
					"t_mapping(t_uint256,t_mapping(t_address,t_uint256))": {
						"encoding": "mapping",
						"key": "t_uint256",
						"label": "mapping(uint256 => mapping(address => uint256))",
						"numberOfBytes": "32",
						"value": "t_mapping(t_address,t_uint256)"
					},
					"t_mapping(t_uint256,t_struct(Campaign)79_storage)": {
						"encoding": "mapping",
						"key": "t_uint256",
						"label": "mapping(uint256 => struct CrowdFunding.Campaign)",
						"numberOfBytes": "32",
						"value": "t_struct(Campaign)79_storage"
					},
					"t_struct(Campaign)79_storage": {
						"encoding": "inplace",
						"label": "struct CrowdFunding.Campaign",
						"members": [
							{
								"astId": 68,
								"contract": "crowdfunding.sol:CrowdFunding",
								"label": "creator",
								"offset": 0,
								"slot": "0",
								"type": "t_address"
							},
							{
								"astId": 70,
								"contract": "crowdfunding.sol:CrowdFunding",
								"label": "goal",
								"offset": 0,
								"slot": "1",
								"type": "t_uint256"
							},
							{
								"astId": 72,
								"contract": "crowdfunding.sol:CrowdFunding",
								"label": "pledged",
								"offset": 0,
								"slot": "2",
								"type": "t_uint256"
							},
							{
								"astId": 74,
								"contract": "crowdfunding.sol:CrowdFunding",
								"label": "startAt",
								"offset": 0,
								"slot": "3",
								"type": "t_uint256"
							},
							{
								"astId": 76,
								"contract": "crowdfunding.sol:CrowdFunding",
								"label": "endAt",
								"offset": 0,
								"slot": "4",
								"type": "t_uint256"
							},
							{
								"astId": 78,
								"contract": "crowdfunding.sol:CrowdFunding",
								"label": "claimed",
								"offset": 0,
								"slot": "5",
								"type": "t_bool"
							}
						],
						"numberOfBytes": "192"
					},
					"t_uint256": {
						"encoding": "inplace",
						"label": "uint256",
						"numberOfBytes": "32"
					}
				}
			},
			"userdoc": {
				"kind": "user",
				"methods": {},
				"version": 1
			}
		}
	}
}